:10000000003C0220A5A602002DC502002DC502005D
:100010002DC502002DC502002DC502002DC5020010
:100020002DC502002DC502002DC502002DC5020000
:0C0030002DC502002DC502002D2F01007F
:10003C002DE9F047A8B004460078A0F1A0015C2996
:10004C0000F26780DFE811F0BC00DF005D005D00AE
:10005C00F70024015F015D0084018D01A901E60117
:10006C0015023C024F025B02690274027D02860299
:10007C008C0295029B02C902E002EB02F702070315
:10008C001203B900B900B9001C032603B900B9006A
:10009C003103B900B900B900B900B900B900B90011
:1000AC00B9003C034203B900B900B900B900B9006A
:1000BC00B900B900B9004B035403B900B900B90039
:1000CC00B900B900B900B900B9005D03B900B900B5
:1000DC006403B9008603B900B900B900B9009003F4
:1000EC00B900B900B900B900B900B900B900B9003C
:1000FC00B900B900B900B900B9009903A7035D00B4
:10010C00B90060681221002808BF0221617001F05B
:10011C0083BA4D2800F25180A678DFE810F04C032A
:10012C004E005C03660346044E004E006F048004D0
:10013C00CE044E004E004E004E004E004E00D70432
:10014C00E10409054E002D05350643064E004E060A
:10015C005D064E00680682064E00AB06CF06D20640
:10016C00DF0603074E004E004E004E004E004D07BA
:10017C004E005B076C077D074E004E004E004E0094
:10018C004E004E004E004E004E004E004E004E00F3
:10019C004E009607B107CB074E004E004E004E00A6
:1001AC00E5074E0047084E0058084E004E004E0022
:1001BC004E0078088F089C08A608122001F02BBA74
:1001CC006068002801F02682A168002901F02282D3
:1001DC0001783A20002908BF3B200BAD00211122E9
:1001EC002B462EF01FFD0028607041F01582D4E9DB
:1001FC0001109DF82C204270097800F8021B691C34
:10020C00102200F034BE6168002901F003820878E6
:10021C004A783A258B7800288DF82C2008BF3B258E
:10022C000BA80130002B01F03680033110222EF088
:10023C00D7FE01F032B86168002901F0EB81A068AB
:10024C00002801F0E78111F8012B00F8012B2FF0A9
:10025C0061FC60680178002901F0AD81DFF8DC0EEB
:10026C000BAE002506F108080788AF4201F0D081DB
:10027C00A9B204200022142300962BF011FC60700C
:10028C0020B92FF037F9002801F023820135ECE773
:10029C006068002801F0BE810178002901F003801C
:1002AC00DFF8980E0DF12C0A00250DF11C08002624
:1002BC000AF10809CDE90955CDE907550788B74278
:1002CC0001F0D781B1B2042000221423CDF800A094
:1002DC002BF0E6FB6070A0B9606849460822043038
:1002EC002DF054FC002801F0C28155B960684146DC
:1002FC00082204302DF04AFC00284FF0000508BFFE
:10030C0035460136DBE76068002801F0838101780F
:10031C00002900F0E287DFF8240E0DF12C090027EC
:10032C0009F108080588BD4201F07681BEB20420AF
:10033C0000221423CDF8009031462BF0B1FB6070F5
:10034C0020B92FF0D7F8002801F0A5810137EAE792
:10035C00DFF8EC0D4FF48071007822F051F801F0C9
:10036C0057B96068002801F05581418800882AF04F
:10037C0079FE68B9606801224188008825F06EFC1E
:10038C006068418800882AF06DFE002801F09A818F
:10039C0061680979417001F03BB96168002900F08E
:1003AC006F87DFF8A05D087885F8260095F8722035
:1003BC004888E882087A2876488968834868A86261
:1003CC008889A884887B85F83800C87B6871087C8C
:1003DC00E8704869286388696863087F824202D0A4
:1003EC0026F020FC616805F139001D312FF0E6FB89
:1003FC0095F82600082840F04B87DFF8482D21207F
:10040C0074212FF091F900200221002528F094FB93
:10041C0000F03FBF6068002800F03487007826F0B9
:10042C0001FC6168DFF81C5D287E4978884212D097
:10043C0029760BA9E1202BF07BF9606841789DF8B7
:10044C002C00884207D08DF82C100BA9E12026F047
:10045C00C5FD60684078012101FA00F0A8622DF01A
:10046C0059F800260120A5F8706020F01DFE00F060
:10047C000ABF6068002801F0CD8001884088ADF883
:10048C001C00ADF82C100BA9532026F0A7FD07A9D2
:10049C00502026F0A3FD0DF11B01E1202BF048F9B3
:1004AC0060689DF81B100079814201F0B1808DF8D5
:1004BC001B000DF11B01E12026F090FD01F0A8B806
:1004CC006168002901F0A680DFF87C0C2FF022FB7C
:1004DC006068DFF8782C0189807A1180DFF8701C55
:1004EC00087001F095B86068002801F09380002135
:1004FC0061708178008823F02DFB01F08DB8A06825
:10050C00002801F087800020607026F03BF800285E
:10051C0000F0E786A16800F08EBE6068002801F04C
:10052C0079800021617000780BF066F901F074B8E5
:10053C006068002801F06E80007826F093FD01F0D1
:10054C006AB8A068002801F06580002060702FF068
:10055C0049F8B2E00020607028F0FCFF01F05CB8B4
:10056C00A068002801F05680002060702FF02AF956
:10057C00A3E00020607029F025F801F04DB8606808
:10058C00002801F0478000216170017D19B1C17C08
:10059C00DFF8C02B5174817D19B1417DDFF8B42B8C
:1005AC009174017C19B1C189DFF8A82B1181017BF1
:1005BC0019B18168DFF89C2B5160817C19B1417CA9
:1005CC00DFF8902B51730179002901F02580006828
:1005DC00DFF8801B086001F01FB8A068002801F04C
:1005EC001980DFF8701BD1F80D20C0F80D2091E8B0
:1005FC002C0085600D7BC0E900230573B1F8111048
:10060C00A0F8111001F004B8A068002801F00280D5
:10061C0000216170411C26F003FD00F0FDBF6068F5
:10062C00002800F0F7870021617025F06BF8A168B5
:10063C00088000F0F1BF6568002D00F0EB87EB88B7
:10064C00AA88698828782E890A35CDE9006518F0C2
:10065C00FDFB00F0E0BF6068002800F0DB878288BB
:10066C004188007807F0E6F900F0D5BF60680028F3
:10067C0000F0D08700F1120127F014FD00F0CBBF81
:10068C006068002800F0C6874168007825F0F8F80B
:10069C0000F0C1BF6068002800F0BC8700216170C9
:1006AC00007829F007FD00F0B7BFA068002800F023
:1006BC00B187002060702CF09DFFA16800F0BCBDDC
:1006CC000020607023F0CAFE00F0A6BF606800280E
:1006DC0000F0A087006828F059FF00F09CBF60680C
:1006EC00002800F09787006806F06EF800F093BFC2
:1006FC006068002800F08E8700680FF0CBFE00F0D9
:10070C008ABF0020DFF8501A6070E07800F094BDCA
:10071C006168002900F080870820ADF82C0008885B
:10072C00ADF82E00081D0BAC90E86800221D68C2C5
:10073C00087CD1E905231C31CDE910238DF83C0050
:10074C0004F11C0010222EF04BFC20462BF0EAF991
:10075C0000F062BF6068002800F05E87817A008834
:10076C0026F0C4FF00F058BF60680078002800F045
:10077C008C8528F083FD00F04FBF6068002800F0E6
:10078C004987DFF8D819097801293FF616AD2EF004
:10079C0095F900F040BF6068002800F03B87DFF857
:1007AC00BC19097801293FF608AD4168008823F08F
:1007BC004DF900F030BF6068002800F02B874078BE
:1007CC0018B1FF20032128F0B7F92FF004F9E848FD
:1007DC0001210160FEE76068002800F01B870321FF
:1007EC000171E449016000F013BF6268002A00F057
:1007FC001187A168002900F00D8700206070107827
:10080C0040B101200870DFF858090078002818BFA3
:10081C0001204870907840B101200871DFF844093C
:10082C000078002818BF01204871D07848B100200A
:10083C002EF0E4F9D4E90121C0F34030C871012055
:10084C008871107950B30120087201F10C002EF060
:10085C00D5F9A1680882DFF80409007802281DD1B7
:10086C00DFF804090078C8B9DFF800590120A8475F
:10087C00A16848610220A847A16888610420A847A4
:10088C00A168C8610820A847A16808621020A84781
:10089C00A16848622020A847A168886260684279F4
:1008AC0032B1012281F82C20DFF8C4281288CA85C5
:1008BC00827932B1012281F83020DFF8B828128811
:1008CC004A86C27932B1012281F83420DFF8A82897
:1008DC001288CA86027A3AB1012281F83820DFF8F0
:1008EC009C28127881F83920427A3AB1012281F899
:1008FC003A20DFF88C28127881F83B20827A3AB1C2
:10090C00012281F83C20DFF87C28127881F83D2008
:10091C00C27A3AB1012281F83E20DFF86C281278B5
:10092C0081F83F20027B3AB1012281F84020DFF8A8
:10093C005C28127881F84120427B3AB1012281F87F
:10094C004220DFF84C28127881F84320827B3AB1A0
:10095C00012281F84420DFF83C28127881F84520E8
:10096C00C27B002A00F0C08601201122002681F8EB
:10097C0046000BAD812000212B462EF053F99DF83B
:10098C002C00A168002881F8470000F090862FF019
:10099C0074F9A1680028886400F0A1869DF82C20C9
:1009AC00691C2EF01DFB00F09EBE254655F8040F69
:1009BC00002800F02F8600216170017841B1407849
:1009CC00DFF89C270121107063202EF0ADFE286803
:1009DC00017941B14079DFF88C27012110706D202D
:1009EC002EF0A2FE28688179002900F07C84C17960
:1009FC004FF400500EF0E2F800F089BC606800285B
:100A0C0000F0088690F9005028462DF09FF9A06858
:100A1C00002800F0FD85E9B2017000F0F9BD6068B6
:100A2C00002800F0F785002161702A212FF014F8BE
:100A3C00DFF810576068DFF860670822E98A0180E8
:100A4C00A98C8181698BC182DFF85017097881727A
:100A5C0005F139010E30B04767682DF0ADFF014646
:100A6C00B81C0822B047606805F11C010822183038
:100A7C00B0476068297E012280F82310DFF8201728
:100A8C0080F821208978CB0718BF80F824208A07AA
:100A9C0044BF012280F825204A0744BF012280F878
:100AAC0026200A0744BF012280F82720490644BFAC
:100ABC00012180F8281000F0AFBD6068002800F01C
:100ACC00A98500782EF03CFE00F0A2BD60680028DD
:100ADC0000F0A0850088002111F054FE00F09CBDB0
:100AEC006068002800F0968530462DF003FD054621
:100AFC00002800F01485E888DFF8A81640F00C00F8
:100B0C00E88002202DF0C6FFDFF89C1603202DF0A4
:100B1C00C1FF40F20110ADF8310060680168007946
:100B2C000B918DF830000BA822F0D8FD00F073BDAE
:100B3C006068002800F06E850BAD011D0822284668
:100B4C002EF04EFA03202CF0D5FC6068C07B2AF006
:100B5C00A9F8DFF84C0683786068418886890278AA
:100B6C00807BCDE90060284616F030FC00F053BDC8
:100B7C007C052043010102066768002F00F04A85BE
:100B8C002EF08BFE0546002800F0DA84387828B168
:100B9C00E988787821F001010843E880B87830B111
:100BAC00E988F87821F0020141EA4000E8803879C0
:100BBC0030B1E988787921F0040141EA8000E880BD
:100BCC00B87930B1E988F87921F0080141EAC00020
:100BDC00E880387A30B1E988787A21F0100141EA5E
:100BEC000010E880B87A30B1E988F87A21F0200159
:100BFC0041EA4010E880387B30B1E988787B21F0FD
:100C0C00400141EA8010E880B87B28B1A968F87BE4
:100C1C0021F001010843A860387C38B1A968787CC0
:100C2C0021F00201002818BF0231A960B87C38B14C
:100C3C00A968F87C21F00401002818BF0431A960D0
:100C4C00B87D38B1A968F87D21F01001002818BFD3
:100C5C001031A960387E38B1A968787E21F0200166
:100C6C00002818BF2031A960B87E38B1A968F87E79
:100C7C0021F04001002818BF4031A96097F82200EC
:100C8C0048B1A96897F8230021F48061002818BFA7
:100C9C0001F58061A96097F8260048B1A96897F81A
:100CAC00270021F40051002818BF01F50051A9605C
:100CBC0097F8280048B1A96897F8290021F48041D9
:100CCC00002818BF01F58041A96097F82A0048B1A7
:100CDC00A96897F82B0021F40041002818BF01F5F2
:100CEC000041A96097F8340048B1A96897F835001D
:100CFC0021F48011002818BF01F58011A96097F824
:100D0C00380048B1A96897F8390021F4800100280F
:100D1C0018BF01F58001A96097F83C0048B1A9689B
:100D2C0097F83D0021F08071002818BF01F1807107
:100D3C00A96097F83E0048B1A96897F83F0021F0E8
:100D4C000071002818BF01F10071A96097F84000EC
:100D5C0048B1A96897F8410021F00061002818BF3C
:100D6C0001F10061A96097F84200002800F054845A
:100D7C0097F84310A86800290CBF20F0805040F071
:100D8C008050A86000F048BC6068002800F04284E5
:100D9C008178002900F0E783C2780321002A08BF7C
:100DAC000121E1E36168002900F0348408888A7825
:100DBC0001211EF085FB00F02EBC022060706068E3
:100DCC00002800F029844188007826F08FFE002846
:100DDC0040F01E8400F020BC6068002800F01A84EB
:100DEC0000216170007828F045FB00F015BC6068AC
:100DFC00002800F00F84A168002900F00B8400216A
:100E0C00617000782CF0DAFFA168087040002EF0B9
:100E1C0034FF0146D4E90102516000782BF010FF39
:100E2C00FAE36068002800F0F583A068002800F061
:100E3C00F1830026C0E900666068418800782BF0D9
:100E4C007FFA002800F0CF8366700546A168008801
:100E5C000880A8780028887000F0DE832EF00DFF43
:100E6C00A1680028486000F0D7838A78E91C2EF02E
:100E7C00B7F8D1E36068002800F0CC830021CDF8EE
:100E8C003A10CDF83610CDF83210CDF82E1002797C
:100E9C004188ADF82C105AB1816849B10F2A28BF8E
:100EAC000F228DF82E200BA803302EF099F86068D5
:100EBC0000780BA9012220F061FFACE32DF0DEFAE3
:100ECC00A9E36568002D00F0A5832F7838462DF036
:100EDC001DFB002800F05183D0209CE360680028A3
:100EEC0000F0988300782DF011FB002800F092831D
:100EFC000546007B29F090F80028607040F08C8348
:100F0C00DFF8E00A4168002900F0868300220C46D5
:100F1C002346002C00F0CD83AB4200F0CA831C6842
:100F2C001A46F5E76668002E00F07483357D284676
:100F3C002DF0ECFA002800F06D83307F102141EA8F
:100F4C004007717F002908BF4700B07F002818BFF9
:100F5C0047F00807F07F002818BF47F0200796F8E5
:100F6C002000002818BF47F0400796F82100002801
:100F7C00284618BF67F07F07D6F818802EF0C0F807
:100F8C00002800F0478305466068827A01788DF866
:100F9C00352082898DF83410ADF836204A1E022A8D
:100FAC0005D3032900F046840F2940F0488441887A
:100FBC00ADF82C1000F043BC61680220002900F051
:100FCC002A830A888DF834004988ADF82C200BA8A8
:100FDC0002221DE061680220002900F01C838DF8BC
:100FEC003400002308880A794988ADF82C000BA836
:100FFC002BF0DEFD0FE361680220002900F00B836B
:10100C008DF83400052208884988ADF82C000BA80F
:10101C0000232CF07FFEFEE265680220002D00F01C
:10102C00FA828DF834002E7B00272888AB79AA88A9
:10103C006988ADF82C00A8682D69CDE90006CDE9CA
:10104C0002570BA818F022FFE5E265680220002D7C
:10105C0000F0E1828DF83400EE682F7C4FF0000C2C
:10106C002888EB8869882A79ADF82C00287A6D6974
:10107C008DE8C100CDE9035C0BA818F0AFFECAE205
:10108C006168002900F0C68202208DF83400887B4C
:10109C000D88421E8DF82400022AADF82C5005D381
:1010AC00032800F0A2820F2840F0A482088AADF831
:1010BC001C009FE26068002800F0AC8202218DF8D1
:1010CC0034100188ADF82C10817B4A1E8DF8241049
:1010DC00022A05D3032900F0B0820F2940F0B38215
:1010EC00018AADF81C10AEE26068002800F0928214
:1010FC0002214FF6FC728DF8341001888A1A032AEB
:10110C0011D8022A0FD02EF09BF9ADF82C00606894
:10111C000021837AC27A0091811C0BA827F03CFA3B
:10112C00607060680188ADF82C10837AC27A002157
:10113C000091811C0BA827F02FFA6CE2281A0300EF
:10114C00BB7A0020A86A00206427002062270020B8
:10115C0060270020642200203F29002078270020EF
:10116C007C290020ED7A002081290020E9FE010075
:10117C0028290020242900202C2900207229002055
:10118C006F29002064290020702900207B29002071
:10119C00652900207E290020EDEF02003028002078
:1011AC003C790020098B020095EC02006268022059
:1011BC00002A00F030828DF83400002310889178DA
:1011CC00D278ADF82C000BA822F014FC23E2616855
:1011DC00002900F01F82CA7A887A0B7B4D7B002A8B
:1011EC0018BF40F00200002B18BF40F00400002D87
:1011FC0018BF40F008008A7B002A18BF40F040005E
:10120C000023C2B20888023128F0C4F803E26068F7
:10121C00002800F0FF81A168002900F0FB81007814
:10122C000BA92BF0FEFE0020BDF82C206070D4E939
:10123C000101A1F8012000780870EDE16068002838
:10124C0000F0E881B0F80110ADF82C1000780BA973
:10125C002CF08AFDDFE16068002800F0DB81017A68
:10126C00427A002321F05CF9D5E16068002800F097
:10127C00D1818178C2780088002329F08BFDCAE1E6
:10128C00022506E002266670C6E12BF0B9FEC3E12A
:10129C0000256570C0E129F0ADFD0BAA284611218F
:1012AC002EF042FAB7E100F10C010BA810222DF040
:1012BC0097FE6068D0E907120430CDE90F1207A938
:1012CC002BF088FC0028607000F0FE816168488873
:1012DC0004310BAA23F0F4FE9DE101302DF0A3FAAA
:1012EC0099E1012097E1017A89B1C168008A42072E
:1012FC0001D064290BD317F089F9002001210DF0DE
:10130C005DFCDFF8E826352028212EF00DFA286840
:10131C00817C41B1808ADFF8D826022110804420DC
:10132C002EF002FA2868817D41B1008BDFF8C426CB
:10133C000221108046202EF0F7F92868817E41B1F9
:10134C00808BDFF8B4260221108083202EF0ECF97C
:10135C002868817F41B1C07FDFF8A0260121107081
:10136C0029202EF0E1F9286890F8201049B190F866
:10137C002100DFF88C26012110702B202EF0D4F9DF
:10138C00286890F8221049B190F82300DFF87426F1
:10139C000121107043202EF0C7F9286890F8241012
:1013AC0049B190F82500DFF86026012110702E203D
:1013BC002EF0BAF9286890F8261049B190F8270059
:1013CC00DFF84826012110702F202EF0ADF9286887
:1013DC0090F8281049B190F82900DFF83426012143
:1013EC00107030202EF0A0F9286890F82A1049B11E
:1013FC0090F82B00DFF81C26012110702C202EF009
:10140C0093F9286890F82C1089B190F82D20102AA7
:10141C0028BF1022016B8DF82C200BAC601C2DF01A
:10142C00DFFD8120112122462EF07EF9286890F8EC
:10143C00341049B190F83510102928BF1021826B57
:10144C0062202EF071F9286890F83C1041B1006CC4
:10145C00DFF8C4250421106084202EF065F928687B
:10146C0090F8441049B190F84500DFF8B0250121FF
:10147C0010704B202EF058F9286890F8461069B17E
:10148C00DFF89C4500F14701082220462DF0A8FD0D
:10149C004720082122462EF047F9286890F84F1073
:1014AC0031B100F15002012008212EF03DF92868DD
:1014BC0090F8581041B190F859008DF82C000BA9F8
:1014CC00522025F08BFD286890F85E1049B190F8F9
:1014DC005F00DFF850250121107033202EF024F925
:1014EC00286890F85C1059B190F85D00DFF8382549
:1014FC000121107032202EF017F924F01FF8286803
:10150C0090F86010002900F0878090F86100DFF8F7
:10151C00D4144870DFF8C81481F868007CE01C20F3
:10152C002EF0ABFB002877D01C2105462EF094FA48
:10153C0028462E7128F026FE00287FF4DCAA91E0C4
:10154C001C202EF09AFB002866D01C2105462EF09C
:10155C0083FA28462E7128F015FE002800F08280B0
:10156C006768FFF713BB002103794279002B18BF82
:10157C004031008810F094FD4DE02CF0D3FFDFF8E3
:10158C0064140978884270D22EF087F920B1814614
:10159C00007B002800F08D811C202EF06EFBD8B350
:1015AC001C2181462EF058FA89F804604FF001088E
:1015BC0065682F787FE1013007A92BF00BFB607079
:1015CC0050BB07980021182240880BAB2DF02AFB4A
:1015DC00607008BBA068DDE90F12C0E90712093082
:1015EC000BA9FEF70DBEB12015E0103107A82EF0A7
:1015FC0091FA6168DFF8E803C08A854210D1887AD5
:10160C000A7E0C310123009107A90CF01DF808B1DA
:10161C00002000E002206070012028B0BDE8F087B7
:10162C0088890A7E8B7A07AE0025CDE90006CDE9C4
:10163C0002258A1C0BA9212011E000F1100107A83A
:10164C002EF068FA60688189027E837A07AE0025E5
:10165C00CDE90225CDE90016821C0BA922201EF033
:10166C0075FED8E728462EF006FBD120D3E7374687
:10167C003546012DD0DB60680822011D48462DF04F
:10168C00AFFC60681422D0E90710CDE90B10B9B299
:10169C000BAB042008E00BAD142128462EF0DCF92E
:1016AC000420314614222B462AF010FAB3E78E643C
:1016BC0019E0AB42B0D1A94208BF021D28681060E6
:1016CC002846E2E0C820A6E70798182140880BAA14
:1016DC00E6E5A068DDE90B12C0E907129CE70020E3
:1016EC00886481F847006068007C70B110202EF08F
:1016FC00C4FA0346A06803653BB10121102280F8AF
:10170C004C10622000212DF08DFA6068417C31B1C3
:10171C00A168012281F85420BF4A12688A65817C35
:10172C0039B1A168012281F85C20BC4A127881F899
:10173C005D20C17C51B1A0680121082280F85E10A7
:10174C00A7495F3039312DF04BFC6068017D59B1F0
:10175C00A568012085F867002DF02EF9014605F1EA
:10176C0068002EF0D7F96068417D79B10BA9522041
:10177C0029F0DEFFA068012180F870109DF82C1074
:10178C00002918BF012180F871106068817D19B1A2
:10179C00A1680122A1F87220C17D51B1A16801227A
:1017AC0081F87420A04A1278002A18BF012281F80F
:1017BC007520017E39B1A168012281F87620994A01
:1017CC00127881F87720417E51B1A168012281F80D
:1017DC007820844A5278002A18BF012281F8792097
:1017EC00807E00283FF418AFA168012081F87A00B0
:1017FC007B4991F82610082918BF042916D0A1B9E5
:10180C0021202EF039F974280FD10BAB21200021A7
:10181C0074222DF007FA9DF85210043901F0FB01E7
:10182C000843B0FA80F0400900E00020A16881F87C
:10183C007B00F1E6811C0BA82EF06CF96068817BB3
:10184C0031B348002EF019FA88B3616806460022BD
:10185C00887B904206D00B6933F8123026F8123090
:10186C000132F6E78B8CCA8AD1F828C091F8221085
:10187C00FFB2CDE90406CDE90271CDE900C80BA891
:10188C00294625F0E0F8607030462EF0F4F9C3E6F6
:10189C00838CC28A816A90F82200FEB2CDE90018CE
:1018AC00CDE902600BA8294609F0FCFCB3E6102038
:1018BC00B1E64FF000084E4606F80C7F287A3073DC
:1018CC004948706014202EF0D8F90028B06045D03B
:1018DC0014212EF0C1F86268D9F81400526881798D
:1018EC00927901F0F00102F00F02114481716168EC
:1018FC00D9F8140049680A780270D1F80220C0F8AF
:10190C000220CA79C271097B017350002EF0B5F91F
:10191C00D9F81410886060B1CA7900239A4208D0B3
:10192C0065686D68AD6835F8135020F813500133B5
:10193C00F4E7087B40002EF0A0F9D9F814100861E8
:10194C0060B1097B0022914208D063685B681B6917
:10195C0033F8123020F812300132F4E730462BF015
:10196C005DF9B82802D00746022806D1307828F055
:10197C0053FB30462BF052F9074637B1B8F1000F44
:10198C000FD048462EF077F923E0B8F1000F3FF462
:10199C0043AE484628F0F6FB00287FF43DAE48469F
:1019AC0073E7D9F8140078B1816821B108462EF09C
:1019BC0062F9D9F81400016921B108462EF05BF9DF
:1019CC00D9F814002EF057F90020C6E90000C6E93A
:1019DC000200B82F3FF480AA022F3FF47DAA1BE629
:1019EC00A86A0020EC27002016290020C8740020CB
:1019FC0028290020242900202C29002072290020CD
:101A0C006F29002064290020702900207B290020E8
:101A1C00652900207E2900200C2900206129002046
:101A2C0024280020692900206A2900202DE9F04F84
:101A3C0099B080466FF007000DF11C0B063098F83A
:101A4C0008105A46ADF85200D8F8040013F020F9EB
:101A5C00002800F0B5809DF81E609DF81F409DF891
:101A6C002070BDF826502DF0E5FC844240F0A88093
:101A7C0025F003004FF6F87480B2A04200F0A0806D
:101A8C00012F00F29D80022E80F09A80B8F8280079
:101A9C00ADF84800B8F83200ADF82A009DF82200E5
:101AAC00D0B1D8F804109DF81D209DF838300120D5
:101ABC002CF0CEF808B1CF2083E0DFF85807C078BF
:101ACC00012809D1B8F828002DF07DFF20B141790B
:101ADC0001F0E701083141719DF8210068B1BDF8B2
:101AEC002610FF202AF02CFC9DF82110D8B141F0D3
:101AFC0001012C268DF8211016E09DF839000028E4
:101B0C0064D09DF83D10FF2902D0002940F0ED80F3
:101B1C00DFF80407BDF82620C18A8A4240F0EE8027
:101B2C000120222607E0082601F00300012808BF47
:101B3C0046F011060120B1073746DFF8DC9658BF96
:101B4C0067F07F07002808BF37469DF8220030B9A0
:101B5C0099F80B0018B107F02200222813D117F0C6
:101B6C00400A58D0119899F80E200178920718D491
:101B7C000C291BD8012241F290438A401A4245D1CC
:101B8C00032940D012E0F8B200F0420042287FF462
:101B9C0092AF1198007800F0FE0006287FF48BAF0E
:101BAC00DDE7A1F10C0212F10C0F2AD8B9F81600DE
:101BBC00BDF82620824203D1BDF8280028F022FF70
:101BCC00D3201CF036FB19B0BDE8F08FBDF8260011
:101BDC0027F040F90238DFF84016B0FA80F0CA8AD4
:101BEC004109BDF82600904208BF0231002900F0DF
:101BFC008C809DF81E20002A00F03A8101F14007EC
:101C0C0038E1032902D140780D2804D007A826F02A
:101C1C005BFB0128D7D0B9F82400B8F844108142F6
:101C2C000AD198F84620B8F84210B8F828000023DA
:101C3C000093002311F04EFC9DF82200E0B1B8F89F
:101C4C004210B8F8280029F00DFAB8B30646D8F8B7
:101C5C0004009DF81D10F2780844417B8A421EBF97
:101C6C0000227260F170013004212AF021F87168B1
:101C7C008842A8D30130706099F80E008007A2D575
:101C8C009DF84D0058B1BDF828002CF08FFA0028B3
:101C9C006FD0D8F80400417801F0DF0141709DF855
:101CAC002E00A0B3D8F804008179013981718DF828
:101CBC002E1007F07F0009062CD12AE09DF84D006C
:101CCC00002841D004202AF065FE00283FF47BAFA9
:101CDC0001464FF4B2700880B8F828004880DFF84D
:101CEC003C05007821F07EFD6DE7109A9DF83C00D4
:101CFC0025F0CAF830B1012000261CE790F8260028
:101D0C000428F8D10026002015E70027B2E007F0E0
:101D1C007F000746390702D44FF0000A49E0F9B2B8
:101D2C004A0737D4C9069DF821103DD5C1F382026C
:101D3C0012B1072A18BF013A002A08BF074601F062
:101D4C00E30040EA82012DE099F86C0001287FF451
:101D5C0093AF11980078062803D1BAF1000F7FF4E5
:101D6C008BAFE01DBDF82A1080B281423FF42BAF3F
:101D7C0044E1D3201CF05DFADFF8A40400780028BD
:101D8C0000F0AD80DFF89C1451F82000C0EB00107F
:101D9C008100A6E09DF8210000F0E00100F0E300D6
:101DAC0040EAD1018DF82110D8F804004FF4805A84
:101DBC00017299F82600092801D0042829D1B9F814
:101DCC001610BDF8260088420AD027F043F80228E6
:101DDC0006D09DF8210000F0030001287FF4F3AE3B
:101DEC009DF81E0000285BD011989DF838100078E3
:101DFC00042808BF02296DD0072808BF042900F069
:101E0C00838003287FF4DFAE07A8002114F0B0FB19
:101E1C00D9E6FEB217F0610F49D0F00708D0B8F838
:101E2C00281007A818F032FF002871D007F09F0780
:101E3C000025FEB2B80605D52CF0BEFC07A815A9E6
:101E4C0007F0AAF8700640F13981B8F8281007A8F5
:101E5C000DF152022B4612F097FF002800F0818002
:101E6C00054611980078012808BF4AF0100A25E1B0
:101E7C0001F1200726F0EEFF0138B0FA80F040099E
:101E8C0047EA00069DF81E0000283FF453AE119857
:101E9C0000782CF0DFF9012818BF07F07E0649E620
:101EAC002CF08AFC07A815A907F076F88BE69DF8AC
:101EBC001E00012864D111980078032853D00528FE
:101ECC005ED1B8F8281007A80DF15202002312F0C9
:101EDC005BFF78E607A9002013F0EEFD73E6D1480E
:101EEC000168D1480268BDF82800904701287FF4AA
:101EFC006AAECE480168BDF828008847CC48016816
:101F0C00BDF8280088475EE607A81BF045FA5AE69C
:101F1C002BF080F99DF82E100546BDF8280021B94C
:101F2C00B8F8281088423FF484AFB9F816108142F3
:101F3C0004D1B848807800283FF47BAFB8F828105B
:101F4C0007A82A460CF07EFA002800F09E80300785
:101F5C004AF0040ABDF8260048BFE01DADF8520057
:101F6C0067E70025AAE0BDF826002CF01FF938B170
:101F7C00B8F8281007A80DF15202002312F004FF44
:101F8C009DF82E0088B328F0B7FA00287FF41BAE1A
:101F9C009DF83900B8B3109A9DF83C009DF83D109F
:101FAC0024F072FF002873D09DF83D00002878D0F3
:101FBC0010992DF095FC9DF82430ADF852001120AD
:101FCC009DF823209DF821104AF0400A002B08BFF1
:101FDC000920002A18BF0830002918BF0130D8F892
:101FEC0004100A5C013A0A5465E09DF81E000128B1
:101FFC0004D11198007803283FF4E5AD07A84146B9
:10200C0021F0DCFEDFE59DF82010BDF8260000294C
:10201C00ADF8520000F0CF804020BDF826100BF137
:10202C001D0200EAC7099DF820004B461CF082FAFD
:10203C0038B1D8F804004AF0200A017801F03F01C9
:10204C0001709DF8390048B1BDF826100BF1200045
:10205C0026F01CF94AF0400AADF852009DF81E001B
:10206C00012806D0BDF82810BDF82600002218F073
:10207C0017F9BDF82810BDF826004A4615F0E4FC07
:10208C00002818BF4AF0200A15E007F0DF07CFE65A
:10209C00BDF82610BDF828000B2200231DF0CBFF45
:1020AC0091E5BDF82600ADF852002DF08CFC00280F
:1020BC0008BF4AF0400A2BF0ADF80546A01DBDF84C
:1020CC00521080B20E1A5B4818BF2E4600780128B9
:1020DC0005D1E01DB8F8321080B281422ED178B211
:1020EC00B0F1FF3F3FF76FAD002E3FF46CADB8F889
:1020FC0008002DF0C2FD00283FF465ADB8F80820AB
:10210C00D8F8041005462CF06BFF9DF81E1000202B
:10211C0098F80830B8F8282016908DF85410BDF8AF
:10212C00521015ACCDE9006ACDE90204284616F030
:10213C0093FB68B328462DF09EFD44E5B8F82810B3
:10214C008142CCD0601CBDF8262080B28242C6D21F
:10215C00BDF828008142C2D02DF035FC0028BED03D
:10216C00017901390129BAD8408801218DF8541020
:10217C00ADF8600015AD284622F036FC0028AED034
:10218C00281D21F0A3F90028A9D02AF061F8A6E7B0
:10219C002048407800283FF416AD00208DF81860D8
:1021AC00ADF81900DDF826004FEA3040059005A87F
:1021BC002CF02EFD07E531073FF52EAF9DF81E10D4
:1021CC0001293FF429AF00211CF074F920B14079AA
:1021DC0001380228FFF420AFB8F84410BDF85200C3
:1021EC0028F040FF30B180782BF0B4FA0138072882
:1021FC00FFF412AFBDF828002BF0D8FF18B1042063
:10220C008DF8200008E7BDF82610BDF82800022242
:10221C0043E700BF30270020A86A0020BB7A0020CB
:10222C007329002040130300582400206024002050
:10223C005C2400207F2900202DE9F04F8FB00C4644
:10224C00480718D4200471D4E00400F1CC81200696
:10225C0000F1EA81A00700F10082200500F1348230
:10226C00600600F13482A00400F16682600400F183
:10227C00A882002017E2DFF8D8050178062900F2C1
:10228C001082DFE811F00700C0010E020E020802F6
:10229C000E02C501DFF8BC6596F837104A0700F14D
:1022AC00C8818A0700F1ED81090740F1FA81062106
:1022BC00017096F83A00002800F0C68224F062F90A
:1022CC00002800F0C1820546F0684068407880071D
:1022DC0040F19582287804AB0321002225F001FF00
:1022EC00002800F07A8206980188B42916D8B42107
:1022FC004FF47A720180DFF860054FF400510078DA
:10230C002DF017FCDFF85805016839B1DFF85405DA
:10231C000078FF2814BF2878FF208847F0684068B1
:10232C004078C00740F0628209205CE2DFF83C058F
:10233C00DFF82475DFF818A5DFF8445548F20408D7
:10234C0048F202094FF6FE7B00880290387820F0A4
:10235C00FDFC002800F0448106460078D3280DD1FE
:10236C00F089404537D0484539D048F201018842C0
:10237C0040F01C81304619F045FE17E19AF8001028
:10238C00884219D1012856D0032840F00F81DFF87C
:10239C00CC0400780138012800F20881B0780128BB
:1023AC0077D0002840F002817078002800F0BE80C1
:1023BC00002022F031FCF9E00A2840F0F780DFF829
:1023CC00941491F837003071096A002900F0EE80FE
:1023DC00B01C8847EAE030461EF060F8E6E0DFF813
:1023EC0094040078002800F0E1809AF8000001289D
:1023FC0040F0DC802CF03CFD002840F0D780708849
:10240C00002840F0D3800AAD122128462DF024FB81
:10241C002DF0F8F9304629461CF0F8FDBDF83400D3
:10242C00B0F5285FC0F095800120022123F04EFA10
:10243C00DFF84C54BAE0DFF82404007801380128A6
:10244C0000F2B4807078DFF80C2460B192F83C0094
:10245C0092F83D10013082F83C00C0B2884202D99B
:10246C0001200021A0E09AF80100032834D00228B2
:10247C004BD0012840F09A80DFF8F8030078002850
:10248C0000F08C802CF0F4FC002800F093800120EC
:10249C0085E07078002851D02CF0D2FF5845DFF839
:1024AC00D8B34FF6FE7103D1BBF81600884207D0A3
:1024BC00ABF81610ADF81010532004A924F08EFDC3
:1024CC0023F0F2FB2AF0C6FE00208BF8260021F048
:1024DC00C5FF4FF6FE7B69E0AB4604ADAB20002197
:1024EC002A4620F0C7FF04200A955D464FF6FE7B76
:1024FC008DF82C000AA813F0AFFC2DF083F9387876
:10250C004FF4805141F2883220E0012050714FF499
:10251C008060ADF8100004A81DF0EDF92DF072F9F3
:10252C00DFF84C034FF4805102680EE015F086F88A
:10253C00C848406AD0BB21F091FF37E002204FF42D
:10254C00805140F6B8328AF8020038782DF0F1FA52
:10255C002CE0CA480DF10F01006804AA1BF008FA20
:10256C0001460298C64D814213D29DF8200010B14D
:10257C00FD208DF820000420142204AB8B4629F09A
:10258C00A5FA0BEB4B004FF6FE7B012105EB80000F
:10259C004172B048002180F83B1003E00020AD49A7
:1025AC0081F83B000120012103F0C0FC30462BF0E8
:1025BC00BEF9CBE6A74991F83E0020B1886A002805
:1025CC00F4D08047F2E70020002102220023ADF86E
:1025DC00100002208DF8180004A82BF09BFB8CE750
:1025EC0084F400405FE09D4800780138012868D8E9
:1025FC009748017803295CD0012962D141780020E9
:10260C0023F064F95DE00120012123F05FF948E03B
:10261C000021322201708F4880F836108E48042138
:10262C0000782DF086FA3CE016F084FD84F08000F2
:10263C0039E00521017096F83810890736D596F8DF
:10264C003A1099BB052101600120B070002023F0E5
:10265C00F1F802202AF006FB23E0804800780138CC
:10266C0001280BD80020CDE9040004A818F0C6F806
:10267C0020B17948022100781FF0C2FE84F00200DC
:10268C0011E00421017096F83810C90709D096F8AA
:10269C003A10002942D02BF086F90420012103F0D6
:1026AC0045FC84F004000FB0BDE8F08F052000213C
:1026BC00F5E78178022904D101218170002023F0F3
:1026CC003DFF84F48050EEE784F40060EBE723F0E8
:1026DC0059FFD0B15F4F0546387801383870000685
:1026EC0016D05D4E4FF48041307825F0BFFE30B9E6
:1026FC0038692CF01DFD10B9287821F0FFF93078DD
:10270C00402143F698222DF014FA5248007810B963
:10271C000B202CF005FD84F04000C4E74F490978EC
:10272C0001390129BDD8032101600120B0700120BD
:10273C0023F080F801208DE7464EDFF81C91DFF87E
:10274C0020A100250DF11008002006F108070290C9
:10275C003F6857B3D7F804B09BF800000028F7D0B7
:10276C00F028F5D803210022434625F0BAFC0028B6
:10277C00EED006980188A1B94FF4407086F8365017
:10278C002DF090F899F800000AA92DF050F9DAF81C
:10279C00001086F836500029DAD09BF800008847E4
:1027AC00D6E7013901800120D1E7029999F80000A0
:1027BC00C9070BD04FF400514FF47A722DF0B9F9D0
:1027CC0008E014F05DFC84F480406CE74FF4005199
:1027DC0021F01EFD84F4005065E7F06840684078F5
:1027EC00C0070CD10E202CF09BFC08E040F2093005
:1027FC002DF058F8184800780AA92DF018F9F0684F
:10280C0040684078C1073FF44CAF17490968C1B123
:10281C00287821F073F910B10E202CF081FC0E4DAC
:10282C000C20402143F69822307028782DF081F945
:10283C0040F20A302DF036F828780AA92DF0F7F876
:10284C002FE780073FF52DAF0E202CF069FC28E711
:10285C00087A002038220020C27A00207827002035
:10286C00F028002039290020D8240020281A030041
:10287C00FC28002053290020A86A0020AC6200200C
:10288C00147500202DE9F04F9DB00446DFF840058B
:10289C00406818B18047002800F07982DFF834A531
:1028AC00DFF834B50D940DF138099AF80000411E8B
:1028BC00002C0B910BF1180418BF01219BF802801E
:1028CC00002700258BF80F109BF801100C91C0B25B
:1028DC0087421ED2B84517D0FEB200214A460423C7
:1028EC0030462CF03DFB0E9810F4403F40F00400B5
:1028FC00C0B218BF01357C2806D130460621F8221B
:10290C002BF036F9F82020709AF800000C340137BF
:10291C00DDE7E9B201380022884204D19BF80500BA
:10292C00002800F05182CDF82880DDF834804FF07B
:10293C000109B8F1000F404608BF1020059015ADF5
:10294C0000200190DDE90B740026380400F0F981B9
:10295C009BF80F0008B98BF80F90E0B200210EAA7B
:10296C0004232CF0FDFA0E98B8F1000F18D010F4D7
:10297C00403F18D04FF400509AF800100136013F38
:10298C00ABF810009BF80F0001388BF80F0059FAC8
:10299C0084F0B0FBF1F202FB11048BF80D40D4E78C
:1029AC000021049102E0CDE90B740496C0B20A9E9A
:1029BC004FF00009702804D00C987021C0B227F099
:1029CC00BFF9F4B200210EAA042320462CF0C8FA59
:1029DC009DF83800FE2803D02046FE2127F0B0F9E0
:1029EC0020460621FE222BF0C3F84FF400500C9F1A
:1029FC000BF116010022ABF814908BF80C60A14679
:102A0C00ABF81000FF208BF80E00F8B28BF80D70AD
:102A1C00400050FA87F001EB8000B0F806A0DFF818
:102A2C00B00302706000ABF812A050FA86F09BF86D
:102A3C000F6001EB8002FE20114601F8020F32F804
:102A4C00060F03910890E3480292047814A826F02C
:102A5C00C5FA56FA87F0CDF82490013890FBF4F1C2
:102A6C0001FB140000905FFA87FB0C97CB4500F03C
:102A7C006081ABEB0900B0FA80F0400907900020B0
:102A8C00069000204FF00109C00740F09D801FFA0E
:102A9C008AF4162C71D9CE480078002840F0718148
:102AAC00AAF1070758460FAAB9B21BF0C3FFBDF82D
:102ABC004A6006F11000A0420FD89DF846009628F7
:102ACC000BD1A7EB06099DF8452031465B461FFA52
:102ADC0089F840461FF064FC18B3AAF1010A4FF0C4
:102AEC0001095446A0B2172864D33628A4F116065F
:102AFC0058462A4688BF2026A41BB3B2A1B22CF09C
:102B0C002FFA3004EED015FA86F010F8010C962846
:102B1C0001D0013EF5E7DDF8348006EB040A002015
:102B2C00B2E79DF84700C10701D1800704D400200B
:102B3C00CA46DDF83480A5E7F01D83B2089813FA75
:102B4C0080F4B4F5005F01D90120F2E780B2A54909
:102B5C0018440A1A584641462CF002FA06980130DD
:102B6C00B4F5005F069004D101204FF40051089198
:102B7C00DEE70020CA460894DBE7069810B19649B8
:102B8C002CF073FB0098C0B2834500F0D8809149BB
:102B9C000C98097859FA80F0DDF82490B0FBF1F22A
:102BAC0002FB11078C4907EB470001EB8000B0F8E2
:102BBC001CA058E7894814990068426888489047D7
:102BCC000020DDF8348005E0069810B182492CF025
:102BDC004CFB002007900C980A907D480078002848
:102BEC0040F0CF8008981021C0F50052103883B205
:102BFC000998C1F2001226F00DFA754A11780843B3
:102C0C001499107075480068426875489047079889
:102C1C000A9A88B16F4800780BEB0001013991FBDF
:102C2C00F0F202FB10126C49D0B2400050FA82F064
:102C3C0001EB8000B0F81CA0DFF89CB10899029859
:102C4C00099C01238BF80E200180ABF81010BBF906
:102C5C0012209BF80D102046ABF814A028F076FC3F
:102C6C00BBF914209BF80E102046022328F06EFCB2
:102C7C00BBF81000049CB8F1000FC0F5005007D051
:102C8C000599DFF850A18842A4BF0121019101E010
:102C9C00DFF840A1059988424FF07C01B8BF78213C
:102CAC00099E304627F04CF811F066F907469BF860
:102CBC000F000621FC22C01B8BF80F0030462AF0B7
:102CCC0057FF0399FC209BF80E3008709BF80210FC
:102CDC0017FA84F00C9301449AF80000B1FBF0F25F
:102CEC0002FB10118BF802100A910131CAB2B2FB2F
:102CFC00F0F202FB10118BF8011003EB43010BEB0C
:102D0C008101898B102906D10C990131B1FBF0F2AC
:102D1C0002FB10100C900B98C01BB8F1000F0B901D
:102D2C003FF410AE019880F00100C0077FF40AAEAA
:102D3C0007E00120CB464FF0010907904DE70098C2
:102D4C004AE77C2027F016F80446FF2825D17E2080
:102D5C0027F010F80446FF281FD19BF8014004EB24
:102D6C0044000BEB8000807DFF2812D09AF8000005
:102D7C009BF802100144013991FBF0F202FB101494
:102D8C000BE01648149900684268154890470022D9
:102D9C001AE020467E2126F0D3FFE0B2FE218BF80C
:102DAC000340400050FA84F00BEB8000808BABF8B2
:102DBC0006009BF8020026F0C3FF00208BF80500EC
:102DCC00BBF81000C0F5005210B21DB0BDE8F08F7A
:102DDC0014240020BA7A002040720020D801001080
:102DEC0000400340002000112DE9F04F89B026F07F
:102DFC00C9FCDFF810158122DFF81485DFF814A563
:102E0C00DFF82045DFF814E50A70DFF8FC140860E1
:102E1C00DFF8F804FF2101700020DFF80415A8F892
:102E2C0000008AF80000DFF8F0040968007891F8D7
:102E3C0008B04FF6FE718EF8000059448AB2A168B2
:102E4C00D1F80031DB899A4200F267810422DFF865
:102E5C00DC54A8F80020DFF8D02412689668330EF2
:102E6C00CEF80C60C6F301592B706FF0FF0303EA28
:102E7C001627B3B2D1F8B86047EA1327AEF804703E
:102E8C0036781EB9B9F1020F00F04781B9F1030F82
:102E9C0000F043811B0A03F0070316B1002B00F06E
:102EAC003C81DFF88CC4042B9CF800C008BFBCF13B
:102EBC00000F00F032813EB1DFF878643678862E50
:102ECC0002D1022B40F02981BB0416D4BBB203F013
:102EDC000703022B08BFBCF1000F20D0DFF85414FD
:102EEC000978862909D10020764626F09FFCDFF868
:102EFC004004B64690F800C0307800284ED0BCF1A3
:102F0C00000F4BD1012800F0088103283FD0022884
:102F1C0044D1BEF80400400740F0FF803EE0D1F8F9
:102F2C00D40090F88300022800F08080274605200A
:102F3C00147BF246A946A8F800002CF051FA05467D
:102F4C00DFF8F003007886286DD1B868016C096849
:102F5C0011B9D0F84C05804760B20021002628F04A
:102F6C004FFFB9680A6C12685077086C0068867756
:102F7C00086C0068C47728462CF0A5FDBAF804103C
:102F8C0099F8000001F0100121F03AFB4EE0BEF878
:102F9C00040000F00700032840F0BF80BEF80400D6
:102FAC00010700F1BA80810402D4810500F1B580DB
:102FBC009EF80E20C2F38107012F00F0AE80960917
:102FCC00012E00F0AA80B9F1010F11D840F00201D6
:102FDC0001F0070103290BD117B93F2A40F29D805C
:102FEC0037B9A168D1F8AC100978002900F09580A8
:102FFC004FF6FB71B9F1020F0BEB010C19D1CF4B52
:10300C00D95D9B5D03EB01090023402AB7FA87F2D7
:10301C0038BF012352091A40430616D4002A08BFB0
:10302C0009F1020915E028462CF04DFD2AF06EFF3F
:10303C0075E0C14B402AD95D9B5D03EB010908D3B8
:10304C00420648BFA9F1020903E0002A18BF4FF05D
:10305C000209C0F300205FFA89F11FFA8CF30A1AF7
:10306C008EF801009A4258DC60440391B346401A32
:10307C00A168AEF806007430D1F8501280B28847BF
:10308C00A6490028886048D07421CDE901972CF01E
:10309C00E3FCA24F0020B870A548007820B938791D
:1030AC0000F020008AF8000078789AF80010DFF819
:1030BC0078C24FF000092E4600299A493DD00028CD
:1030CC004FF000003AD1B88800F00700032807D071
:1030DC00012832D18868D0F8D40090F8820060B30F
:1030EC00C8684069007818B12BF05CFCFE280DD044
:1030FC008C488068D0F84C02804738B98948806881
:10310C00D0F844028047002800F0F780834F01205C
:10311C00B870DFF814C22E4610E02BF057FA2CF0E2
:10312C005FF9814900240A6813681C7112680A60EF
:10313C002CF0C9FC09B0BDE8F08F0020BC6804F18C
:10314C00740184F830B06160A1657978BB88FA8825
:10315C000029A381029B228184F83A30337808BF7E
:10316C009946B8F8003097F80EB0019DA4F85C2091
:10317C00FF2284F84990A2735E1A797BCBF3011974
:10318C00A8F8006001F0780160F3820101EB0900FE
:10319C002074280600F0AE80DCF8000004AF039A1F
:1031AC0010FA86F000F1080138462CF091FD56FA21
:1031BC0085F0CBF38105A8F80000207C00F04008D6
:1031CC00CDB3B9F1020F06D1B8F1000F03D0B4F8AA
:1031DC00440004AF06E0BDF810000237A4F8440028
:1031EC00A4F84200564EF189884203D04FF6FF7185
:1031FC0088425ED1032D11D104F1320039462CF0F6
:10320C00DDFC464CF11CA068323029F04EFF4549DC
:10321C0000284ED094F80EB008370EE037F8020BA9
:10322C00B1898842608606D04FF6FF713B4C8842CC
:10323C003C493ED101E03B49384CBBF1400F20D317
:10324C00B9F1020F06D16DB9B8F1000F0AD13348AC
:10325C00806803E0A068017C490603D439880237F2
:10326C00A0F84210BBF1C00F06D32C4C3946A06815
:10327C0028302CF0A3FC03E0284C3888A168088582
:10328C0028498968A088D1F8AC201278B2B1B9F17C
:10329C00020F13D200F00700012802D003282FD10F
:1032AC001E4C6DB9264AA368D289B3F842309342BA
:1032BC0006D01EF074FA1DF0D1F930E700F00700CB
:1032CC00032806D0012815D1D1F8D40090F882003B
:1032DC0080B1A068D1F848128847104A50B9002034
:1032EC00D17B9070907BC1F3011100F07800084401
:1032FC00916808740BF01EFD11E7084FB87808E7C9
:10330C00064CDDE7D57A0020547A0020DA7A0020CA
:10331C00A87A0020D87A0020D77A002040260020F6
:10332C00947A00200C010020E0790020E87A00203B
:10333C00E77A0020DD7A0020A8190300A419030005
:10334C000C7900202DE9F04F97B0DFF80C8505467D
:10335C00DFF8086598F800000328307040F04981C8
:10336C00002088F8000030700DAC20462CF032FCA8
:10337C00204600212AF0E6FDDFF8E494B0603A2103
:10338C0048462CF069FB4FF0FF30A9F81400C9F83F
:10339C001000C9F80C0028F0EFF80020294622F0A4
:1033AC00D5FE06F11001F0602CF09FFBD6E905026A
:1033BC00DFF8B074B0FBF2F1C9B2032928BF0321C6
:1033CC00B2F5005F89F80010397040F00F81B0EB56
:1033DC00413FC0F00B81F068002800F007814FF4EA
:1033EC000050FF224FF000084FF0885BA9F8060050
:1033FC00FF2089F8032089F80580059000200890AB
:10340C0000200B90002009900020079000200690CF
:10341C0000200A9000200C90FF200290FF200490C6
:10342C00FF200390CCB2A04580F0E6805FFA88F6CE
:10343C00002116AA042330462BF092FDDFF82C4411
:10344C003046002115AAA0473046012114AAA047F6
:10345C003046022113AAA04716996FF06F0050FA5C
:10346C0081F2C8B20E2A06D8012303FA02F245F201
:10347C0001131A4203D1A0F1FE02022A04D242F235
:10348C008352B2EB914F1ED0304618F017FBDFF889
:10349C00CC130028087040F0CF803046002116AACB
:1034AC0004232BF05DFDDFF8C4433046002115AA40
:1034BC00A0473046012114AAA0473046022113AA86
:1034CC00A0471699C8B208EB48023D46CA4609EB1C
:1034DC008204C1F30142090AE1759DF8561004F10A
:1034EC001609FD28627689F80000217601D9102191
:1034FC0036E0BDF854104FF6FF72914230D10EA851
:10350C0025F06CFD304600214FF088524FF40053EB
:10351C004FF400572BF024FD6FF0030313FA87F7D9
:10352C00B8B250F80B104A1C01D10328F6D801226E
:10353C000126D3B2042B06D8CBB2FF2B18BF1646EC
:10354C000132090AF5E740F80B10C9480E990068DA
:10355C004268C848904757FA86F081B299F8000043
:10356C00A1839DF852107028A176BDF85010E1830C
:10357C009DF84E10E176BDF84C10218411D07828BE
:10358C00D14614D07C282F4616D07E281AD0FE287F
:10359C001FD0FF2823D10898CDF80C80013008905B
:1035AC0020E00A98D1462F4601300A901AE006987E
:1035BC002F460130069015E00798CDF810800130A9
:1035CC0007900FE00998013009901FFA88F00290DB
:1035DC0008E00B98CDF8148001300B9002E00C98A9
:1035EC0001300C90397808F101081BE7012088F8AC
:1035FC00000017B0BDE8F08F0C98984E00060BD168
:10360C000B98C0B2012807D80A98C0B2012803D879
:10361C000998C0B2012811D99348042200240270E1
:10362C00CAB2E0B2904210D218F048FA31780134A4
:10363C00084339783070F3E7884E1BE0089BD8B20A
:10364C00A04219D1884800220270002089F803009A
:10365C0089F80100481E7E2189F80200B9F81C0087
:10366C00A9F80600002026F06BFB99F80200FE2159
:10367C0026F066FB3078BCE70A98000624D00B983D
:10368C00059A000603D1039A180600F08480764848
:10369C0002210127D5B289F80220017017FA82F0B5
:1036AC00B0FBF4F101FB140089F80100284618F076
:1036BC0005FA30702846FE2126F042FB89F8057089
:1036CC000020FFF7DFF8D5E70B98059A000621D00C
:1036DC006548012189F80220017011FA82F0049AE0
:1036EC00B0FBF4F101FB140091B2FF2989F8010041
:1036FC001FD10299FF2919BF89F8031001EB410072
:10370C0089F8030000EB400009EB8000808BA9F8DE
:10371C000600AFE7DDE90620104300063FF47CAF5E
:10372C0027F0FEFEA04280F085804F4803210170F7
:10373C003EE0480089F8032010FA82F009EB800083
:10374C00818B1829A9F8061094D30739D0B20EAA88
:10375C0089B21BF06FF99DF843004007B0D5B9F85A
:10376C000610BDF84620002399F8030000930323AC
:10377C00891A0EAA073989B209F004FD00287FF4D2
:10378C0079AFBDF8441000293FF474AF9DF84800A0
:10379C0021F0CAFD6EE727F0C3FE0621A042324895
:1037AC0038BF03210329017002D0062952D061E7EA
:1037BC0027F0B6FE054689F80C0000EB400009EB3B
:1037CC008000408BA9F80D0010F0D6FB3978284406
:1037DC00B0FBF1F202FB110089F802000130C2B219
:1037EC00B2FBF1F202FB110089F801007C2026F0FB
:1037FC00C1FAFF2812D17E2026F0BCFAFF280DD189
:10380C00FF2026F0B7FAFF2808D1782026F0B2FA6C
:10381C00014699F80100FF2918BF0846C1B289F882
:10382C000300490051FA80F009EB8000808BA9F865
:10383C0006001AE70898000609D099F80200FE2144
:10384C003C46374626F07CFA2478039A40E7064833
:10385C0006210170FEE700BF34290020142400204B
:10386C0040720020BA7A0020CB7A002007F20200C6
:10387C00D8010010004003402DE9F0438DB00546FF
:10388C0080780224252800F27380DFE810F02600EF
:10389C009E00BE00D100E400F2000001630263024E
:1038AC0003011401630263026302630263022B01CE
:1038BC0030016302630239013D0146016302630278
:1038CC0063026302630263026302630263024F01D9
:1038DC005201550158015C016401DFF88C7400241D
:1038EC000E258DF804403878012807D801A81FF060
:1038FC0075F904469DF8040005EB4005EEB2304620
:10390C002CF0BBF9002800F0E2814FF000080546CE
:10391C00431C0021082280F8008001202BF082F942
:10392C002BF08EFD6872000A0221A872DFF83C04AD
:10393C00E972007828733878012800F2BD819DF86F
:10394C000420002A6A7300F0B98105F10E000021F1
:10395C002346914280F0B28113F8022B013100F81A
:10396C00022B13F8012C00F8012C9DF80420F0E731
:10397C00A0F140010D291FD8DFE811F00E00F50071
:10398C00EC01EC01EC01EC01EC01EC0103010E018A
:10399C0019012E01EC013D0101ACE91C0822201D8E
:1039AC002BF01EFB20461BF0E1FFBDF8060040216A
:1039BC00ADF828000AABD3E0E02840F0CB8100241E
:1039CC004720E0210022002373E120202CF055F940
:1039DC00002800F0BE812021FF2204462BF0DAFFE4
:1039EC00631C0120002108222BF01CF9054600283D
:1039FC0018BF012501AB8420002104222BF012F901
:103A0C00002800F06681023567E1E81C2CF031F9E2
:103A1C00ADF8040083202CF02FF8014601AA832076
:103A2C002BF082FE8DF828000AAB6720022190E073
:103A3C00E81C042128F03CF9019084202CF01CF89F
:103A4C00014601AA84202BF06FFE8DF828000AABEA
:103A5C00672003217DE061202CF00EF80146EA1C62
:103A6C0061202BF061FE8DF8040001AB672004216E
:103A7C006FE062202CF000F80146EA1C62202BF06B
:103A8C0053FE8DF8040001AB6720052161E0012095
:103A9C0006215AE02CF0BFF804462CF0BAF8B149D4
:103AAC00604301ACB0FBF1F120462CF045F86720E7
:103ABC00092104228EE0A94E2D79306840B901AC61
:103ACC0020462BF093FB012021460FF0B5FF306010
:103ADC00052D00F0E280002D00F0E280642125F03D
:103AEC0049F9DFE015F8032B6720102152E0E87844
:103AFC0027F000F88DF8040001AB6720112128E0B5
:103B0C0000246720142102E0002467201521ADF861
:103B1C000840019401AB0622CBE00024672016215B
:103B2C0009228DF80C40CDE90144C1E0F52020219B
:103B3C000BE0F520212108E0F520222105E04FF6CD
:103B4C00F570232109E0F52024218DF8040001AB48
:103B5C0067200122FBE0F5202521ADF8040001AB24
:103B6C0067200222F3E0E81C2CF083F8ADF8060085
:103B7C0001AC204619F0CCFB231D67204121082203
:103B8C00E5E015F8030F697825F0A0F82880672088
:103B9C00482102222B46DAE0E87828F069FA01ACD9
:103BAC00014620461FF0B2FB6720492111E0EC1CB6
:103BBC00204629F09EFE002818BF2046B5F80B10B1
:103BCC001BF052FB01AC014620461FF09FFB672007
:103BDC004A2124222346BAE001ACE91C08222046E3
:103BEC002BF0FEF920462AF069FF8DF828000AAB6D
:103BFC0067204B21ADE74FF0FF3095F80380691D2E
:103C0C000190ADF81000CDE90200FE208DF8060001
:103C1C00287903288DF8300003D10AA82BF0CEFFA9
:103C2C0004E008462CF025F8ADF82800AF7B002FF7
:103C3C0000F089807E0095F80D9030462CF01DF830
:103C4C00002800F0808005F10F01324604462BF06D
:103C5C00C7F900940AA940464A463B4609F0F4FCD1
:103C6C00002866D0837801784278057946798DF8FA
:103C7C0006308DF804108DF80520C3788DF8096096
:103C8C008DF808508DF8073001A98B1D811D4079E6
:103C9C00420018462BF0A4F952E0314901220A7077
:103CAC0024F0A3F9002467200A2101228DF8044096
:103CBC0001AB23F05BFD4DE085F80D806720002102
:103CCC0032462B4623F052FD28462BF0D4FF64BB22
:103CDC003FE0019800BAC4F809000AAB8320002128
:103CEC0002222AF09FFF08B1043503E0BDF828003A
:103CFC00A4F80D0004F10F036120002101222AF029
:103D0C0091FF002804F1100318BF08356220002130
:103D1C0010222AF087FF0028234618BF1035672091
:103D2C0001212022257023F021FD20462BF0A3FF3A
:103D3C000FE04FF6FF70ADF808006FF48030019083
:103D4C0020462BF098FF01AB67204D210E2223F06B
:103D5C000DFD002420460DB0BDE8F0832C7A002028
:103D6C003C29002040420F007827002030280020FA
:103D7C002DE9F84305460C46480413D4A00024D47E
:103D8C00A0075CD460057ED4200500F106812007D5
:103D9C0000F13B81600040F1F6801DF0C3FE24F081
:103DAC008044F0E02BF01CFBDFF81C140F6D3FB1CE
:103DBC00D7E90A1202F0E04201F00A01891849D051
:103DCC002BF081FE24F48044DDE0BB48DFF8FC736B
:103DDC00016841F080010160B878012804D1042009
:103DEC0026F030F80020B8702BF0FAFA06460420C2
:103DFC002BF098FBDFF8D8130A68904219D12A7E71
:103E0C00BAB1FA68AAB1DFF8C003806C002800F0E0
:103E1C009780C16840F603020988914206D0C068B9
:103E2C0040F604010088884240F08A8005F11400B5
:103E3C0088E040F6C4120860C5E9042284E00CF066
:103E4C0079FCDFF88403006C002840F09D8024F09E
:103E5C00020498E0D7E90A65D7E90A12AA43B143EC
:103E6C00C7E90A122BF02FFEB8680028AAD056EA30
:103E7C000500A7D0D7F808C03869B7F9301032461A
:103E8C002B46E0479EE72BF0ABFA054628F024FEC4
:103E9C00002800F0B780CC48876B002F00F0B28070
:103EAC00DFF828830420CB49002288F81800C64884
:103EBC002AF056FC2BF037FEC7482BF0FEFDC74806
:103ECC000068006B8047C8F810000125042088F8B2
:103EDC00025026F03FFE386990F82810C8F804000C
:103EEC00490703D5436A04210022984701201FF09B
:103EFC00A5FCD8F80400457616F076FED8F8040038
:103F0C0081680B461A465B684BB11E88A6F6030601
:103F1C00072EF7D805FA06F616F0830FF2D0537B6E
:103F2C0003F0F003013353730023FD6853602D88B5
:103F3C00A5F60305012D00F28A80C8F810309FE029
:103F4C0005F1100022F07EFF30462BF0BCFD26F070
:103F5C0019FE78B12E6A28466FF4807100224FF05A
:103F6C000073B0479848806B10B11DF0DBFD01E089
:103F7C0044F00204EE692846002100224FF08063D1
:103F8C00B04724F0005434B1974821462830BDE89E
:103F9C00F8432BF088BEBDE8F8838C4EB07801282E
:103FAC0004D1042025F04EFF0020B07026F0EAFD6D
:103FBC0038B170686FF4807100224FF00073056A9D
:103FCC00A847306950B185480068006B804732695A
:103FDC007168801A000BC860002030617A4D8149ED
:103FEC00002228462AF0BCFB02203076286C20B137
:103FFC007D48022128302BF056FE1DF093FD24F451
:10400C000064C0E72BF08FFD41E02BF0E9F9054689
:10401C0028F062FDA0B1DFF8B48198F80000000729
:10402C000ED498F9000000280AD4684617F018F846
:10403C0008B1009820B1DFF8B49199F8610048B349
:10404C002BF071FD1DF06EFD24F008049BE7034678
:10405C0033F8385FA5B190F8445090F8456005F0FE
:10406C00F00580F8445006F0F005013580F8455015
:10407C0000255360C5634587507B00F0F0005073FA
:10408C0057480022C2610160012029F0E3F924F4B1
:10409C00806478E700260127602E0FD009EB06001C
:1040AC00817A31B18772407A07FA00F0C0B225F0FC
:1040BC00E3FE2036F0E700BFCC210840032088F84F
:1040CC00180045482BF0F9FC2BF02DFD444F3E4DCC
:1040DC000022786900207861F968F8602846444924
:1040EC002AF03EFB3D480068006B8047D8F80C1066
:1040FC00D8F82020411A02EB1130B0EB113F38BF39
:10410C004FF0FF3098F82410C8F8200021B1D8F8EF
:10411C000810B0EBC12F20D929F0ACF9B8B140F69A
:10412C000900414621F83C0F002048804A7B02F0F0
:10413C00F00201324A730A7B02F0F0020A73486003
:10414C00F8613960B8F83E0010F4406FFAD00020E6
:10415C00C8F82000012088F8240021F0AFFF254882
:10416C00002101600220002129F074F9022025F0C1
:10417C0069FE102015F0E8FF98F8010020B9D8F876
:10418C00040050302BF08BFD1B48807810B90D20AB
:10419C0015F0DAFF98F8250028B1002088F82500E2
:1041AC00052025F04FFE002088F818001348C8F8A9
:1041BC001C000220B5F85610B5F85420914208BFE7
:1041CC0007201CF063FE3DE730210020D01E0020AC
:1041DC0048280020C1CA0200F06F00208C0100109A
:1041EC0000100440B147010070200020206B00201B
:1041FC00951B020000000460E018030095410100CB
:10420C002DE9F04FAFB004460020ADF8280094F82B
:10421C002400012809D1DFF8300494F828108078A4
:10422C0031B1002800F0FA8102E0DFF81C0480783C
:10423C0048B9207D00F0FE00022804D12FB0BDE863
:10424C00F04F1CF0FBBEDFF800743878012806D163
:10425C00DFF8F8033979007E814240F0CE80DFF838
:10426C00F8534FF4FA60E06028682BF02FF818B17F
:10427C00E1680844E06007E0E16828682BF0E7FBA0
:10428C00DFF8D8032BF019FD94F825008DF86C009D
:10429C0048B1022809D11BA804F1180108220430E6
:1042AC002AF086FF01E0E06A1C900DF12B051BA89B
:1042BC000AAA29461BF0B8F90646D0B99DF8381061
:1042CC0094F8260001F0030181420DD105F10E0096
:1042DC0004F1340104222AF06BFFBDF828100220EF
:1042EC0041222B4620F0B2FA9DF86A0008B1DC4955
:1042FC000870B878B8B3012840F0908194F8380071
:10430C00E3280DD1B86818B18047002800F08681E9
:10431C00F86818B18047002800F0808194F83800C4
:10432C00E22804D194F82800002840F0778100207E
:10433C00002E18BF05460021282295F80D801EAED0
:10434C0030462AF05AFD01A8002103222AF055FD1F
:10435C0094F83800E32840F0C0809DF8041041F038
:10436C000802E320E9E0207D042800F257810121B6
:10437C0001FA00F010F0130F00F0508101A8002199
:10438C0024224FF000082AF038FD1EAF04F1180B60
:10439C0004F12C090026BD1C07F1060AB8F1040F24
:1043AC0045D85FFA88F0394626F0A9F906460D285B
:1043BC0020D00A2E00F08C8094F825009DF87810FF
:1043CC004140490701D0022614E048B948465146FD
:1043DC00042229F051FE002840F02F8194F825008A
:1043EC00022807D158462946082229F045FE002804
:1043FC0040F0178108F10108D0E794F83800E32861
:10440C0040F00C8192482BF056FC00283FF427AF6B
:10441C008F4C20462BF053FC8E48C82100682BF0A3
:10442C0016FB20462FB0BDE8F04F2BF046BC002EFB
:10443C004ED10020616B9DF885509DF878209DF839
:10444C007930069194F83810C5F382068DF81C105B
:10445C0094F82910002918BF083606F150011826C7
:10446C0006EAD202104403F0010240EA4210BDF801
:10447C00042040EA8510C0B2104340EA0120ADF898
:10448C00040094F8400058B18DF81D002BF06AFC24
:10449C00089028B194F8402004F141012AF088FEDC
:1044AC006A48C08AADF8240094F9150010F16D0F1C
:1044BC000146D8BF6FF06C012AF0D0FEC8BF3B217B
:1044CC00A07D002818BF012041EAC0108DF82600FD
:1044DC00E17D01A802F0DCFAA0E094F8251011F0BF
:1044EC00070119D0022920D106F1080004F11801A6
:1044FC0008222AF05DFE94F8301094F8380002225D
:10450C008DF888109DF80410E32862F302018DF8F1
:10451C0004103FF424AF0AE0E16A1F919DF80410E7
:10452C0021F007018DF8041001E09DF8041094F8B7
:10453C00292021F0080141EAC2029DF8051002234E
:10454C0002F00F0263F3051194F82630022B16D3F8
:10455C0094F82760012E17D0D6B94FEA980606F0CA
:10456C000706042E6DD8012707FA06F616F0160F6B
:10457C0067D0C8F3820621F01701314408E0002B04
:10458C0008BF21F0170103E041F0040121F01301F1
:10459C0063F30512237D032B03D1E36B41F0080178
:1045AC0027938DF89000606B239001F00700C9B23F
:1045BC0042EA8010C1F3C00240EA4220C1F300126B
:1045CC00C1F3401140EA822040EAC120ADF87800E6
:1045DC0094F8400020B18DF8910004F14100259031
:1045EC001A482B46C08AADF8980094F9150010F1C2
:1045FC006D0F0146D8BF6FF06C012AF02FFEC8BFBB
:10460C003B21A07D002818BF012041EAC010E17DAC
:10461C008DF89A001EA81BAA0BF044FB2FB0BDE826
:10462C00F08F01A85946082208302AF0C1FD94F8F1
:10463C0030008DF814000220FCE6D9F8000002903E
:10464C00F7E601F0E801A3E78C250020A86A00201A
:10465C00007100203C7A0020387A0020BC700020C9
:10466C00552700202DE9F04186B00C46080403D4F0
:10467C0060043ED40020D6E1DFF8B07338781EF029
:10468C0065FB002800F0CD8105460078A0F1D00133
:10469C00062933D9A0F131010629C0F0BF81A0F160
:1046AC002301022948D31A2868D0FE287DD0FD2882
:1046BC0000F09780272840F0B080082028F06AF995
:1046CC00A8B10646012005F10108307098F80000E9
:1046DC0003302BF0D2FA706048B198F80010CA1C65
:1046EC0041462AF07DFC787831461FF07BF828464D
:1046FC0020E125F059FB84F4804094E101208840AE
:10470C0010F0750F40F08A81012940F09180C84E5D
:10471C006878B178814200F0818106F8020FC54BB0
:10472C004FF000700021324626F0FCFC16F8010C0C
:10473C00C14981F8680071E10C2028F02BF90028A0
:10474C0000F06C8106460020C6E90000B060052030
:10475C003070E878A978317170712BF08EFA0028DE
:10476C00B06000F05B81EA7869682AF039FC307936
:10477C0029F0CCFE002840F0D4804FE1302028F006
:10478C0009F9002800F04A81302106462BF064F923
:10479C009220A91D3070A87B0328307140F08880CE
:1047AC00B01D08222AF01CFC84E0162028F0F2F838
:1047BC00002800F033810646023014212BF04CF90E
:1047CC00932030802A796878A978EB88012A338184
:1047DC003071317418BF0222B271E978A878317542
:1047EC0015E00A2028F0D6F8002800F017810646BC
:1047FC000020C6F80600C6F8020091203080A87888
:10480C006978EA7870713171B271A988318129F0B7
:10481C007DFE002840F085808BE02846FBF708FCE5
:10482C00002800F0FB80A87829461EF0DBFFF8E09A
:10483C00E889A0F50041062910D8DFE801F0047ED4
:10484C0088EF96AEB70028461DF03AFE002800F01F
:10485C00E5806988834B06460120AFE048F23601BB
:10486C00884200F0B28048F22001884200F0B58006
:10487C0048F22101884200F0B88048F222018842B7
:10488C0000F0BB8048F23401884200F0BE8013284F
:10489C0040F0C48000206E460290CDE9000028460E
:1048AC00314629F00DFA69886F4B4FF080705AE051
:1048BC000888F080D5F80200C6F81200E88AA6F83D
:1048CC001B00E87BB073288A3082688AF082287DCE
:1048DC003076687D002818BF01207076687E00282D
:1048EC0018BF0120B076287E7077E869306295F8A1
:1048FC00200086F82400A88DF08495F82E0086F808
:10490C002800A88C70852BF0B8F90028F06200F014
:10491C008580AA8CA96A2AF063FB287D29F0F6FD14
:10492C0020B1007931461EF05DFF77E0F06A2BF084
:10493C00A2F9304628F0FBFF70E028461DF0C0FDC0
:10494C0000286BD06988464B0646022036E06E463E
:10495C00122130462BF080F8284631461AF056FBCF
:10496C0069883E4B0420324656E06E46182130468C
:10497C002BF072F82846314629F044FD6988364BF5
:10498C001020324626F0CEFB039818B12BF073F9A9
:10499C00002003900598A8B940E0284627F0C7F9F5
:1049AC00E0B369882B4B0646202007E0284627F009
:1049BC00BEF998B36988264B06464020324626F04D
:1049CC00B1FB30462BF057F928E0A86969881B4BDE
:1049DC002AF03BFF4FF480001EE0A86969881A4B4F
:1049EC002AF033FF4FF4804016E0A8696988174B12
:1049FC002AF02BFF4FF400500EE0A8696988114B88
:104A0C002AF023FF4FF4004006E0A86969880C4B9C
:104A1C002AF01BFF4FF4801026F084FB284628F068
:104A2C0086FF84F4004006B0BDE8F0811629002012
:104A3C00EC270020FBD00200A86A002009BF02006E
:104A4C00DFBE020033BF0200B5BE02008BBE020007
:104A5C00CD33020073330200F5C20100158F010043
:104A6C002D2802008D2802005D5F02002DE9FF4712
:104A7C00847802261D2C00F2A5810546DFE814F08F
:104A8C00D8005300E0005A006E00A201A201780089
:104A9C001E00450083009400A000A201A800E500C0
:104AAC00A201A201ED0000010E01A201A201A201CE
:104ABC00A201A201A201A2011E0045002BF024F8C4
:104ACC00064662380227092807D8012101FA00F0AE
:104ADC0040F28131084240F03081A6F13A000228C0
:104AEC00C0F02B81242E40F0278101AB3520002112
:104AFC00042200242AF096F8002800F07F8101207F
:104B0C0002228DF80C0000207FE100208DF80C00B3
:104B1C002AF0FAFF0646092C61D195F8059095F814
:104B2C000680072064E041200121ADF8040001ABB0
:104B3C006120B1E00120EC1C8DF80400E22021463C
:104B4C0022F04CFA30B90120082122462AF0ECFD63
:104B5C008DF8040001AB612003212FE101ACE220B0
:104B6C00214626F0E5FD612004210822234626E19A
:104B7C002AF0CAFF0446681D2BF07BF8242C40F069
:104B8C009D80002015E1E878032800F2AD80281DF7
:104B9C002BF06FF80246E878A04931F81010A048C5
:104BAC0000782AF0C6FFA0E0E878032800F2A38082
:104BBC009A4931F810109A4800781FF029FB9BE0B5
:104BCC002AF084FEADF8040001AB61200C2163E0F7
:104BDC00002661200E2101228DF80460C4E0681DBE
:104BEC002BF047F88146E81D2BF043F8804609204E
:104BFC0001AF242E18BF2F1809EB080508BF352666
:104C0C0030462AF039FF854201D9022080E0B9F103
:104C1C00000F04D1304641463A4625F023FD30467C
:104C2C0041463A462AF080FD00286BD00A206FE0FE
:104C3C00E878012802D0002840F0C3802AF038FA26
:104C4C00784B612002210A22B9E0E878291D01285D
:104C5C0064D0002869D1E02064E02AF055FF0446B6
:104C6C00681D2BF006F8242C0FBF002001462046AF
:104C7C002AF09AFE8DF8040001AB612012219DE010
:104C8C002AF042FF24280CBF00202AF0F5FEADF8D4
:104C9C00040001AB61201321022290E0E8788DF82A
:104CAC0004005D488068D0F8302401A9E0209047CA
:104CBC008DF80C0003AB612014217FE005F1080690
:104CCC00ED790146A84270D9204600222AF026FD33
:104CDC0009288DF804006ED1002D6CD02046294691
:104CEC0032462AF021FD66E002208DF8040001AB6B
:104CFC0061200A2162E002208DF8040001AB6120E2
:104D0C000B215BE0012E05D1E220394622F066F939
:104D1C008DF80C0003AB612021464FE00878022887
:104D2C0056D2522022F05AF900E002208DF80400ED
:104D3C0001AB61200F2141E00027681D082C01D137
:104D4C00057802E02AF095FF054630462AF094FEDD
:104D5C00A84298BF02275FB100268DF8047061202D
:104D6C00214602228DF8056001AB22F0FFFC29E000
:104D7C00401B87B2F72F28BFF727B81C5FFA80F8C3
:104D8C0040462AF07AFF08B300F1020A8146394600
:104D9C0050462AF061FE304629463A46534629F0E1
:104DAC0041FF0546C8B10A2722E0204632462AF0C8
:104DBC00B5FC8DF8040001AB61200721012222F023
:104DCC00D5FC0026304604B0BDE8F0871027C3E7B9
:104DDC0001A9522026F0ACFCAAE789F80170002743
:104DEC006120214642464B4689F8007022F0BEFCF9
:104DFC0048462AF040FF002DAED1E2E701988DF82D
:104E0C000C400422ADF80E0002208DF80D0003AB0F
:104E1C0061200821D3E700BF0C010020B419030066
:104E2C00B97A00203E1903002DE9FE4F884608048C
:104E3C0026D45FEAC87004BF0020BDE8FE8FE548A9
:104E4C0005682AF0E8FE04462AF0E3FE60434FF4BE
:104E5C007A714FF6FF72B0FBF1F14FF6FF70002D37
:104E6C0000F01A812B886C88CB1A9BB29C4240F2C2
:104E7C001C81E31A94B2A342B8BF1A46ED68EEE760
:104E8C00DFF840A3CDF804809AF800001DF05EFF17
:104E9C00002800F0FC8006460078012840F0EC80E9
:104EAC00DAF8041096F83390D6F814B096F813800C
:104EBC0021B148468847002840F0DE80718896F87A
:104ECC003100022227F098F80546002842D0287AB3
:104EDC00297CA0F10108FF2900F0BB80707F4F46B0
:104EEC00C00718BF0027E97C287D0144B94204D8CB
:104EFC00E974FF2101FA00F06874A969A87C96F89E
:104F0C003020896A10FB0710F16A2AF069F8287DB5
:104F1C00697CB7FBF0F202FB107001228240D2B226
:104F2C000A436A74C8457CD196F83010AB7C13FBED
:104F3C000713A9698B844FF4FF7303FA00F0C0B216
:104F4C001043FF2868746CD1287C1EF04BFCFF20AA
:104F5C0028747FE0707FC00700F08E80B07F2AF04D
:104F6C00CFF8002800F0888004461C202AF085FE2B
:104F7C00002800F081801C2105462AF06DFDB07FD1
:104F8C0002A928F04EF89DF8090002212875284640
:104F9C0028F0E0F8708896F8312096F8301096F8E2
:104FAC003330A880287DEA71FF2202FA00F0687481
:104FBC0060680078A9742874302013FB010080B25B
:104FCC0027F0E8FC0028A8615DD004461A20B11C2B
:104FDC002060708CA080A01D28F0D4FEF27F04F11C
:104FEC003000B17F96F82830C4F81CB084F81980D2
:104FFC00A062307CE273744A217563750121A0753F
:10500C00928C2282F28EA285F28C6282B6F811000A
:10501C00A4F817009AF8000085F808901DF0F0F934
:10502C0055E72AF0F8FD04462AF0F3FD60434FF4EF
:10503C007A71B0FBF1F065492880634809780079F2
:10504C004843642148436249097800FB01006880A9
:10505C0000E04F46E87C297D6A7C01440139B94265
:10506C0018BFFF2A0CD186F83300708806F11C019A
:10507C0086F834201AF004FC304628F058FC03E77C
:10508C00C845F9D1EFE7284628F074F8F4E7019801
:10509C0080F40040BDE8FE8F92B282424BD049486A
:1050AC00012100782AF045FD45E0A879022806D1B7
:1050BC00287CFF2837D0A86928F039FC33E02AF087
:1050CC00AAFD04462AF0A5FD60434FF47A71B0FBAB
:1050DC00F1F03F49288095F83800097888421BD2B6
:1050EC0095F83620FF2A06D195F83720013085F83F
:1050FC00380085F8362095F8351095F8394082F04F
:10510C00FF0300200126C7B2A7421DD206FA07F7FB
:10511C001F4214D10130F6E7EA8BA87E95F82A10CD
:10512C00E92323F093FA284628F024F82548012196
:10513C0000781DF065F988F00100BDE8FE8FFBB228
:10514C0001441A4385F83620AB8F95F83440C8B229
:10515C0004FB10339EB2A64203D2FF2285F8362000
:10516C0002E0FF2A08D12346184A174E12783679E6
:10517C0072436426724302E095F83A2023466A8013
:10518C002A8D0E0606D022F0200244432A852A6C72
:10519C00224404E042F020012A6C2985297A85F802
:1051AC002E10E9796A6285F82D10D9B26984054907
:1051BC00496811B188470028B8D105F1100005F0F5
:1051CC00BBFDB3E79C270020A86A00205E290020C5
:1051DC00642900209C5600202DE9F04FC3B00DF13E
:1051EC00450B88460146914658462AF0E1FC08F0EA
:1051FC00080500260DF1040A042E39D8F4B25146E4
:10520C00204625F07CFA0D2803D007460A2801D148
:10521C007DE17DBB204659461DF0DAFE01360028A3
:10522C00EAD0002D51D10BF137010DF1860002228D
:10523C0029F0BEFFBDF886009DF83A10ADF8C80005
:10524C00C80700F083800AF1370732A902223846DA
:10525C0028F012FF9DF83A10012877D101F0FE00DA
:10526C00FF2104228DF83A00384629F0C6FD6FE084
:10527C0001274CE10220214641225B461FF0E6FA51
:10528C000746B4480BF10B012AF03AF968B90BF157
:10529C00370120462AF02FFC38B90BF13B01204690
:1052AC002AF029FC002800F032810C202AF05AFD4B
:1052BC00002800F019812AF0FAFAB9F1000F18BF92
:1052CC004FF0010984F80A9005E19DF8450040066D
:1052DC0061D49DF84600C00700F0A48032AF0DF1F8
:1052EC00450138462AF064FC0DF1860901A94846AF
:1052FC002AF05EFC9DF8BC00810700F1288110F0BB
:10530C0001054FF03B0007F1370108BF372004229D
:10531C00484429F04DFF0220002D08BF01209DF8C4
:10532C00BC10084349468DF8BC0001A82AF040FC8B
:10533C0008F060009DF805104038B0FA80F001F0DC
:10534C00FE01400908448DF805006BE0880733D452
:10535C004FF0FF300BF1220629F03AFE3846314669
:10536C0028F08AFE0AF12C05E0B3384629460A22B9
:10537C0029F01EFF32AE28460A22314629F018FFCA
:10538C00304639462AF0C9FB002800F0B98001A844
:10539C0029F00FFDB4E04FF0FF3029F019FE32A8D0
:1053AC00394628F069FE0BF1220930B338464946DC
:1053BC000A2229F0FDFE27E00AF13B0632A902225F
:1053CC00304628F059FE9DF83A10012840F08E80A6
:1053DC0001F0FD00FF2104228DF83A00304629F03F
:1053EC000CFD8DE0284631462AF097FB002800F092
:1053FC00928032A928460A2280E0384649462AF093
:10540C008CFB002800F0958008F060019DF80400EA
:10541C006039B1FA81F100F0BF00490940EA81100E
:10542C008DF804009DF84600810608D50AF10B00A2
:10543C000BF10B01022229F0BBFE9DF84600400641
:10544C0013D59DF805000BF10D01012240F0400031
:10545C008DF805000AF10D0029F0AAFE0AF11200E0
:10546C000BF11201102229F0A3FE9DF845008006D5
:10547C0005D59DF8040040F020008DF804000AF1D9
:10548C000E000BF10E01042229F092FEBDF88400EF
:10549C00214641225346ADF8430002201FF0D6F9B5
:1054AC0007462C480AF10B012AF02AF858B90AF1E0
:1054BC00370120462AF01FFB28B90AF13B01204690
:1054CC002AF019FB18B30C202AF04CFC60B12AF01E
:1054DC00EEF90120A0722048214600782AF050FAFB
:1054EC0020462AF0D1FA12E0102710E041F001001A
:1054FC00314604228DF83A000AF1370029F058FEA3
:10550C0001AB0220214641221FF0A0F90746384684
:10551C0043B0BDE8F08F32A839462AF0FEFA0128D4
:10552C00EED132A829462AF0F8FA01283FF42FAF21
:10553C00E6E70AF12C0732A80A22394628F09CFD2E
:10554C0000287FF433AF384649462AF0E6FA0C2798
:10555C00DDE700BFA86A0020CC7A00202DE9F04FCF
:10556C008FB00C46080430D4A00448D4A00652D402
:10557C00E00600F10D81600600F11C81200600F1AF
:10558C001E81E00500F12081200500F12281E0045C
:10559C0000F13581600400F13C81A00700F15081DD
:1055AC00A00500F15E81200700F16881600500F123
:1055BC006B81E0034FF0000540F1F8801FF03CFADE
:1055CC00BA48C57084F48035F0E0B64800781DF018
:1055DC00BDFB88B10178B44A05460020582808D094
:1055EC00135C08308B42F9D1104450F8041C284647
:1055FC008847284628F09BF984F40045D6E021F032
:10560C0075F828B10546FCF711FA284628F08FF9F1
:10561C0084F40055CAE0A34F2021387822F026FFED
:10562C00DFF888824FF00109D8F80810084317D02A
:10563C002AF0F1FA05462AF0ECFA68434FF47A7135
:10564C00B0FBF1F0D8F80810401A4FEA500938BFF7
:10565C006FF000490025002964D0B9F1000F61D02A
:10566C0000200421002226F00BFF06464FF0060A0C
:10567C004FF0FF0B4FF6FF7802AD002E4ED03046A8
:10568C0004210022374626F0FBFE06463889B0EB93
:10569C00090038BF002038810004EED1B87BD0B3AC
:1056AC0001280AD17889400707D4386887F80DA0FB
:1056BC00B721407B20F0D2FFDFE739682A468DF80E
:1056CC0006B0ADF80480086AC97F0FF0E1FA012832
:1056DC001BD1B87BB97A8DF838000907788A40F06D
:1056EC008002ADF8362006D540F4C070ADF8360017
:1056FC00387B8DF83A00786910B1007BADF8180052
:10570C00284601A9002203F047FC387B87F80DA03E
:10571C0019F050F8B1E701207873AEE7DFF88C810F
:10572C00604F4D4627F036F800200121002226F06C
:10573C00A7FE18B1387820211CF062FE002004214D
:10574C000022002626F09CFE60B30689042100226C
:10575C0026F096FE28B1B1B20689B14238BF0E468A
:10576C00F4E7A8B2B1B2814217D9D6FA55F020218C
:10577C0080B2420038782AF0DCF92AF04CFA05465F
:10578C002AF047FA68434FF47A71B0FBF1F609E05E
:10579C000AF034FB84F0100508E0387820211CF066
:1057AC002FFE0026C8F8086084F0200528460FB0AC
:1057BC00BDE8F08F0EF06CFD84F04005F6E728F0A4
:1057CC0055FD84F08005F1E726F0CAFC84F4807561
:1057DC00ECE71EF071FD3748007801280CD13448F5
:1057EC00007848B14FF47A7100FB01F22D484FF468
:1057FC00006100782AF09AF984F40065D6E72B480A
:10580C00017819B1002101701EF056FD84F4805509
:10581C00CCE72A48006880B12749097801290CD1C6
:10582C0080472748006800B180471E484FF48041EC
:10583C004FF47A7200782AF079F984F48045B5E750
:10584C002048007890B102AD28462AF0C0F829F023
:10585C00E5FD1D490B781D490A7829461DF06AFFA4
:10586C0009E018F09DFB84F400759FE71848418B04
:10587C0001202AF0F8F984F0020597E70B48012182
:10588C0084F00805817091E712480078022808BF5F
:10589C001AF06BF80E480121808C2AF0D6F984F4AA
:1058AC00806583E7BB7A00201811030030270020A5
:1058BC00692900206A29002068290020482400203A
:1058CC0054240020412900206D2900206E2900203D
:1058DC00A86A00207827002098B0BE4E01214FF016
:1058EC000109306029F074FF09200DF10B0401212E
:1058FC008DF80B001020224629F010FF10200021FB
:10590C00012223464FF0000829F08CF99DF90B0079
:10591C0028F01CFA03AF38462AF050F8AE4D00219F
:10592C003A468DF80C8005F11404204628F050FB03
:10593C006C6029F03BFF05F1080A2146524624F021
:10594C004DFA2870A548A0F80880A0F8008006AF92
:10595C00384629F095FA0020394610F0EFFAE86045
:10596C000120394610F0EAFA28614068007828F0E6
:10597C00FBFF10B9287829F0F4FF994FE8683946F5
:10598C002AF095F8286939462AF091F8082006F88B
:10599C00040F94483146B060287818F0C7FB06F124
:1059AC001001082020F07AFF26F046FE8E488F4A20
:1059BC000178082023F0E2FF8D4908201EF01CFF1F
:1059CC0028781FF0F5FF8B488B498DF82A908DF8BD
:1059DC0024908DF81C900DF11809089006908748BA
:1059EC00CDF826104946CDF82B00287829F0BEFFBB
:1059FC0006AF442138462AF02FF840F20110394600
:105A0C00ADF85600287829F093FF7D487D4A01783F
:105A1C00082024F00DFE28784FF480614FF40072BA
:105A2C004FF48073CDE900215146224617F058FB04
:105A3C008DF81880287806AE314629F09CFF06F1C7
:105A4C00060A724E4FF00A0B20464FF0FF3110F051
:105A5C00CBFB0028F8D028781DF078F9002876D0F8
:105A6C0007460078922815D0E5282BD0CA282DD0CF
:105A7C00CB2832D0E22834D0E32836D0C5285FD1E9
:105A8C00387900285CD1287849468DF818B029F06F
:105A9C0072FF55E0D7F81200B97BCDF81A003879AF
:105AAC008DF82710398AADF82810411E8DF8260084
:105ABC00022903D303281CD00F281FD1F888ADF876
:105ACC001E001BE0381D29F0CFFF39E0287849462D
