:10000000003C02201D9E020075BC020075BC02006F
:1000100075BC020075BC020075BC020075BC020014
:1000200075BC020075BC020075BC020075BC020004
:0C00300075BC020075BC0200352A0100FE
:10003C002DE9F047A8B004460078A0F1A0015C2996
:10004C0000F26780DFE811F0BC00DF005D005D00AE
:10005C00F70024015F015D0084018D01A901E60117
:10006C0015023C024F025B02690274027D02860299
:10007C008C0295029B02C902E002EB02F702070315
:10008C001203B900B900B9001C032603B900B9006A
:10009C003103B900B900B900B900B900B900B90011
:1000AC00B9003C034203B900B900B900B900B9006A
:1000BC00B900B900B9004B035403B900B900B90039
:1000CC00B900B900B900B900B9005D03B900B900B5
:1000DC006403B9008603B900B900B900B9009003F4
:1000EC00B900B900B900B900B900B900B900B9003C
:1000FC00B900B900B900B900B9009903A7035D00B4
:10010C00B90060681221002808BF0221617001F05B
:10011C0083BA4D2800F25180A678DFE810F04C032A
:10012C004E005C03660346044E004E006F048004D0
:10013C00CE044E004E004E004E004E004E00D70432
:10014C00E10409054E002D05350643064E004E060A
:10015C005D064E00680682064E00AB06CF06D20640
:10016C00DF0603074E004E004E004E004E004D07BA
:10017C004E005B076C077D074E004E004E004E0094
:10018C004E004E004E004E004E004E004E004E00F3
:10019C004E009607B107CB074E004E004E004E00A6
:1001AC00E5074E0047084E0058084E004E004E0022
:1001BC004E0078088F089C08A608122001F02BBA74
:1001CC006068002801F02682A168002901F02282D3
:1001DC0001783A20002908BF3B200BAD00211122E9
:1001EC002B462EF0A5F80028607041F01582D4E95A
:1001FC0001109DF82C204270097800F8021B691C34
:10020C00102200F034BE6168002901F003820878E6
:10021C004A783A258B7800288DF82C2008BF3B258E
:10022C000BA80130002B01F03680033110222EF088
:10023C005DFA01F032B86168002901F0EB81A06829
:10024C00002801F0E78111F8012B00F8012B2EF0AA
:10025C00D9FF60680178002901F0AD81DFF8DC0E70
:10026C000BAE002506F108080788AF4201F0D081DB
:10027C00A9B204200022142300962AF0B5FF607066
:10028C0020B92EF0AFFC002801F023820135ECE7F9
:10029C006068002801F0BE810178002901F003801C
:1002AC00DFF8980E0DF12C0A00250DF11C08002624
:1002BC000AF10809CDE90955CDE907550788B74278
:1002CC0001F0D781B1B2042000221423CDF800A094
:1002DC002AF08AFF6070A0B9606849460822043091
:1002EC002CF0E8FF002801F0C28155B96068414646
:1002FC00082204302CF0DEFF00284FF0000508BF68
:10030C0035460136DBE76068002801F0838101780F
:10031C00002900F0E287DFF8240E0DF12C090027EC
:10032C0009F108080588BD4201F07681BEB20420AF
:10033C0000221423CDF8009031462AF055FF60704E
:10034C0020B92EF04FFC002801F0A5810137EAE717
:10035C00DFF8EC0D4FF48071007821F013FD01F003
:10036C0057B96068002801F05581418800882AF04F
:10037C001DFA68B9606801224188008825F004F9EB
:10038C006068418800882AF011FA002801F09A81EF
:10039C0061680979417001F03BB96168002900F08E
:1003AC006F87DFF8A05D087885F8260095F8722035
:1003BC004888E882087A2876488968834868A86261
:1003CC008889A884887B85F83800C87B6871087C8C
:1003DC00E8704869286388696863087F824202D0A4
:1003EC0026F0B6F8616805F139001D312EF055FF85
:1003FC0095F82600082840F04B87DFF8482D21207F
:10040C0074212EF009FD00200221002527F06CFF3D
:10041C0000F03FBF6068002800F03487007826F0B9
:10042C0097F86168DFF81C5D287E4978884212D005
:10043C0029760BA9E1202AF01FFD606841789DF810
:10044C002C00884207D08DF82C100BA9E12026F047
:10045C0039FA60684078012101FA00F0A8622CF0AA
:10046C00EDFB00260120A5F8706020F0DFFA00F00B
:10047C000ABF6068002801F0CD8001884088ADF883
:10048C001C00ADF82C100BA9532026F01BFA07A961
:10049C00502026F017FA0DF11B01E1202AF0ECFC9C
:1004AC0060689DF81B100079814201F0B1808DF8D5
:1004BC001B000DF11B01E12026F004FA01F0A8B895
:1004CC006168002901F0A680DFF87C0C2EF09AFE02
:1004DC006068DFF8782C0189807A1180DFF8701C55
:1004EC00087001F095B86068002801F09380002135
:1004FC0061708178008822F0C3FF01F08DB8A0688C
:10050C00002801F087800020607025F0D1FC0028C5
:10051C0000F0E786A16800F08EBE6068002801F04C
:10052C0079800021617000780AF0EAFE01F074B85D
:10053C006068002801F06E80007826F007FA01F060
:10054C006AB8A068002801F06580002060702EF069
:10055C00C1FBB2E00020607028F0B8FB01F05CB881
:10056C00A068002801F05680002060702EF0A2FCDC
:10057C00A3E00020607028F0E1FB01F04DB860684A
:10058C00002801F0478000216170017D19B1C17C08
:10059C00DFF8C02B5174817D19B1417DDFF8B42B8C
:1005AC009174017C19B1C189DFF8A82B1181017BF1
:1005BC0019B18168DFF89C2B5160817C19B1417CA9
:1005CC00DFF8902B51730179002901F02580006828
:1005DC00DFF8801B086001F01FB8A068002801F04C
:1005EC001980DFF8701BD1F80D20C0F80D2091E8B0
:1005FC002C0085600D7BC0E900230573B1F8111048
:10060C00A0F8111001F004B8A068002801F00280D5
:10061C0000216170411C26F077F900F0FDBF606885
:10062C00002800F0F7870021617024F001FDA1681B
:10063C00088000F0F1BF6568002D00F0EB87EB88B7
:10064C00AA88698828782E890A35CDE9006518F0C2
:10065C00F9F800F0E0BF6068002800F0DB878288C2
:10066C004188007806F06AFF00F0D5BF606800286A
:10067C0000F0D08700F1120127F00AF900F0CBBF8F
:10068C006068002800F0C6874168007824F08EFD71
:10069C0000F0C1BF6068002800F0BC8700216170C9
:1006AC00007829F0C3F800F0B7BFA068002800F06C
:1006BC00B187002060702CF031FBA16800F0BCBD4C
:1006CC000020607023F060FB00F0A6BF606800287B
:1006DC0000F0A087006828F015FB00F09CBF606854
:1006EC00002800F09787006805F0F2FD00F093BF3A
:1006FC006068002800F08E8700680FF04FFC00F057
:10070C008ABF0020DFF8501A6070E07800F094BDCA
:10071C006168002900F080870820ADF82C0008885B
:10072C00ADF82E00081D0BAC90E86800221D68C2C5
:10073C00087CD1E905231C31CDE910238DF83C0050
:10074C0004F11C0010222DF0D1FF20462AF08EFD62
:10075C0000F062BF6068002800F05E87817A008834
:10076C0026F038FC00F058BF60680078002800F0D4
:10077C008C8528F03FF900F04FBF6068002800F02E
:10078C004987DFF8D819097801293FF616AD2DF005
:10079C001BFD00F040BF6068002800F03B87DFF8CD
:1007AC00BC19097801293FF608AD4168008822F090
:1007BC00E3FD00F030BF6068002800F02B87407824
:1007CC0018B1FF20032127F08FFD2EF07CFCE848A8
:1007DC0001210160FEE76068002800F01B870321FF
:1007EC000171E449016000F013BF6268002A00F057
:1007FC001187A168002900F00D8700206070107827
:10080C0040B101200870DFF858090078002818BFA3
:10081C0001204870907840B101200871DFF844093C
:10082C000078002818BF01204871D07848B100200A
:10083C002DF06AFDD4E90121C0F34030C8710120CC
:10084C008871107950B30120087201F10C002DF061
:10085C005BFDA1680882DFF80409007802281DD12D
:10086C00DFF804090078C8B9DFF800590120A8475F
:10087C00A16848610220A847A16888610420A847A4
:10088C00A168C8610820A847A16808621020A84781
:10089C00A16848622020A847A168886260684279F4
:1008AC0032B1012281F82C20DFF8C4281288CA85C5
:1008BC00827932B1012281F83020DFF8B828128811
:1008CC004A86C27932B1012281F83420DFF8A82897
:1008DC001288CA86027A3AB1012281F83820DFF8F0
:1008EC009C28127881F83920427A3AB1012281F899
:1008FC003A20DFF88C28127881F83B20827A3AB1C2
:10090C00012281F83C20DFF87C28127881F83D2008
:10091C00C27A3AB1012281F83E20DFF86C281278B5
:10092C0081F83F20027B3AB1012281F84020DFF8A8
:10093C005C28127881F84120427B3AB1012281F87F
:10094C004220DFF84C28127881F84320827B3AB1A0
:10095C00012281F84420DFF83C28127881F84520E8
:10096C00C27B002A00F0C08601201122002681F8EB
:10097C0046000BAD812000212B462DF0D9FC9DF8B3
:10098C002C00A168002881F8470000F090862EF01A
:10099C00E3FCA1680028886400F0A1869DF82C2057
:1009AC00691C2DF0A3FE00F09EBE254655F8040FE1
:1009BC00002800F02F8600216170017841B1407849
:1009CC00DFF89C270121107063202EF025FA28688F
:1009DC00017941B14079DFF88C27012110706D202D
:1009EC002EF01AFA28688179002900F07C84C179EC
:1009FC004FF400500DF066FE00F089BC60680028D2
:100A0C0000F0088690F9005028462CF033FDA068C1
:100A1C00002800F0FD85E9B2017000F0F9BD6068B6
:100A2C00002800F0F785002161702A212EF08CFB44
:100A3C00DFF810576068DFF860670822E98A0180E8
:100A4C00A98C8181698BC182DFF85017097881727A
:100A5C0005F139010E30B04767682DF033FB0146C4
:100A6C00B81C0822B047606805F11C010822183038
:100A7C00B0476068297E012280F82310DFF8201728
:100A8C0080F821208978CB0718BF80F824208A07AA
:100A9C0044BF012280F825204A0744BF012280F878
:100AAC0026200A0744BF012280F82720490644BFAC
:100ABC00012180F8281000F0AFBD6068002800F01C
:100ACC00A98500782EF0B4F900F0A2BD606800286A
:100ADC0000F0A0850088002111F0D8FB00F09CBD2F
:100AEC006068002800F0968530462DF089F80546A0
:100AFC00002800F01485E888DFF8A81640F00C00F8
:100B0C00E88002202DF04CFBDFF89C1603202DF022
:100B1C0047FB40F20110ADF83100606801680079C4
:100B2C000B918DF830000BA822F06EFA00F073BD1B
:100B3C006068002800F06E850BAD011D0822284668
:100B4C002DF0D4FD03202CF069F86068C07B29F0EF
:100B5C004DFCDFF84C068378606841888689027802
:100B6C00807BCDE90060284616F02CF900F053BDCF
:100B7C007C052043010102066768002F00F04A85BE
:100B8C002EF003FA0546002800F0DA84387828B1F4
:100B9C00E988787821F001010843E880B87830B111
:100BAC00E988F87821F0020141EA4000E8803879C0
:100BBC0030B1E988787921F0040141EA8000E880BD
:100BCC00B87930B1E988F87921F0080141EAC00020
:100BDC00E880387A30B1E988787A21F0100141EA5E
:100BEC000010E880B87A30B1E988F87A21F0200159
:100BFC0041EA4010E880387B30B1E988787B21F0FD
:100C0C00400141EA8010E880B87B28B1A968F87BE4
:100C1C0021F001010843A860387C38B1A968787CC0
:100C2C0021F00201002818BF0231A960B87C38B14C
:100C3C00A968F87C21F00401002818BF0431A960D0
:100C4C00B87D38B1A968F87D21F01001002818BFD3
:100C5C001031A960387E38B1A968787E21F0200166
:100C6C00002818BF2031A960B87E38B1A968F87E79
:100C7C0021F04001002818BF4031A96097F82200EC
:100C8C0048B1A96897F8230021F48061002818BFA7
:100C9C0001F58061A96097F8260048B1A96897F81A
:100CAC00270021F40051002818BF01F50051A9605C
:100CBC0097F8280048B1A96897F8290021F48041D9
:100CCC00002818BF01F58041A96097F82A0048B1A7
:100CDC00A96897F82B0021F40041002818BF01F5F2
:100CEC000041A96097F8340048B1A96897F835001D
:100CFC0021F48011002818BF01F58011A96097F824
:100D0C00380048B1A96897F8390021F4800100280F
:100D1C0018BF01F58001A96097F83C0048B1A9689B
:100D2C0097F83D0021F08071002818BF01F1807107
:100D3C00A96097F83E0048B1A96897F83F0021F0E8
:100D4C000071002818BF01F10071A96097F84000EC
:100D5C0048B1A96897F8410021F00061002818BF3C
:100D6C0001F10061A96097F84200002800F054845A
:100D7C0097F84310A86800290CBF20F0805040F071
:100D8C008050A86000F048BC6068002800F04284E5
:100D9C008178002900F0E783C2780321002A08BF7C
:100DAC000121E1E36168002900F0348408888A7825
:100DBC0001211EF081F800F02EBC022060706068EA
:100DCC00002800F029844188007826F0E3FA0028F6
:100DDC0040F01E8400F020BC6068002800F01A84EB
:100DEC0000216170007827F001FF00F015BC6068ED
:100DFC00002800F00F84A168002900F00B8400216A
:100E0C00617000782CF06EFBA168087040002EF029
:100E1C00A3FA0146D4E90102516000782BF0B4FA30
:100E2C00FAE36068002800F0F583A068002800F061
:100E3C00F1830026C0E900666068418800782AF0DA
:100E4C0023FE002800F0CF8366700546A168008859
:100E5C000880A8780028887000F0DE832EF07CFAD9
:100E6C00A1680028486000F0D7838A78E91C2DF02F
:100E7C003DFCD1E36068002800F0CC830021CDF864
:100E8C003A10CDF83610CDF83210CDF82E1002797C
:100E9C004188ADF82C105AB1816849B10F2A28BF8E
:100EAC000F228DF82E200BA803302DF01FFC60684C
:100EBC0000780BA9012220F023FCACE32CF064FE9B
:100ECC00A9E36568002D00F0A5832F7838462CF037
:100EDC00A3FE002800F05183D0209CE3606800281A
:100EEC0000F0988300782CF097FE002800F0928395
:100EFC000546007B28F04CFC0028607040F08C8389
:100F0C00DFF8E00A4168002900F0868300220C46D5
:100F1C002346002C00F0CD83AB4200F0CA831C6842
:100F2C001A46F5E76668002E00F07483357D284676
:100F3C002CF072FE002800F06D83307F102141EA06
:100F4C004007717F002908BF4700B07F002818BFF9
:100F5C0047F00807F07F002818BF47F0200796F8E5
:100F6C002000002818BF47F0400796F82100002801
:100F7C00284618BF67F07F07D6F818802DF03EFC86
:100F8C00002800F0478305466068827A01788DF866
:100F9C00352082898DF83410ADF836204A1E022A8D
:100FAC0005D3032900F046840F2940F0488441887A
:100FBC00ADF82C1000F043BC61680220002900F051
:100FCC002A830A888DF834004988ADF82C200BA8A8
:100FDC0002221DE061680220002900F01C838DF8BC
:100FEC003400002308880A794988ADF82C000BA836
:100FFC002BF082F90FE361680220002900F00B83CB
:10100C008DF83400052208884988ADF82C000BA80F
:10101C0000232CF013FAFEE265680220002D00F08C
:10102C00FA828DF834002E7B00272888AB79AA88A9
:10103C006988ADF82C00A8682D69CDE90006CDE9CA
:10104C0002570BA818F01EFCE5E265680220002D83
:10105C0000F0E1828DF83400EE682F7C4FF0000C2C
:10106C002888EB8869882A79ADF82C00287A6D6974
:10107C008DE8C100CDE9035C0BA818F0ABFBCAE20C
:10108C006168002900F0C68202208DF83400887B4C
:10109C000D88421E8DF82400022AADF82C5005D381
:1010AC00032800F0A2820F2840F0A482088AADF831
:1010BC001C009FE26068002800F0AC8202218DF8D1
:1010CC0034100188ADF82C10817B4A1E8DF8241049
:1010DC00022A05D3032900F0B0820F2940F0B38215
:1010EC00018AADF81C10AEE26068002800F0928214
:1010FC0002214FF6FC728DF8341001888A1A032AEB
:10110C0011D8022A0FD02DF013FDADF82C00606819
:10111C000021837AC27A0091811C0BA826F032FE42
:10112C00607060680188ADF82C10837AC27A002157
:10113C000091811C0BA826F025FE6CE2CC1003005C
:10114C00F7790020E869002064270020622700203E
:10115C0060270020642200203E29002078270020F0
:10116C007A290020297A00207F290020E1F801004B
:10117C0028290020242900202C2900207029002057
:10118C006D290020622900206E2900207929002079
:10119C00632900207C290020F9E602003028002079
:1011AC007C780020B9820200A1E302006268022070
:1011BC00002A00F030828DF83400002310889178DA
:1011CC00D278ADF82C000BA822F0AAF823E26168C3
:1011DC00002900F01F82CA7A887A0B7B4D7B002A8B
:1011EC0018BF40F00200002B18BF40F00400002D87
:1011FC0018BF40F008008A7B002A18BF40F040005E
:10120C000023C2B20888023127F080FC03E2606838
:10121C00002800F0FF81A168002900F0FB81007814
:10122C000BA92BF091FA0020BDF82C206070D4E9AA
:10123C000101A1F8012000780870EDE16068002838
:10124C0000F0E881B0F80110ADF82C1000780BA973
:10125C002CF01EF9DFE16068002800F0DB81017AD8
:10126C00427A002320F01EFED5E16068002800F0D1
:10127C00D1818178C2780088002329F02FF9CAE146
:10128C00022506E002266670C6E12BF04CFAC3E19B
:10129C0000256570C0E129F051F90BAA28461121EF
:1012AC002DF0BAFDB7E100F10C010BA810222DF0C6
:1012BC001DFA6068D0E907120430CDE90F1207A9B6
:1012CC002BF02CF80028607000F0FE8161684888D3
:1012DC0004310BAA23F08AFB9DE101302CF029FE8E
:1012EC0099E1012097E1017A89B1C168008A42072E
:1012FC0001D064290BD316F085FE002001210DF0DE
:10130C00E1F9DFF8E826352028212DF085FD286845
:10131C00817C41B1808ADFF8D826022110804420DC
:10132C002DF07AFD2868817D41B1008BDFF8C42651
:10133C000221108046202DF06FFD2868817E41B17E
:10134C00808BDFF8B4260221108083202DF064FD01
:10135C002868817F41B1C07FDFF8A0260121107081
:10136C0029202DF059FD286890F8201049B190F8EB
:10137C002100DFF88C26012110702B202DF04CFD64
:10138C00286890F8221049B190F82300DFF87426F1
:10139C000121107043202DF03FFD286890F8241097
:1013AC0049B190F82500DFF86026012110702E203D
:1013BC002DF032FD286890F8261049B190F82700DE
:1013CC00DFF84826012110702F202DF025FD28680C
:1013DC0090F8281049B190F82900DFF83426012143
:1013EC00107030202DF018FD286890F82A1049B1A3
:1013FC0090F82B00DFF81C26012110702C202DF00A
:10140C000BFD286890F82C1089B190F82D20102A2B
:10141C0028BF1022016B8DF82C200BAC601C2DF01A
:10142C0065F98120112122462DF0F6FC286890F8F0
:10143C00341049B190F83510102928BF1021826B57
:10144C0062202DF0E9FC286890F83C1041B1006C4A
:10145C00DFF8C4250421106084202DF0DDFC286801
:10146C0090F8441049B190F84500DFF8B0250121FF
:10147C0010704B202DF0D0FC286890F8461069B104
:10148C00DFF89C4500F14701082220462DF02EF98B
:10149C004720082122462DF0BFFC286890F84F10F9
:1014AC0031B100F15002012008212DF0B5FC286863
:1014BC0090F8581041B190F859008DF82C000BA9F8
:1014CC00522025F0FFF9286890F85E1049B190F889
:1014DC005F00DFF850250121107033202DF09CFCAB
:1014EC00286890F85C1059B190F85D00DFF8382549
:1014FC000121107032202DF08FFC23F0B5FC2868F0
:10150C0090F86010002900F0878090F86100DFF8F7
:10151C00D4144870DFF8C81481F868007CE01C20F3
:10152C002DF01AFF002877D01C2105462DF00CFE5B
:10153C0028462E7128F0E2F900287FF4DCAA91E00D
:10154C001C202DF009FF002866D01C2105462DF02B
:10155C00FBFD28462E7128F0D1F9002800F082807E
:10156C006768FFF713BB002103794279002B18BF82
:10157C004031008810F018FB4DE02CF059FBDFF8DF
:10158C0064140978884270D22DF0FFFC20B181469A
:10159C00007B002800F08D811C202DF0DDFED8B3DF
:1015AC001C2181462DF0D0FD89F804604FF0010814
:1015BC0065682F787FE1013007A92AF0AFFE6070D3
:1015CC0050BB07980021182240880BAB2CF0B0FEC2
:1015DC00607008BBA068DDE90F12C0E90712093082
:1015EC000BA9FEF70DBEB12015E0103107A82DF0A8
:1015FC0009FE6168DFF8E803C08A854210D1887A59
:10160C000A7E0C310123009107A90BF0A1FD08B152
:10161C00002000E002206070012028B0BDE8F087B7
:10162C0088890A7E8B7A07AE0025CDE90006CDE9C4
:10163C0002258A1C0BA9212011E000F1100107A83A
:10164C002DF0E0FD60688189027E837A07AE00256B
:10165C00CDE90225CDE90016821C0BA922201EF033
:10166C0037FBD8E728462DF075FED120D3E7374657
:10167C003546012DD0DB60680822011D48462DF04F
:10168C0035F860681422D0E90710CDE90B10B9B217
:10169C000BAB042008E00BAD142128462DF054FDB3
:1016AC000420314614222B4629F0B4FDB3E78E6496
:1016BC0019E0AB42B0D1A94208BF021D28681060E6
:1016CC002846E2E0C820A6E70798182140880BAA14
:1016DC00E6E5A068DDE90B12C0E907129CE70020E3
:1016EC00886481F847006068007C70B110202DF090
:1016FC0033FE0346A06803653BB10121102280F83C
:10170C004C10622000212CF013FE6068417C31B13A
:10171C00A168012281F85420BF4A12688A65817C35
:10172C0039B1A168012281F85C20BC4A127881F899
:10173C005D20C17C51B1A0680121082280F85E10A7
:10174C00A7495F3039312CF0D1FF6068017D59B168
:10175C00A568012085F867002CF0B4FC014605F162
:10176C0068002DF04FFD6068417D79B10BA95220C6
:10177C0029F082FBA068012180F870109DF82C10D4
:10178C00002918BF012180F871106068817D19B1A2
:10179C00A1680122A1F87220C17D51B1A16801227A
:1017AC0081F87420A04A1278002A18BF012281F80F
:1017BC007520017E39B1A168012281F87620994A01
:1017CC00127881F87720417E51B1A168012281F80D
:1017DC007820844A5278002A18BF012281F8792097
:1017EC00807E00283FF418AFA168012081F87A00B0
:1017FC007B4991F82610082918BF042916D0A1B9E5
:10180C0021202DF0B1FC74280FD10BAB212000212D
:10181C0074222CF08DFD9DF85210043901F0FB015F
:10182C000843B0FA80F0400900E00020A16881F87C
:10183C007B00F1E6811C0BA82DF0E4FC6068817B39
:10184C0031B348002DF088FD88B36168064600224C
:10185C00887B904206D00B6933F8123026F8123090
:10186C000132F6E78B8CCA8AD1F828C091F8221085
:10187C00FFB2CDE90406CDE90271CDE900C80BA891
:10188C00294624F076FD607030462DF063FDC3E6EA
:10189C00838CC28A816A90F82200FEB2CDE90018CE
:1018AC00CDE902600BA8294609F080FAB3E61020B6
:1018BC00B1E64FF000084E4606F80C7F287A3073DC
:1018CC004948706014202DF047FD0028B06045D0C9
:1018DC0014212DF039FC6268D9F814005268817912
:1018EC00927901F0F00102F00F02114481716168EC
:1018FC00D9F8140049680A780270D1F80220C0F8AF
:10190C000220CA79C271097B017350002DF024FDAD
:10191C00D9F81410886060B1CA7900239A4208D0B3
:10192C0065686D68AD6835F8135020F813500133B5
:10193C00F4E7087B40002DF00FFDD9F81410086176
:10194C0060B1097B0022914208D063685B681B6917
:10195C0033F8123020F812300132F4E730462AF016
:10196C0001FDB82802D00746022806D1307827F0AE
:10197C000FFF30462AF0F6FC074637B1B8F1000FDE
:10198C000FD048462DF0E6FC23E0B8F1000F3FF4F1
:10199C0043AE484627F0B2FF00287FF43DAE4846E0
:1019AC0073E7D9F8140078B1816821B108462DF09D
:1019BC00D1FCD9F81400016921B108462DF0CAFCFC
:1019CC00D9F814002DF0C6FC0020C6E90000C6E9C9
:1019DC000200B82F3FF480AA022F3FF47DAA1BE629
:1019EC00E8690020EC27002016290020087400204C
:1019FC0028290020242900202C29002070290020CF
:101A0C006D290020622900206E29002079290020F0
:101A1C00632900207C2900200C2900205F2900204C
:101A2C002428002067290020682900202DE9F04F88
:101A3C0099B080466FF007000DF11C0B063098F83A
:101A4C0008105A46ADF85200D8F8040012F01CFEEB
:101A5C00002800F0B5809DF81E609DF81F409DF891
:101A6C002070BDF826502DF05DF8844240F0A8801F
:101A7C0025F003004FF6F87480B2A04200F0A0806D
:101A8C00012F00F29D80022E80F09A80B8F8280079
:101A9C00ADF84800B8F83200ADF82A009DF82200E5
:101AAC00D0B1D8F804109DF81D209DF838300120D5
:101ABC002BF062FC08B1CF2083E0DFF85807C07828
:101ACC00012809D1B8F828002DF0F5FA20B1417998
:101ADC0001F0E701083141719DF8210068B1BDF8B2
:101AEC002610FF2029F0D0FF9DF82110D8B141F02D
:101AFC0001012C268DF8211016E09DF839000028E4
:101B0C0064D09DF83D10FF2902D0002940F0ED80F3
:101B1C00DFF80407BDF82620C18A8A4240F0EE8027
:101B2C000120222607E0082601F00300012808BF47
:101B3C0046F011060120B1073746DFF8DC9658BF96
:101B4C0067F07F07002808BF37469DF8220030B9A0
:101B5C0099F80B0018B107F02200222813D117F0C6
:101B6C00400A58D0119899F80E200178920718D491
:101B7C000C291BD8012241F290438A401A4245D1CC
:101B8C00032940D012E0F8B200F0420042287FF462
:101B9C0092AF1198007800F0FE0006287FF48BAF0E
:101BAC00DDE7A1F10C0212F10C0F2AD8B9F81600DE
:101BBC00BDF82620824203D1BDF8280028F0DEFAB9
:101BCC00D3201CF032F819B0BDE8F08FBDF8260018
:101BDC0026F0FCFC0238DFF84016B0FA80F0CA8A16
:101BEC004109BDF82600904208BF0231002900F0DF
:101BFC008C809DF81E20002A00F03A8101F14007EC
:101C0C0038E1032902D140780D2804D007A825F02B
:101C1C0051FF0128D7D0B9F82400B8F844108142FC
:101C2C000AD198F84620B8F84210B8F828000023DA
:101C3C000093002311F0D2F99DF82200E0B1B8F81E
:101C4C004210B8F8280028F0B1FDB8B30646D8F811
:101C5C0004009DF81D10F2780844417B8A421EBF97
:101C6C0000227260F1700130042129F0C5FB71680B
:101C7C008842A8D30130706099F80E008007A2D575
:101C8C009DF84D0058B1BDF828002BF015FE00282A
:101C9C006FD0D8F80400417801F0DF0141709DF855
:101CAC002E00A0B3D8F804008179013981718DF828
:101CBC002E1007F07F0009062CD12AE09DF84D006C
:101CCC00002841D004202AF009FA00283FF47BAF09
:101CDC0001464FF4B2700880B8F828004880DFF84D
:101CEC003C05007821F014FA6DE7109A9DF83C0041
:101CFC0024F03EFD30B1012000261CE790F82600B0
:101D0C000428F8D10026002015E70027B2E007F0E0
:101D1C007F000746390702D44FF0000A49E0F9B2B8
:101D2C004A0737D4C9069DF821103DD5C1F382026C
:101D3C0012B1072A18BF013A002A08BF074601F062
:101D4C00E30040EA82012DE099F86C0001287FF451
:101D5C0093AF11980078062803D1BAF1000F7FF4E5
:101D6C008BAFE01DBDF82A1080B281423FF42BAF3F
:101D7C0044E1D3201BF059FFDFF8A40400780028BD
:101D8C0000F0AD80DFF89C1451F82000C0EB00107F
:101D9C008100A6E09DF8210000F0E00100F0E300D6
:101DAC0040EAD1018DF82110D8F804004FF4805A84
:101DBC00017299F82600092801D0042829D1B9F814
:101DCC001610BDF8260088420AD026F0FFFB022828
:101DDC0006D09DF8210000F0030001287FF4F3AE3B
:101DEC009DF81E0000285BD011989DF838100078E3
:101DFC00042808BF02296DD0072808BF042900F069
:101E0C00838003287FF4DFAE07A8002114F0ACF820
:101E1C00D9E6FEB217F0610F49D0F00708D0B8F838
:101E2C00281007A818F02EFC002871D007F09F0787
:101E3C000025FEB2B80605D52CF044F807A815A964
:101E4C0006F02EFE700640F13981B8F8281007A86C
:101E5C000DF152022B4612F093FC002800F0818009
:101E6C00054611980078012808BF4AF0100A25E1B0
:101E7C0001F1200726F0AAFB0138B0FA80F04009E6
:101E8C0047EA00069DF81E0000283FF453AE119857
:101E9C0000782BF065FD012818BF07F07E0649E697
:101EAC002CF010F807A815A906F0FAFD8BE69DF8A2
:101EBC001E00012864D111980078032853D00528FE
:101ECC005ED1B8F8281007A80DF15202002312F0C9
:101EDC0057FC78E607A9002013F0EAFA73E6D1481C
:101EEC000168D1480268BDF82800904701287FF4AA
:101EFC006AAECE480168BDF828008847CC48016816
:101F0C00BDF8280088475EE607A81AF041FF5AE69C
:101F1C002AF014FD9DF82E100546BDF8280021B9B5
:101F2C00B8F8281088423FF484AFB9F816108142F3
:101F3C0004D1B848807800283FF47BAFB8F828105B
:101F4C0007A82A460CF002F8002800F09E80300703
:101F5C004AF0040ABDF8260048BFE01DADF8520057
:101F6C0067E70025AAE0BDF826002BF0A5FC38B1E8
:101F7C00B8F8281007A80DF15202002312F000FC4B
:101F8C009DF82E0088B327F073FE00287FF41BAE5B
:101F9C009DF83900B8B3109A9DF83C009DF83D109F
:101FAC0024F0E6FB002873D09DF83D00002878D083
:101FBC0010992DF00DF89DF82430ADF85200112039
:101FCC009DF823209DF821104AF0400A002B08BFF1
:101FDC000920002A18BF0830002918BF0130D8F892
:101FEC0004100A5C013A0A5465E09DF81E000128B1
:101FFC0004D11198007803283FF4E5AD07A84146B9
:10200C0021F072FBDFE59DF82010BDF826000029B9
:10201C00ADF8520000F0CF804020BDF826100BF137
:10202C001D0200EAC7099DF820004B461BF07EFFFD
:10203C0038B1D8F804004AF0200A017801F03F01C9
:10204C0001709DF8390048B1BDF826100BF1200045
:10205C0025F012FD4AF0400AADF852009DF81E0022
:10206C00012806D0BDF82810BDF82600002217F074
:10207C0013FEBDF82810BDF826004A4615F0E0F90D
:10208C00002818BF4AF0200A15E007F0DF07CFE65A
:10209C00BDF82610BDF828000B2200231DF08EFC85
:1020AC0091E5BDF82600ADF852002DF004F800289B
:1020BC0008BF4AF0400A2AF041FC0546A01DBDF8B5
:1020CC00521080B20E1A5B4818BF2E4600780128B9
:1020DC0005D1E01DB8F8321080B281422ED178B211
:1020EC00B0F1FF3F3FF76FAD002E3FF46CADB8F889
:1020FC0008002DF031F900283FF465ADB8F8082040
:10210C00D8F8041005462CF0F1FA9DF81E100020AA
:10211C0098F80830B8F8282016908DF85410BDF8AF
:10212C00521015ACCDE9006ACDE90204284616F030
:10213C008FF868B328462DF00DF944E5B8F828104F
:10214C008142CCD0601CBDF8262080B28242C6D21F
:10215C00BDF828008142C2D02CF0ADFF0028BED0C3
:10216C00017901390129BAD8408801218DF8541020
:10217C00ADF8600015AD284622F0CCF80028AED0A2
:10218C00281D20F039FE0028A9D029F005FCA6E76F
:10219C002048407800283FF416AD00208DF81860D8
:1021AC00ADF81900DDF826004FEA3040059005A87F
:1021BC002CF0B4F807E531073FF52EAF9DF81E1053
:1021CC0001293FF429AF00211BF070FE20B14079AA
:1021DC0001380228FFF420AFB8F84410BDF85200C3
:1021EC0028F0E4FA30B180782AF048FE013807284C
:1021FC00FFF412AFBDF828002BF05EFB18B10420E1
:10220C008DF8200008E7BDF82610BDF82800022242
:10221C0043E700BF30270020E8690020F779002051
:10222C0071290020180A0300582400206024002083
:10223C005C2400207D2900202DE9F04F8FB00C4646
:10224C00480718D4200471D4E00400F1CC81200696
:10225C0000F1EA81A00700F10082200500F1348230
:10226C00600600F13482A00400F16682600400F183
:10227C00A882002017E2DFF8D8050178062900F2C1
:10228C001082DFE811F00700C0010E020E020802F6
:10229C000E02C501DFF8BC6596F837104A0700F14D
:1022AC00C8818A0700F1ED81090740F1FA81062106
:1022BC00017096F83A00002800F0C68223F0F8FD71
:1022CC00002800F0C1820546F0684068407880071D
:1022DC0040F19582287804AB0321002225F0F7FA0F
:1022EC00002800F07A8206980188B42916D8B42107
:1022FC004FF47A720180DFF860054FF400510078DA
:10230C002CF08FFFDFF85805016839B1DFF8540560
:10231C000078FF2814BF2878FF208847F0684068B1
:10232C004078C00740F0628209205CE2DFF83C058F
:10233C00DFF82475DFF818A5DFF8445548F20408D7
:10234C0048F202094FF6FE7B00880290387820F0A4
:10235C00BFF9002800F0448106460078D3280DD13F
:10236C00F089404537D0484539D048F201018842C0
:10237C0040F01C81304619F041FB17E19AF800102F
:10238C00884219D1012856D0032840F00F81DFF87C
:10239C00CC0400780138012800F20881B0780128BB
:1023AC0077D0002840F002817078002800F0BE80C1
:1023BC00002022F0C7F8F9E00A2840F0F780DFF897
:1023CC00941491F837003071096A002900F0EE80FE
:1023DC00B01C8847EAE030461DF022FDE6E0DFF84D
:1023EC0094040078002800F0E1809AF8000001289D
:1023FC0040F0DC802CF0C2F8002840F0D7807088C8
:10240C00002840F0D3800AAD122128462CF09CFE07
:10241C002CF070FD304629461CF0F4FABDF834005F
:10242C00B0F5285FC0F095800120022122F0E4FE77
:10243C00DFF84C54BAE0DFF82404007801380128A6
:10244C0000F2B4807078DFF80C2460B192F83C0094
:10245C0092F83D10013082F83C00C0B2884202D99B
:10246C0001200021A0E09AF80100032834D00228B2
:10247C004BD0012840F09A80DFF8F8030078002850
:10248C0000F08C802CF07AF8002800F0938001206A
:10249C0085E07078002851D02CF04AFB5845DFF8C5
:1024AC00D8B34FF6FE7103D1BBF81600884207D0A3
:1024BC00ABF81610ADF81010532004A924F002FA52
:1024CC0023F088F82AF05AFA00208BF8260021F025
:1024DC005BFC4FF6FE7B69E0AB4604ADAB20002104
:1024EC002A4620F05DFC04200A955D464FF6FE7BE3
:1024FC008DF82C000AA813F0ABF92CF0FBFC387803
:10250C004FF4805141F2883220E0012050714FF499
:10251C008060ADF8100004A81CF0E9FE2CF0EAFC79
:10252C00DFF84C034FF4805102680EE014F082FD8A
:10253C00C848406AD0BB21F027FC37E002204FF49A
:10254C00805140F6B8328AF8020038782CF069FED7
:10255C002CE0CA480DF10F01006804AA1AF004FF20
:10256C0001460298C64D814213D29DF8200010B14D
:10257C00FD208DF820000420142204AB8B4628F09B
:10258C0049FE0BEB4B004FF6FE7B012105EB800067
:10259C004172B048002180F83B1003E00020AD49A7
:1025AC0081F83B000120012103F044FA30462AF067
:1025BC0052FDCBE6A74991F83E0020B1886A00286D
:1025CC00F4D08047F2E70020002102220023ADF86E
:1025DC00100002208DF8180004A82AF02FFF8CE7B9
:1025EC0084F400405FE09D4800780138012868D8E9
:1025FC009748017803295CD0012962D141780020E9
:10260C0022F0FAFD5DE00120012122F0F5FD48E009
:10261C000021322201708F4880F836108E48042138
:10262C0000782CF0FEFD3CE016F080FA84F080007F
:10263C0039E00521017096F83810890736D596F8DF
:10264C003A1099BB052101600120B070002022F0E6
:10265C0087FD022029F0AAFE23E08048007801388B
:10266C0001280BD80020CDE9040004A817F0C2FD06
:10267C0020B17948022100781FF084FB84F002001D
:10268C0011E00421017096F83810C90709D096F8AA
:10269C003A10002942D02AF01AFD0420012103F03F
:1026AC00C9F984F004000FB0BDE8F08F05200021BB
:1026BC00F5E78178022904D101218170002023F0F3
:1026CC00D3FB84F48050EEE784F40060EBE723F056
:1026DC00EFFBD0B15F4F05463878013838700006F3
:1026EC0016D05D4E4FF48041307825F0B5FA30B9F4
:1026FC0038692CF09BF810B9287820F095FE3078CA
:10270C00402143F698222CF08CFD5248007810B9E9
:10271C000B202CF083F884F04000C4E74F49097873
:10272C0001390129BDD8032101600120B0700120BD
:10273C0022F016FD01208DE7464EDFF81C91DFF8E4
:10274C0020A100250DF11008002006F108070290C9
:10275C003F6857B3D7F804B09BF800000028F7D0B7
:10276C00F028F5D803210022434625F0B0F80028C4
:10277C00EED006980188A1B94FF4407086F8365017
:10278C002CF008FC99F800000AA92CF0C8FCDAF827
:10279C00001086F836500029DAD09BF800008847E4
:1027AC00D6E7013901800120D1E7029999F80000A0
:1027BC00C9070BD04FF400514FF47A722CF031FD55
:1027CC0008E014F059F984F480406CE74FF40051A0
:1027DC0021F0B4F984F4005065E7F0684068407863
:1027EC00C0070CD10E202CF019F808E040F209308B
:1027FC002CF0D0FB184800780AA92CF090FCF0685B
:10280C0040684078C1073FF44CAF17490968C1B123
:10281C00287820F009FE10B10E202BF0FFFF0E4D92
:10282C000C20402143F69822307028782CF0F9FCCB
:10283C0040F20A302CF0AEFB28780AA92CF06FFC81
:10284C002FE780073FF52DAF0E202BF0E7FF28E791
:10285C004879002038220020FE79002078270020BB
:10286C00F028002039290020D8240020CC100300A7
:10287C00FC28002051290020E8690020A4620020D7
:10288C00547400202DE9F04F9DB00446DFF840054C
:10289C00406818B18047002800F07982DFF834A531
:1028AC00DFF834B50D940DF138099AF80000411E8B
:1028BC00002C0B910BF1180418BF01219BF802801E
:1028CC00002700258BF80F109BF801100C91C0B25B
:1028DC0087421ED2B84517D0FEB200214A460423C7
:1028EC0030462BF0C3FE0E9810F4403F40F004002D
:1028FC00C0B218BF01357C2806D130460621F8221B
:10290C002AF0CAFCF82020709AF800000C34013729
:10291C00DDE7E9B201380022884204D19BF80500BA
:10292C00002800F05182CDF82880DDF834804FF07B
:10293C000109B8F1000F404608BF1020059015ADF5
:10294C0000200190DDE90B740026380400F0F981B9
:10295C009BF80F0008B98BF80F90E0B200210EAA7B
:10296C0004232BF083FE0E98B8F1000F18D010F44E
:10297C00403F18D04FF400509AF800100136013F38
:10298C00ABF810009BF80F0001388BF80F0059FAC8
:10299C0084F0B0FBF1F202FB11048BF80D40D4E78C
:1029AC000021049102E0CDE90B740496C0B20A9E9A
:1029BC004FF00009702804D00C987021C0B226F09A
:1029CC007BFDF4B200210EAA042320462BF04EFE10
:1029DC009DF83800FE2803D02046FE2126F06CFD21
:1029EC0020460621FE222AF057FC4FF400500C9F83
:1029FC000BF116010022ABF814908BF80C60A14679
:102A0C00ABF81000FF208BF80E00F8B28BF80D70AD
:102A1C00400050FA87F001EB8000B0F806A0DFF818
:102A2C00B00302706000ABF812A050FA86F09BF86D
:102A3C000F6001EB8002FE20114601F8020F32F804
:102A4C00060F03910890E3480292047814A825F02D
:102A5C0081FE56FA87F0CDF82490013890FBF4F102
:102A6C0001FB140000905FFA87FB0C97CB4500F03C
:102A7C006081ABEB0900B0FA80F0400907900020B0
:102A8C00069000204FF00109C00740F09D801FFA0E
:102A9C008AF4162C71D9CE480078002840F0718148
:102AAC00AAF1070758460FAAB9B21BF0BFFCBDF834
:102ABC004A6006F11000A0420FD89DF846009628F7
:102ACC000BD1A7EB06099DF8452031465B461FFA52
:102ADC0089F840461FF026F918B3AAF1010A4FF005
:102AEC0001095446A0B2172864D33628A4F116065F
:102AFC0058462A4688BF2026A41BB3B2A1B22BF09D
:102B0C00B5FD3004EED015FA86F010F8010C9628BD
:102B1C0001D0013EF5E7DDF8348006EB040A002015
:102B2C00B2E79DF84700C10701D1800704D400200B
:102B3C00CA46DDF83480A5E7F01D83B2089813FA75
:102B4C0080F4B4F5005F01D90120F2E780B2A54909
:102B5C0018440A1A584641462BF088FD0698013055
:102B6C00B4F5005F069004D101204FF40051089198
:102B7C00DEE70020CA460894DBE7069810B19649B8
:102B8C002BF0EAFE0098C0B2834500F0D880914942
:102B9C000C98097859FA80F0DDF82490B0FBF1F22A
:102BAC0002FB11078C4907EB470001EB8000B0F8E2
:102BBC001CA058E7894814990068426888489047D7
:102BCC000020DDF8348005E0069810B182492BF026
:102BDC00C3FE002007900C980A907D4800780028CE
:102BEC0040F0CF8008981021C0F50052103883B205
:102BFC000998C1F2001225F0C9FD754A11780843F5
:102C0C001499107075480068426875489047079889
:102C1C000A9A88B16F4800780BEB0001013991FBDF
:102C2C00F0F202FB10126C49D0B2400050FA82F064
:102C3C0001EB8000B0F81CA0DFF89CB10899029859
:102C4C00099C01238BF80E200180ABF81010BBF906
:102C5C0012209BF80D102046ABF814A028F01AF89F
:102C6C00BBF914209BF80E102046022328F012F812
:102C7C00BBF81000049CB8F1000FC0F5005007D051
:102C8C000599DFF850A18842A4BF0121019101E010
:102C9C00DFF840A1059988424FF07C01B8BF78213C
:102CAC00099E304626F008FC10F062FE07469BF8A1
:102CBC000F000621FC22C01B8BF80F0030462AF0B7
:102CCC00EBFA0399FC209BF80E3008709BF802106D
:102CDC0017FA84F00C9301449AF80000B1FBF0F25F
:102CEC0002FB10118BF802100A910131CAB2B2FB2F
:102CFC00F0F202FB10118BF8011003EB43010BEB0C
:102D0C008101898B102906D10C990131B1FBF0F2AC
:102D1C0002FB10100C900B98C01BB8F1000F0B901D
:102D2C003FF410AE019880F00100C0077FF40AAEAA
:102D3C0007E00120CB464FF0010907904DE70098C2
:102D4C004AE77C2026F0D2FB0446FF2825D17E20C2
:102D5C0026F0CCFB0446FF281FD19BF8014004EB66
:102D6C0044000BEB8000807DFF2812D09AF8000005
:102D7C009BF802100144013991FBF0F202FB101494
:102D8C000BE01648149900684268154890470022D9
:102D9C001AE020467E2126F08FFBE0B2FE218BF854
:102DAC000340400050FA84F00BEB8000808BABF8B2
:102DBC0006009BF8020026F07FFB00208BF8050034
:102DCC00BBF81000C0F5005210B21DB0BDE8F08F7A
:102DDC0014240020F679002080710020D801001006
:102DEC0000400340002000112DE9F04F89B026F07F
:102DFC0085F8DFF810158122DFF81485DFF814A5AB
:102E0C00DFF82045DFF814E50A70DFF8FC140860E1
:102E1C00DFF8F804FF2101700020DFF80415A8F892
:102E2C0000008AF80000DFF8F0040968007891F8D7
:102E3C0008B04FF6FE718EF8000059448AB2A168B2
:102E4C00D1F80031DB899A4200F267810422DFF865
:102E5C00DC54A8F80020DFF8D02412689668330EF2
:102E6C00CEF80C60C6F301592B706FF0FF0303EA28
:102E7C001627B3B2D1F8B86047EA1327AEF804703E
:102E8C0036781EB9B9F1020F00F04781B9F1030F82
:102E9C0000F043811B0A03F0070316B1002B00F06E
:102EAC003C81DFF88CC4042B9CF800C008BFBCF13B
:102EBC00000F00F032813EB1DFF878643678862E50
:102ECC0002D1022B40F02981BB0416D4BBB203F013
:102EDC000703022B08BFBCF1000F20D0DFF85414FD
:102EEC000978862909D10020764626F05BF8DFF8B0
:102EFC004004B64690F800C0307800284ED0BCF1A3
:102F0C00000F4BD1012800F0088103283FD0022884
:102F1C0044D1BEF80400400740F0FF803EE0D1F8F9
:102F2C00D40090F88300022800F08080274605200A
:102F3C00147BF246A946A8F800002BF0C9FD054603
:102F4C00DFF8F003007886286DD1B868016C096849
:102F5C0011B9D0F84C05804760B20021002628F04A
:102F6C00F3FAB9680A6C12685077086C00688677B7
:102F7C00086C0068C47728462CF01DF9BAF80410C8
:102F8C0099F8000001F0100120F0D0FF4EE0BEF8DF
:102F9C00040000F00700032840F0BF80BEF80400D6
:102FAC00010700F1BA80810402D4810500F1B580DB
:102FBC009EF80E20C2F38107012F00F0AE80960917
:102FCC00012E00F0AA80B9F1010F11D840F00201D6
:102FDC0001F0070103290BD117B93F2A40F29D805C
:102FEC0037B9A168D1F8AC100978002900F09580A8
:102FFC004FF6FB71B9F1020F0BEB010C19D1CF4B52
:10300C00D95D9B5D03EB01090023402AB7FA87F2D7
:10301C0038BF012352091A40430616D4002A08BFB0
:10302C0009F1020915E028462CF0C5F82AF002FB3C
:10303C0075E0C14B402AD95D9B5D03EB010908D3B8
:10304C00420648BFA9F1020903E0002A18BF4FF05D
:10305C000209C0F300205FFA89F11FFA8CF30A1AF7
:10306C008EF801009A4258DC60440391B346401A32
:10307C00A168AEF806007430D1F8501280B28847BF
:10308C00A6490028886048D07421CDE901972CF01E
:10309C005BF8A24F0020B870A548007820B93879A9
:1030AC0000F020008AF8000078789AF80010DFF819
:1030BC0078C24FF000092E4600299A493DD00028CD
:1030CC004FF000003AD1B88800F00700032807D071
:1030DC00012832D18868D0F8D40090F8820060B30F
:1030EC00C8684069007818B12AF0E2FFFE280DD0BC
:1030FC008C488068D0F84C02804738B98948806881
:10310C00D0F844028047002800F0F780834F01205C
:10311C00B870DFF814C22E4610E02AF0DDFD2BF05B
:10312C00D7FC814900240A6813681C7112680A6074
:10313C002CF041F809B0BDE8F08F0020BC6804F118
:10314C00740184F830B06160A1657978BB88FA8825
:10315C000029A381029B228184F83A30337808BF7E
:10316C009946B8F8003097F80EB0019DA4F85C2091
:10317C00FF2284F84990A2735E1A797BCBF3011974
:10318C00A8F8006001F0780160F3820101EB0900FE
:10319C002074280600F0AE80DCF8000004AF039A1F
:1031AC0010FA86F000F1080138462CF0FFF856FAB8
:1031BC0085F0CBF38105A8F80000207C00F04008D6
:1031CC00CDB3B9F1020F06D1B8F1000F03D0B4F8AA
:1031DC00440004AF06E0BDF810000237A4F8440028
:1031EC00A4F84200564EF189884203D04FF6FF7185
:1031FC0088425ED1032D11D104F1320039462CF0F6
:10320C004CF8464CF11CA068323029F0E1FA4549E3
:10321C0000284ED094F80EB008370EE037F8020BA9
:10322C00B1898842608606D04FF6FF713B4C8842CC
:10323C003C493ED101E03B49384CBBF1400F20D317
:10324C00B9F1020F06D16DB9B8F1000F0AD13348AC
:10325C00806803E0A068017C490603D439880237F2
:10326C00A0F84210BBF1C00F06D32C4C3946A06815
:10327C0028302CF012F803E0284C3888A168088517
:10328C0028498968A088D1F8AC201278B2B1B9F17C
:10329C00020F13D200F00700012802D003282FD10F
:1032AC001E4C6DB9264AA368D289B3F842309342BA
:1032BC0006D01EF0B4FB1CF093FE30E700F00700C4
:1032CC00032806D0012815D1D1F8D40090F882003B
:1032DC0080B1A068D1F848128847104A50B9002034
:1032EC00D17B9070907BC1F3011100F07800084401
:1032FC00916808740BF0A2FA11E7084FB87808E748
:10330C00064CDDE7117A002090790020167A002017
:10331C00E4790020147A0020137A00204026002043
:10332C00D07900200C01002020790020247A002084
:10333C00237A0020197A0020501003004C1003004F
:10334C004C7800202DE9F04F97B0DFF80C8505463E
:10335C00DFF8086598F800000328307040F04981C8
:10336C00002088F8000030700DAC20462BF0A1FF37
:10337C00204600212AF07AF9DFF8E494B0603A2173
:10338C0048462BF0E1FE4FF0FF30A9F81400C9F8C5
:10339C001000C9F80C0027F093FC0020294622F0FD
:1033AC006BFB06F11001F0602BF017FFD6E905025C
:1033BC00DFF8B074B0FBF2F1C9B2032928BF0321C6
:1033CC00B2F5005F89F80010397040F00F81B0EB56
:1033DC00413FC0F00B81F068002800F007814FF4EA
:1033EC000050FF224FF000084FF0885BA9F8060050
:1033FC00FF2089F8032089F80580059000200890AB
:10340C0000200B90002009900020079000200690CF
:10341C0000200A9000200C90FF200290FF200490C6
:10342C00FF200390CCB2A04580F0E6805FFA88F6CE
:10343C00002116AA042330462BF018F9DFF82C448F
:10344C003046002115AAA0473046012114AAA047F6
:10345C003046022113AAA04716996FF06F0050FA5C
:10346C0081F2C8B20E2A06D8012303FA02F245F201
:10347C0001131A4203D1A0F1FE02022A04D242F235
:10348C008352B2EB914F1ED0304618F013F8DFF890
:10349C00CC130028087040F0CF803046002116AACB
:1034AC0004232BF0E3F8DFF8C4433046002115AABF
:1034BC00A0473046012114AAA0473046022113AA86
:1034CC00A0471699C8B208EB48023D46CA4609EB1C
:1034DC008204C1F30142090AE1759DF8561004F10A
:1034EC001609FD28627689F80000217601D9102191
:1034FC0036E0BDF854104FF6FF72914230D10EA851
:10350C0025F028F9304600214FF088524FF4005333
:10351C004FF400572BF0AAF86FF0030313FA87F758
:10352C00B8B250F80B104A1C01D10328F6D801226E
:10353C000126D3B2042B06D8CBB2FF2B18BF1646EC
:10354C000132090AF5E740F80B10C9480E990068DA
:10355C004268C848904757FA86F081B299F8000043
:10356C00A1839DF852107028A176BDF85010E1830C
:10357C009DF84E10E176BDF84C10218411D07828BE
:10358C00D14614D07C282F4616D07E281AD0FE287F
:10359C001FD0FF2823D10898CDF80C80013008905B
:1035AC0020E00A98D1462F4601300A901AE006987E
:1035BC002F460130069015E00798CDF810800130A9
:1035CC0007900FE00998013009901FFA88F00290DB
:1035DC0008E00B98CDF8148001300B9002E00C98A9
:1035EC0001300C90397808F101081BE7012088F8AC
:1035FC00000017B0BDE8F08F0C98984E00060BD168
:10360C000B98C0B2012807D80A98C0B2012803D879
:10361C000998C0B2012811D99348042200240270E1
:10362C00CAB2E0B2904210D217F044FF31780134A4
:10363C00084339783070F3E7884E1BE0089BD8B20A
:10364C00A04219D1884800220270002089F803009A
:10365C0089F80100481E7E2189F80200B9F81C0087
:10366C00A9F80600002025F027FF99F80200FE219A
:10367C0025F022FF3078BCE70A98000624D00B987E
:10368C00059A000603D1039A180600F08480764848
:10369C0002210127D5B289F80220017017FA82F0B5
:1036AC00B0FBF4F101FB140089F80100284617F077
:1036BC0001FF30702846FE2125F0FEFE89F80570CA
:1036CC000020FFF7DFF8D5E70B98059A000621D00C
:1036DC006548012189F80220017011FA82F0049AE0
:1036EC00B0FBF4F101FB140091B2FF2989F8010041
:1036FC001FD10299FF2919BF89F8031001EB410072
:10370C0089F8030000EB400009EB8000808BA9F8DE
:10371C000600AFE7DDE90620104300063FF47CAF5E
:10372C0027F0A2FAA04280F085804F480321017057
:10373C003EE0480089F8032010FA82F009EB800083
:10374C00818B1829A9F8061094D30739D0B20EAA88
:10375C0089B21AF06BFE9DF843004007B0D5B9F85A
:10376C000610BDF84620002399F8030000930323AC
:10377C00891A0EAA073989B209F088FA00287FF451
:10378C0079AFBDF8441000293FF474AF9DF84800A0
:10379C0021F060FA6EE727F067FA0621A042324862
:1037AC0038BF03210329017002D0062952D061E7EA
:1037BC0027F05AFA054689F80C0000EB400009EB9B
:1037CC008000408BA9F80D0010F0D2F8397828440D
:1037DC00B0FBF1F202FB110089F802000130C2B219
:1037EC00B2FBF1F202FB110089F801007C2025F0FC
:1037FC007DFEFF2812D17E2025F078FEFF280DD10A
:10380C00FF2025F073FEFF2808D1782025F06EFEEE
:10381C00014699F80100FF2918BF0846C1B289F882
:10382C000300490051FA80F009EB8000808BA9F865
:10383C0006001AE70898000609D099F80200FE2144
:10384C003C46374625F038FE2478039A40E7064874
:10385C0006210170FEE700BF34290020142400204B
:10386C0080710020F6790020077A0020F5E802002C
:10387C00D8010010004003402DE9F84305460C46E2
:10388C00480413D4A00024D4A0075CD460057ED4D3
:10389C00200500F10681200700F13B81600040F11A
:1038AC00F6801DF001FE24F08044F0E02BF010F9BE
:1038BC00DFF81C140F6D3FB1D7E90A1202F0E04299
:1038CC0001F00A01891849D02BF075FC24F48044CE
:1038DC00DDE0BB48DFF8FC73016841F0800101605A
:1038EC00B878012804D1042025F068FE0020B870B7
:1038FC002BF0EEF8064604202BF08CF9DFF8D813E9
:10390C000A68904219D12A7EBAB1FA68AAB1DFF8D6
:10391C00C003806C002800F09780C16840F6030259
:10392C000988914206D0C06840F60401008888429C
:10393C0040F08A8005F1140088E040F6C41208605B
:10394C00C5E9042284E00CF079FCDFF88403006CF8
:10395C00002840F09D8024F0020498E0D7E90A6525
:10396C00D7E90A12AA43B143C7E90A122BF023FC88
:10397C00B8680028AAD056EA0500A7D0D7F808C026
:10398C003869B7F9301032462B46E0479EE72BF0EA
:10399C009FF8054628F044FC002800F0B780CC487E
:1039AC00876B002F00F0B280DFF828830420CB490E
:1039BC00002288F81800C6482AF058FA2BF02BFC85
:1039CC00C7482BF0F2FBC7480068006B8047C8F86B
:1039DC0010000125042088F8025026F05FFC38699D
:1039EC0090F82810C8F80400490703D5436A04214D
:1039FC000022984701201FF0B7FBD8F80400457649
:103A0C0016F0EEFDD8F8040081680B461A465B6888
:103A1C004BB11E88A6F60306072EF7D805FA06F654
:103A2C0016F0830FF2D0537B03F0F0030133537382
:103A3C000023FD6853602D88A5F60305012D00F2C7
:103A4C008A80C8F810309FE005F1100022F06EFE5D
:103A5C0030462BF0B0FB26F039FC78B12E6A2846A4
:103A6C006FF4807100224FF00073B0479848806B60
:103A7C0010B11DF019FD01E044F00204EE69284676
:103A8C00002100224FF08063B04724F0005434B181
:103A9C00974821462830BDE8F8432BF073BCBDE8AD
:103AAC00F8838C4EB078012804D1042025F086FDD3
:103ABC000020B07026F00AFC38B170686FF4807189
:103ACC0000224FF00073056AA847306950B1854851
:103ADC000068006B804732697168801A000BC860FF
:103AEC00002030617A4D8149002228462AF0BEF927
:103AFC0002203076286C20B17D48022128302BF032
:103B0C0041FC1DF0D1FC24F40064C0E72BF083FBD6
:103B1C0041E02AF0DDFF054628F082FBA0B1DFF87A
:103B2C00B48198F8000000070ED498F90000002822
:103B3C000AD4684616F090FF08B1009820B1DFF85F
:103B4C00B49199F8610048B32BF065FB1DF0ACFC07
:103B5C0024F008049BE7034633F8385FA5B190F8CE
:103B6C00445090F8456005F0F00580F8445006F09C
:103B7C00F005013580F8455000255360C563458735
:103B8C00507B00F0F000507357480022C261016076
:103B9C00012028F0F3FF24F4806478E70026012745
:103BAC00602E0FD009EB0600817A31B18772407A12
:103BBC0007FA00F0C0B225F01BFD2036F0E700BF7D
:103BCC00CC210840032088F8180045482BF0EDFA6A
:103BDC002BF021FB444F3E4D002278690020786188
:103BEC00F968F860284644492AF040F93D480068D5
:103BFC00006B8047D8F80C10D8F82020411A02EB43
:103C0C001130B0EB113F38BF4FF0FF3098F8241053
:103C1C00C8F8200021B1D8F80810B0EBC12F20D97A
:103C2C0028F0BCFFB8B140F60900414621F83C0F22
:103C3C00002048804A7B02F0F00201324A730A7B72
:103C4C0002F0F0020A734860F8613960B8F83E007F
:103C5C0010F4406FFAD00020C8F82000012088F83A
:103C6C00240021F0C1FE2548002101600220002122
:103C7C0028F084FF022025F0A1FC102015F060FF35
:103C8C0098F8010020B9D8F8040050302BF076FBDE
:103C9C001B48807810B90D2015F052FF98F82500BC
:103CAC0028B1002088F82500052025F087FC00208D
:103CBC0088F818001348C8F81C000220B5F85610F4
:103CCC00B5F85420914208BF07201CF0A1FD3DE738
:103CDC0030210020D01E00204828002009C20200FC
:103CEC00306F00208C01001000100440A94101002D
:103CFC0070200020606A002019150200000004608A
:103D0C00900F03008D3B01002DE9F04FAFB004463E
:103D1C000020ADF8280094F82400012809D1DFF820
:103D2C00300494F82810807831B1002800F0FA8122
:103D3C0002E0DFF81C04807848B9207D00F0FE001A
:103D4C00022804D12FB0BDE8F04F1CF039BEDFF8CB
:103D5C0000743878012806D1DFF8F8033979007E31
:103D6C00814240F0CE80DFF8F8534FF4FA60E06007
:103D7C0028682AF022FE18B1E1680844E06007E0E8
:103D8C00E16828682BF0DBF9DFF8D8032BF004FB93
:103D9C0094F825008DF86C0048B1022809D11BA8B5
:103DAC0004F11801082204302AF080FD01E0E06AD9
:103DBC001C900DF12B051BA80AAA29461BF030F903
:103DCC000646D0B99DF8381094F8260001F003018E
:103DDC0081420DD105F10E0004F1340104222AF0C8
:103DEC0065FDBDF82810022041222B4620F0C4F9B5
:103DFC009DF86A0008B1DC490870B878B8B301289E
:103E0C0040F0908194F83800E3280DD1B86818B1CF
:103E1C008047002800F08681F86818B18047002898
:103E2C0000F0808194F83800E22804D194F828003E
:103E3C00002840F077810020002E18BF0546002195
:103E4C00282295F80D801EAE30462AF05CFB01A8A6
:103E5C00002103222AF057FB94F83800E32840F0A5
:103E6C00C0809DF8041041F00802E320E9E0207DB9
:103E7C00042800F25781012101FA00F010F0130F11
:103E8C0000F0508101A8002124224FF000082AF0F4
:103E9C003AFB1EAF04F1180B04F12C090026BD1CD3
:103EAC0007F1060AB8F1040F45D85FFA88F03946D5
:103EBC0025F0E1FF06460D2820D00A2E00F08C805C
:103ECC0094F825009DF878104140490701D002264E
:103EDC0014E048B948465146042229F061FC0028F8
:103EEC0040F02F8194F82500022807D15846294626
:103EFC00082229F055FC002840F0178108F1010830
:103F0C00D0E794F83800E32840F00C8192482BF06D
:103F1C0041FA00283FF427AF8F4C20462BF03EFA95
:103F2C008E48C82100682BF00AF920462FB0BDE856
:103F3C00F04F2BF031BA002E4ED10020616B9DF862
:103F4C0085509DF878209DF87930069194F83810BA
:103F5C00C5F382068DF81C1094F82910002918BF9F
:103F6C00083606F15001182606EAD202104403F076
:103F7C00010240EA4210BDF8042040EA8510C0B2AC
:103F8C00104340EA0120ADF8040094F8400058B109
:103F9C008DF81D002BF054FA089028B194F84020AD
:103FAC0004F141012AF082FC6A48C08AADF8240071
:103FBC0094F9150010F16D0F0146D8BF6FF06C012C
:103FCC002AF0C3FCC8BF3B21A07D002818BF0120EC
:103FDC0041EAC0108DF82600E17D01A802F0DCFA60
:103FEC00A0E094F8251011F0070119D0022920D176
:103FFC0006F1080004F1180108222AF057FC94F885
:10400C00301094F8380002228DF888109DF80410B6
:10401C00E32862F302018DF804103FF424AF0AE0A8
:10402C00E16A1F919DF8041021F007018DF804102E
:10403C0001E09DF8041094F8292021F0080141EAD0
:10404C00C2029DF80510022302F00F0263F3051162
:10405C0094F82630022B16D394F82760012E17D033
:10406C00D6B94FEA980606F00706042E6DD801273C
:10407C0007FA06F616F0160F67D0C8F3820621F081
:10408C001701314408E0002B08BF21F0170103E0B1
:10409C0041F0040121F0130163F30512237D032B7E
:1040AC0003D1E36B41F0080127938DF89000606B0E
:1040BC00239001F00700C9B242EA8010C1F3C0029C
:1040CC0040EA4220C1F30012C1F3401140EA8220C1
:1040DC0040EAC120ADF8780094F8400020B18DF88A
:1040EC00910004F1410025901A482B46C08AADF886
:1040FC00980094F9150010F16D0F0146D8BF6FF0C0
:10410C006C012AF022FCC8BF3B21A07D002818BFFF
:10411C00012041EAC010E17D8DF89A001EA81BAA6F
:10412C000BF044FB2FB0BDE8F08F01A859460822D4
:10413C0008302AF0BBFB94F830008DF814000220F4
:10414C00FCE6D9F800000290F7E601F0E801A3E7DD
:10415C008C250020E8690020407000207879002030
:10416C0074790020FC6F0020552700202DE9F041C8
:10417C0086B00C46080403D460043ED40020D6E17B
:10418C00DFF8B07338781EF0A3FA002800F0CD8168
:10419C0005460078A0F1D001062933D9A0F13101F0
:1041AC000629C0F0BF81A0F12301022948D31A28A7
:1041BC0068D0FE287DD0FD2800F09780272840F09D
:1041CC00B080082027F08AFFA8B10646012005F12F
:1041DC000108307098F8000003302BF0BDF87060C7
:1041EC0048B198F80010CA1C41462AF07FFA78783A
:1041FC0031461EF08DFF284620E125F091F984F41C
:10420C00804094E10120884010F0750F40F08A81C5
:10421C00012940F09180C84E6878B178814200F055
:10422C00818106F8020FC54B4FF000700021324619
:10423C0026F01CFB16F8010CC14981F8680071E1ED
:10424C000C2027F04BFF002800F06C810646002064
:10425C00C6E90000B06005203070E878A9783171AB
:10426C0070712BF079F80028B06000F05B81EA786F
:10427C0069682AF03BFA307929F0CEFC002840F02E
:10428C00D4804FE1302027F029FF002800F04A812C
:10429C00302106462AF058FF9220A91D3070A87BC9
:1042AC000328307140F08880B01D08222AF01EFAD5
:1042BC0084E0162027F012FF002800F03381064618
:1042CC00023014212AF040FF932030802A7968783C
:1042DC00A978EB88012A33813071317418BF02221E
:1042EC00B271E978A878317515E00A2027F0F6FE4E
:1042FC00002800F0178106460020C6F80600C6F814
:10430C00020091203080A8786978EA787071317158
:10431C00B271A988318129F07FFC002840F085809A
:10432C008BE02846FBF784FE002800F0FB80A87881
:10433C0029461EF0EDFEF8E0E889A0F500410629BB
:10434C0010D8DFE801F0047E88EF96AEB70028465F
:10435C001DF078FD002800F0E5806988834B064647
:10436C000120AFE048F23601884200F0B28048F2FA
:10437C002001884200F0B58048F22101884200F00B
:10438C00B88048F22201884200F0BB8048F2340128
:10439C00884200F0BE80132840F0C48000206E4696
:1043AC000290CDE900002846314629F01DF86988B5
:1043BC006F4B4FF080705AE00888F080D5F80200FF
:1043CC00C6F81200E88AA6F81B00E87BB073288AAE
:1043DC003082688AF082287D3076687D002818BF8C
:1043EC0001207076687E002818BF0120B076287EE8
:1043FC007077E869306295F8200086F82400A88D63
:10440C00F08495F82E0086F82800A88C70852AF088
:10441C00A3FF0028F06200F08580AA8CA96A2AF01C
:10442C0065F9287D29F0F8FB20B1007931461EF0A2
:10443C006FFE77E0F06A2AF08DFF304628F00BFE15
:10444C0070E028461DF0FEFC00286BD06988464BB6
:10445C000646022036E06E46122130462AF074FEE3
:10446C00284631461AF0CEFA69883E4B0420324673
:10447C0056E06E46182130462AF066FE2846314634
:10448C0029F046FB6988364B1020324626F0EEF9AF
:10449C00039818B12AF05EFF002003900598A8B984
:1044AC0040E0284626F0E7FFE0B369882B4B064630
:1044BC00202007E0284626F0DEFF98B36988264BBB
:1044CC0006464020324626F0D1F930462AF042FF0B
:1044DC0028E0A86969881B4B2AF02FFD4FF4800057
:1044EC001EE0A86969881A4B2AF027FD4FF480401A
:1044FC0016E0A8696988174B2AF01FFD4FF400508D
:10450C000EE0A8696988114B2AF017FD4FF40040A2
:10451C0006E0A86969880C4B2AF00FFD4FF4801057
:10452C0026F0A4F9284628F096FD84F4004006B045
:10453C00BDE8F08116290020EC27002021C80200DC
:10454C00E869002051B6020027B602007BB60200D3
:10455C00FDB50200D3B50200F72C02009D2C020021
:10456C00EDBC01000D890100B121020011220200F5
:10457C00895802002DE9FF47847802261D2C00F291
:10458C00A5810546DFE814F0D8005300E0005A007E
:10459C006E00A201A20178001E0045008300940069
:1045AC00A000A201A800E500A201A201ED000001FB
:1045BC000E01A201A201A201A201A201A201A2016B
:1045CC001E0045002AF018FE06466238022709280C
:1045DC0007D8012101FA00F040F28131084240F085
:1045EC003081A6F13A000228C0F02B81242E40F035
:1045FC00278101AB352000210422002429F098FEEC
:10460C00002800F07F81012002228DF80C00002090
:10461C007FE100208DF80C002AF0EEFD0646092CF7
:10462C0061D195F8059095F80680072064E001208B
:10463C000121ADF8040001AB6120B1E00120EC1CBC
:10464C008DF80400E220214622F03CF930B901201B
:10465C00082122462AF0E0FB8DF8040001AB612012
:10466C0003212FE101ACE220214626F005FC61205C
:10467C0004210822234626E12AF0BEFD0446681DCB
:10468C002AF066FE242C40F09D80002015E1E8788D
:10469C00032800F2AD80281D2AF05AFE0246E87865
:1046AC00A04931F81010A04800782AF0BAFDA0E01B
:1046BC00E878032800F2A3809A4931F810109A4840
:1046CC0000781FF03BFA9BE02AF078FCADF8040070
:1046DC0001AB61200C2163E0002661200E21012238
:1046EC008DF80460C4E0681D2AF032FE8146E81D96
:1046FC002AF02EFE8046092001AF242E18BF2F1859
:10470C0009EB080508BF352630462AF02DFD8542F9
:10471C0001D9022080E0B9F1000F04D130464146A6
:10472C003A4625F05BFB304641463A462AF074FB8C
:10473C0000286BD00A206FE0E878012802D000280E
:10474C0040F0C3802AF032F8784B612002210A2213
:10475C00B9E0E878291D012864D0002869D1E0204F
:10476C0064E02AF049FD0446681D2AF0F1FD242C72
:10477C000FBF0020014620462AF08EFC8DF8040065
:10478C0001AB612012219DE02AF036FD24280CBFDC
:10479C0000202AF0E9FCADF8040001AB61201321E4
:1047AC00022290E0E8788DF804005D488068D0F82B
:1047BC00302401A9E02090478DF80C0003AB612058
:1047CC0014217FE005F10806ED790146A84270D965
:1047DC00204600222AF01AFB09288DF804006ED11D
:1047EC00002D6CD02046294632462AF015FB66E097
:1047FC0002208DF8040001AB61200A2162E0022046
:10480C008DF8040001AB61200B215BE0012E05D17A
:10481C00E220394622F056F88DF80C0003AB6120EB
:10482C0021464FE00878022856D2522022F04AF84E
:10483C0000E002208DF8040001AB61200F2141E063
:10484C000027681D082C01D1057802E02AF080FDB4
:10485C00054630462AF088FCA84298BF02275FB173
:10486C0000268DF804706120214602228DF8056027
:10487C0001AB22F0EFFB29E0401B87B2F72F28BFDA
:10488C00F727B81C5FFA80F840462AF065FD08B39C
:10489C0000F1020A8146394650462AF055FC304652
:1048AC0029463A46534629F043FD0546C8B10A2726
:1048BC0022E0204632462AF0A9FA8DF8040001AB1A
:1048CC0061200721012222F0C5FB0026304604B0EE
:1048DC00BDE8F0871027C3E701A9522026F0CCFAD7
:1048EC00AAE789F8017000276120214642464B4611
:1048FC0089F8007022F0AEFB48462AF02BFD002D03
:10490C00AED1E2E701988DF80C400422ADF80E0010
:10491C0002208DF80D0003AB61200821D3E700BF06
:10492C000C0100205C100300F5790020EE0F030051
:10493C002DE9FE4F8846080426D45FEAC87004BFF0
:10494C000020BDE8FE8FE54805682AF0D3FC04463C
:10495C002AF0CEFC60434FF47A714FF6FF72B0FB35
:10496C00F1F14FF6FF70002D00F01A812B886C8846
:10497C00CB1A9BB29C4240F21C81E31A94B2A34224
:10498C00B8BF1A46ED68EEE7DFF840A3CDF8048017
:10499C009AF800001DF09CFE002800F0FC800646F2
:1049AC000078012840F0EC80DAF8041096F8339087
:1049BC00D6F814B096F8138021B1484688470028E1
:1049CC0040F0DE80718896F83100022226F0B8FEA5
:1049DC000546002842D0287A297CA0F10108FF293D
:1049EC0000F0BB80707F4F46C00718BF0027E97CE2
:1049FC00287D0144B94204D8E974FF2101FA00F082
:104A0C006874A969A87C96F83020896A10FB071095
:104A1C00F16A29F06BFE287D697CB7FBF0F202FB92
:104A2C00107001228240D2B20A436A74C8457CD10C
:104A3C0096F83010AB7C13FB0713A9698B844FF4E9
:104A4C00FF7303FA00F0C0B21043FF2868746CD1F6
:104A5C00287C1EF05DFBFF2028747FE0707FC00770
:104A6C0000F08E80B07F29F0C9FE002800F088800D
:104A7C0004461C202AF070FC002800F081801C21C8
:104A8C0005462AF061FBB07F02A927F05DFE9DF878
:104A9C00090002212875284627F0F0FE708896F848
:104AAC00312096F8301096F83330A880287DEA71C2
:104ABC00FF2202FA00F0687460680078A974287408
:104ACC00302013FB010080B227F008FB0028A861FE
:104ADC005DD004461A20B11C2060708CA080A01DF3
:104AEC0028F0E4FCF27F04F13000B17F96F8283016
:104AFC00C4F81CB084F81980A062307CE273744A4C
:104B0C00217563750121A075928C2282F28EA2858B
:104B1C00F28C6282B6F81100A4F817009AF8000023
:104B2C0085F808901DF02EF955E72AF0E3FB0446B2
:104B3C002AF0DEFB60434FF47A71B0FBF1F065496B
:104B4C0028806348097800794843642148436249C6
:104B5C00097800FB0100688000E04F46E87C297D65
:104B6C006A7C01440139B94218BFFF2A0CD186F87E
:104B7C003300708806F11C0186F834201AF07CFB97
:104B8C00304628F068FA03E7C845F9D1EFE7284624
:104B9C0027F084FEF4E7019880F40040BDE8FE8F16
:104BAC0092B282424BD04948012100782AF039FB5D
:104BBC0045E0A879022806D1287CFF2837D0A869BF
:104BCC0028F049FA33E02AF095FB04462AF090FBD2
:104BDC0060434FF47A71B0FBF1F03F49288095F8AF
:104BEC003800097888421BD295F83620FF2A06D166
:104BFC0095F83720013085F8380085F8362095F87F
:104C0C00351095F8394082F0FF0300200126C7B219
:104C1C00A7421DD206FA07F71F4214D10130F6E75E
:104C2C00EA8BA87E95F82A10E92323F0E7F82846AA
:104C3C0027F034FE2548012100781DF0A3F888F0F8
:104C4C000100BDE8FE8FFBB201441A4385F8362003
:104C5C00AB8F95F83440C8B204FB10339EB2A64219
:104C6C0003D2FF2285F8362002E0FF2A08D1234622
:104C7C00184A174E1278367972436426724302E052
:104C8C0095F83A2023466A802A8D0E0606D022F02B
:104C9C00200244432A852A6C224404E042F020017D
:104CAC002A6C2985297A85F82E10E9796A6285F8AB
:104CBC002D10D9B269840549496811B1884700287B
:104CCC00B8D105F1100005F0BBFDB3E79C2700201F
:104CDC00E86900205C2900206229002094560020FD
:104CEC002DE9F04FC3B00DF1450B884601469146B6
:104CFC0058462AF0CCFA08F0080500260DF1040AF3
:104D0C00042E39D8F4B25146204625F0B4F80D28BB
:104D1C0003D007460A2801D17DE17DBB20465946C8
:104D2C001DF018FE01360028EAD0002D51D10BF1F0
:104D3C0037010DF18600022229F0B8FDBDF886007E
:104D4C009DF83A10ADF8C800C80700F083800AF14E
:104D5C00370732A90222384628F022FD9DF83A1076
:104D6C00012877D101F0FE00FF2104228DF83A00D2
:104D7C00384629F0C8FB6FE001274CE102202146A0
:104D8C0041225B461FF0F8F90746B4480BF10B01C2
:104D9C0029F02EFF68B90BF1370120462AF023FACF
:104DAC0038B90BF13B0120462AF01DFA002800F01F
:104DBC0032810C202AF044FB002800F019812AF0E3
:104DCC00EEF8B9F1000F18BF4FF0010984F80A9002
:104DDC0005E19DF84500400661D49DF84600C007EA
:104DEC0000F0A48032AF0DF1450138462AF04FFA9D
:104DFC000DF1860901A948462AF049FA9DF8BC0034
:104E0C00810700F1288110F001054FF03B0007F1FC
:104E1C00370108BF37200422484429F047FD0220FF
:104E2C00002D08BF01209DF8BC10084349468DF8A1
:104E3C00BC0001A82AF02BFA08F060009DF80510C0
:104E4C004038B0FA80F001F0FE01400908448DF8BA
:104E5C0005006BE0880733D44FF0FF300BF12206CE
:104E6C0029F03CFC3846314628F09AFC0AF12C0516
:104E7C00E0B3384629460A2229F018FD32AE2846FE
:104E8C000A22314629F012FD304639462AF0BDF986
:104E9C00002800F0B98001A829F011FBB4E04FF014
:104EAC00FF3029F01BFC32A8394628F079FC0BF1B5
:104EBC00220930B3384649460A2229F0F7FC27E08C
:104ECC000AF13B0632A90222304628F069FC9DF813
:104EDC003A10012840F08E8001F0FD00FF210422E1
:104EEC008DF83A00304629F00EFB8DE0284631460D
:104EFC002AF08BF9002800F0928032A928460A2269
:104F0C0080E0384649462AF080F9002800F0958068
:104F1C0008F060019DF804006039B1FA81F100F0ED
:104F2C00BF00490940EA81108DF804009DF8460045
:104F3C00810608D50AF10B000BF10B01022229F0B6
:104F4C00B5FC9DF84600400613D59DF805000BF105
:104F5C000D01012240F040008DF805000AF10D0012
:104F6C0029F0A4FC0AF112000BF11201102229F015
:104F7C009DFC9DF84500800605D59DF8040040F089
:104F8C0020008DF804000AF10E000BF10E01042232
:104F9C0029F08CFCBDF88400214641225346ADF823
:104FAC00430002201FF0E8F807462C480AF10B01D9
:104FBC0029F01EFE58B90AF1370120462AF013F9E0
:104FCC0028B90AF13B0120462AF00DF918B30C2040
:104FDC002AF036FA60B129F0E2FF0120A0722048D5
:104FEC00214600782AF044F820462AF0C5F812E051
:104FFC00102710E041F00100314604228DF83A00F0
:10500C000AF1370029F052FC01AB02202146412263
:10501C001FF0B2F80746384643B0BDE8F08F32A80F
:10502C0039462AF0F2F80128EED132A829462AF0A6
:10503C00ECF801283FF42FAFE6E70AF12C0732A871
:10504C000A22394628F0ACFB00287FF433AF3846EF
:10505C0049462AF0DAF80C27DDE700BFE8690020A2
:10506C00087A00202DE9F04F8FB00C46080430D49C
:10507C00A00448D4A00652D4E00600F10D816006CD
:10508C0000F11C81200600F11E81E00500F1208159
:10509C00200500F12281E00400F13581600400F16B
:1050AC003C81A00700F15081A00500F15E81200732
:1050BC0000F16881600500F16B81E0034FF00005A1
:1050CC0040F1F8801FF04EF9BA48C57084F4803571
:1050DC00F0E0B64800781DF0FBFA88B10178B44ACC
:1050EC0005460020582808D0135C08308B42F9D1B3
:1050FC00104450F8041C28468847284627F0ABFF7C
:10510C0084F40045D6E020F087FF28B10546FCF773
:10511C008DFC284627F09FFF84F40055CAE0A34F6E
:10512C002021387822F098FDDFF888824FF00109B1
:10513C00D8F80810084317D02AF0DCF805462AF0F6
:10514C00D7F868434FF47A71B0FBF1F0D8F8081037
:10515C00401A4FEA500938BF6FF00049002500296A
:10516C0064D0B9F1000F61D000200421002226F098
:10517C002BFD06464FF0060A4FF0FF0B4FF6FF785B
:10518C0002AD002E4ED0304604210022374626F0C8
:10519C001BFD06463889B0EB090038BF002038816A
:1051AC000004EED1B87BD0B301280AD1788940072E
:1051BC0007D4386887F80DA0B721407B20F0E4FEB7
:1051CC00DFE739682A468DF806B0ADF80480086A26
:1051DC00C97F0FF059FA01281BD1B87BB97A8DF829
:1051EC0038000907788A40F08002ADF8362006D5E1
:1051FC0040F4C070ADF83600387B8DF83A00786911
:10520C0010B1007BADF81800284601A9002203F06C
:10521C0047FC387B87F80DA018F0C8FFB1E70120D8
:10522C007873AEE7DFF88C81604F4D4626F056FE62
:10523C0000200121002226F0C7FC18B1387820216B
:10524C001CF0A0FD002004210022002626F0BCFC4E
:10525C0060B306890421002226F0B6FC28B1B1B255
:10526C000689B14238BF0E46F4E7A8B2B1B281420A
:10527C0017D9D6FA55F0202180B24200387829F09F
:10528C00D0FF2AF037F805462AF032F868434FF47D
:10529C007A71B0FBF1F609E00AF034FB84F01005EA
:1052AC0008E0387820211CF06DFD0026C8F8086055
:1052BC0084F0200528460FB0BDE8F08F0EF0E4FC1A
:1052CC0084F04005F6E728F057FB84F08005F1E701
:1052DC0026F0EAFA84F48075ECE71EF083FC37487C
:1052EC00007801280CD13448007848B14FF47A7119
:1052FC0000FB01F22D484FF40061007829F08EFF7D
:10530C0084F40065D6E72B48017819B100210170AF
:10531C001EF068FC84F48055CCE72A48006880B104
:10532C002749097801290CD180472748006800B12A
:10533C0080471E484FF480414FF47A72007829F070
:10534C006DFF84F48045B5E72048007890B102AD3C
:10535C00284629F0B4FE29F0D9FB1D490B781D49CC
:10536C000A7829461DF07CFE09E018F015FB84F440
:10537C0000759FE71848418B012029F0E3FF84F06A
:10538C00020597E70B48012184F00805817091E72D
:10539C0012480078022808BF19F0E3FF0E480121DB
:1053AC00808C29F0C1FF84F4806583E7F7790020B5
:1053BC00F00703003027002067290020682900200F
:1053CC006629002048240020542400204029002075
:1053DC006B2900206C290020E86900207827002028
:1053EC0098B0BE4E01214FF00109306029F068FDE4
:1053FC0009200DF10B0401218DF80B001020224621
:10540C0029F004FD10200021012223464FF0000852
:10541C0028F08EFF9DF90B0028F02CF803AF3846CE
:10542C0029F044FEAE4D00213A468DF80C8005F172
:10543C001404204628F060F96C6029F02FFD05F16A
:10544C00080A2146524624F085F82870A548A0F891
:10545C000880A0F8008006AF384629F097F80020A5
:10546C00394610F067FAE8600120394610F062FA0C
:10547C0028614068007828F0FDFD10B9287829F0E3
:10548C00E8FD994FE868394629F089FE28693946C4
:10549C0029F085FE082006F8040F94483146B060C8
:1054AC00287818F03FFB06F11001082020F08CFE44
:1054BC0026F066FC8E488F4A0178082023F01AFEED
:1054CC008D4908201EF02EFE28781FF007FF8B4810
:1054DC008B498DF82A908DF824908DF81C900DF145
:1054EC001809089006908748CDF826104946CDF843
:1054FC002B00287829F0B2FD06AF4421384629F05C
:10550C0023FE40F201103946ADF85600287829F0F8
:10551C0087FD7D487D4A0178082024F045FC2878D9
:10552C004FF480614FF400724FF48073CDE9002189
:10553C005146224617F0D0FA8DF81880287806AE1E
:10554C00314629F090FD06F1060A724E4FF00A0B17
:10555C0020464FF0FF3110F043FB0028F8D028789C
:10556C001DF0B6F8002876D007460078922815D0A2
:10557C00E5282BD0CA282DD0CB2832D0E22834D025
:10558C00E32836D0C5285FD1387900285CD128783B
:10559C0049468DF818B029F066FD55E0D7F8120091
:1055AC00B97BCDF81A0038798DF82710398AADF807
:1055BC002810411E8DF82600022903D303281CD085
:1055CC000F281FD1F888ADF81E001BE0381D29F0FC
:1055DC00C3FD39E0287849468DF8188029F025FD5F
:1055EC0032E0287829F026FD2EE0381D17F0F0FD6A
:1055FC002AE0381D23F03EFE26E0B91D5046082255
:10560C0029F074F8D7F81600CDF82A00F87E8DF83A
:10561C002E00B88BADF82F00B87E8DF83100386AAB
:10562C000D9097F824008DF83800F88CADF84400F4
:10563C0097F828008DF84600788DADF83C00F86A94
:10564C001090484602F054FC384615F045FB10B952
:10565C00384627F000FDA868810723D4C1050BD577
:10566C003078012802D11CF0BDFE01E015F06EFC73
:10567C00A86820F48070A860810505D51BF0A0F9FE
:10568C00A86820F40070A860410505D51EF082FFC3
:10569C00A86820F48060A860010744BF20F00800CF
:1056AC00A86055E70020CDE9060006A814F0A2FD7D
:1056BC0029F01EFE4FF47A71B1FBF0F04FF4FA6151
:1056CC00484316F0A1FBFF20032122F00DFE29F028
:1056DC00FAFC0F4801210160FEE700BFB82300204F
:1056EC0058230020C878002065C60200DC25002065
:1056FC00FE10030018020300B992020000F8FF0725
:10570C00FFFF010403010001FC100300BC100300A7
:10571C007C0520438E25002092B0DFF8D492D9F876
:10572C00000010B1002180F84510483024F096FF9D
:10573C0029F0CEF98046072013F09CFF1BF09EF851
:10574C0010B1AC4829F0B0FB1DF066FD01AD284648
:10575C0029F034F80427002029468DF8047029F02C
:10576C0035F8A54C206028F05DFC0AAD284628F0E1
:10577C00DDFE002029468DF8287028F0DFFE9F4EB4
:10578C00306028F059FC06AD284628F0DFFE0020DA
:10579C0029468DF8187028F0E1FE3168984D286084
:1057AC0019B9984829F080FB286810B9964829F057
:1057BC007BFB206810B9954829F076FB20F0A0FA05
:1057CC00D9F800004FF0FF3438B1CDE9104410A9DE
:1057DC00082227F06FFD01281BD1CDE910440820C9
:1057EC0029F0BAFD002846D005460026052E04D81F
:1057FC0029F0E4FBA8530236F8E74FF620002946BF
:10580C000822E880824828F071FF284629F0A2FD82
:10581C0009E0D9F80010CDE910440029DFD07C480C
:10582C00082228F063FF10AA0120082129F0EEFAC3
:10583C00092800D0D8B925F06EFF800712D4CDE925
:10584C001044CDE90E440EAB01200021082228F0B3
:10585C006FFD60B90EA810A9082227F02BFD0028B7
:10586C0000F0C0806A4A0120082129F0D5FA684965
:10587C00E22021F027F815F0B7FB282029F06CFD69
:10588C00644E0028306055D0634F644C07F10C0512
:10589C0029F02DFC28F0C2FE3068056007F11005D8
:1058AC0029F025FC5E498968D1F84C13884730688B
:1058BC00456007F1140529F01AFC21F0EBFE306865
:1058CC00856007F1180529F012FC25F085FB30687E
:1058DC00C56007F11C0529F00AFC1EF033F830688E
:1058EC00056107F1200529F002FC23F02FFD30683B
:1058FC00456107F1240529F0FAFB23F05FF83068C5
:10590C00856107F1280529F0F2FB20F097FF30683C
:10591C00C56107F12C0529F0EAFB1DF059FD306833
:10592C00056207F1300529F0E2FB387012F044FAF9
:10593C00306845621BF048FF29F054F8404629F0C6
:10594C003AFC1AF015FB29F05CFB012021F002FD5A
:10595C001CF076FF34480078022808D131480078D2
:10596C00012804D14FF40040012108F0ABFE2A4D70
:10597C004FF48041287829F041F92C484FF0FF3141
:10598C00006810F02DF9DFF8A8904FF00008686857
:10599C004FF0FF3110F024F93068002750F8271031
:1059AC00096821B9791C092F0F46F7D3EFE729F0C5
:1059BC0000FB316851F827100C68C1F8008029F001
:1059CC0039FC59F82720002021469047044629F03D
:1059DC00F0FA316851F827100A6822430A6029F05E
:1059EC0029FCD4E70A480EA9082228F07FFE3EE7DE
:1059FC00E42800206C0C0300347900203879002056
:105A0C003C7900202F0E03001C0E0300660E0300D1
:105A1C00F8780020C87900208821002061950200C8
:105A2C000C0100207F29002078270020A479002079
:105A3C005C0B03007FB50138062800F2DE800C46B3
:105A4C00DFE800F00428465E7A8C9900B5480078AF
:105A5C000138012800F2D180002C00F010810020C8
:105A6C000321002422F040FCAB4DAC4E0420042159
:105A7C0032222870307829F0D4FB0820002108F05D
:105A8C0021FE30786C704FF4805104B0BDE870404A
:105A9C001EF054B80020002528F0D0FEA0480121AB
:105AAC00017004208DF80D0024B19A48C58607209A
:105ABC0027F0B4F8984804213222057097480078F2
:105ACC0029F0AFFB934890F8371001F0FE0192E0FB
