:10000000003C02200D7B02008198020081980200D2
:100010008198020081980200819802008198020074
:100020008198020081980200819802008198020064
:0C003000819802008198020099170100DD
:10003C002DE9F047A8B004460078A0F1A0015C2996
:10004C0000F26780DFE811F0BC00DF005D005D00AE
:10005C00F70024015F015D0084018D01A901E60117
:10006C0015023C024F025B02690274027D02860299
:10007C008C0295029B02C902E002EB02F702070315
:10008C001203B900B900B9001C032603B900B9006A
:10009C003103B900B900B900B900B900B900B90011
:1000AC00B9003C034203B900B900B900B900B9006A
:1000BC00B900B900B9004B035403B900B900B90039
:1000CC00B900B900B900B900B9005D03B900B900B5
:1000DC006403B9008603B900B900B900B9009003F4
:1000EC00B900B900B900B900B900B900B900B9003C
:1000FC00B900B900B900B900B9009903A7035D00B4
:10010C00B90060681221002808BF0221617001F05B
:10011C0083BA4D2800F25180A678DFE810F04C032A
:10012C004E005C03660346044E004E006F048004D0
:10013C00CE044E004E004E004E004E004E00D70432
:10014C00E10409054E002D05350643064E004E060A
:10015C005D064E00680682064E00AB06CF06D20640
:10016C00DF0603074E004E004E004E004E004D07BA
:10017C004E005B076C077D074E004E004E004E0094
:10018C004E004E004E004E004E004E004E004E00F3
:10019C004E009607B107CB074E004E004E004E00A6
:1001AC00E5074E0047084E0058084E004E004E0022
:1001BC004E0078088F089C08A608122001F02BBA74
:1001CC006068002801F02682A168002901F02282D3
:1001DC0001783A20002908BF3B200BAD00211122E9
:1001EC002B462BF0B1FD0028607041F01582D4E94C
:1001FC0001109DF82C204270097800F8021B691C34
:10020C00102200F034BE6168002901F003820878E6
:10021C004A783A258B7800288DF82C2008BF3B258E
:10022C000BA80130002B01F03680033110222BF08B
:10023C0059FF01F032B86168002901F0EB81A06828
:10024C00002801F0E78111F8012B00F8012B2CF0AC
:10025C0063FC60680178002901F0AD81DFF8DC0EE9
:10026C000BAE002506F108080788AF4201F0D081DB
:10027C00A9B2042000221423009628F0CFFD607050
:10028C0020B92CF073F9002801F023820135ECE73A
:10029C006068002801F0BE810178002901F003801C
:1002AC00DFF8980E0DF12C0A00250DF11C08002624
:1002BC000AF10809CDE90955CDE907550788B74278
:1002CC0001F0D781B1B2042000221423CDF800A094
:1002DC0028F0A4FD6070A0B960684946082204307B
:1002EC002AF068FD002801F0C28155B960684146CA
:1002FC00082204302AF05EFD00284FF0000508BFEC
:10030C0035460136DBE76068002801F0838101780F
:10031C00002900F0E287DFF8240E0DF12C090027EC
:10032C0009F108080588BD4201F07681BEB20420AF
:10033C0000221423CDF80090314628F06FFD607038
:10034C0020B92CF013F9002801F0A5810137EAE758
:10035C00DFF8EC0D4FF4807100781FF019FF01F0FD
:10036C0057B96068002801F055814188008828F051
:10037C0065F868B9606801224188008823F00CFA9E
:10038C0060684188008828F059F8002801F09A81AB
:10039C0061680979417001F03BB96168002900F08E
:1003AC006F87DFF8A05D087885F8260095F8722035
:1003BC004888E882087A2876488968834868A86261
:1003CC008889A884887B85F83800C87B6871087C8C
:1003DC00E8704869286388696863087F824202D0A4
:1003EC0024F076F9616805F139001D312CF0DCFB45
:1003FC0095F82600082840F04B87DFF8482D21207F
:10040C0074212CF0B5F900200221002525F046FFBF
:10041C0000F03FBF6068002800F03487007824F0BB
:10042C0057F96168DFF81C5D287E4978884212D044
:10043C0029760BA9E12028F00DFB606841789DF826
:10044C002C00884207D08DF82C100BA9E12024F049
:10045C00B5FA60684078012101FA00F0A8622AF030
:10046C007BF900260120A5F870601EF0B3FC00F0AB
:10047C000ABF6068002801F0CD8001884088ADF883
:10048C001C00ADF82C100BA9532024F097FA07A9E7
:10049C00502024F093FA0DF11B01E12028F0DAFA38
:1004AC0060689DF81B100079814201F0B1808DF8D5
:1004BC001B000DF11B01E12024F080FA01F0A8B81B
:1004CC006168002901F0A680DFF87C0C2CF024FB7D
:1004DC006068DFF8782C0189807A1180DFF8701C55
:1004EC00087001F095B86068002801F09380002135
:1004FC0061708178008821F03FF901F08DB8A06817
:10050C00002801F087800020607023F0B5FD0028E2
:10051C0000F0E786A16800F08EBE6068002801F04C
:10052C00798000216170007809F0ACFF01F074B89B
:10053C006068002801F06E80007824F083FA01F0E6
:10054C006AB8A068002801F06580002060702CF06B
:10055C006DF8B2E00020607026F0CEFA01F05CB8C5
:10056C00A068002801F05680002060702CF03CF947
:10057C00A3E00020607026F0F7FA01F04DB8606837
:10058C00002801F0478000216170017D19B1C17C08
:10059C00DFF8C02B5174817D19B1417DDFF8B42B8C
:1005AC009174017C19B1C189DFF8A82B1181017BF1
:1005BC0019B18168DFF89C2B5160817C19B1417CA9
:1005CC00DFF8902B51730179002901F02580006828
:1005DC00DFF8801B086001F01FB8A068002801F04C
:1005EC001980DFF8701BD1F80D20C0F80D2091E8B0
:1005FC002C0085600D7BC0E900230573B1F8111048
:10060C00A0F8111001F004B8A068002801F00280D5
:10061C0000216170411C24F0F3F900F0FDBF60680B
:10062C00002800F0F7870021617022F009FEA16814
:10063C00088000F0F1BF6568002D00F0EB87EB88B7
:10064C00AA88698828782E890A35CDE9006516F0C4
:10065C00F9FC00F0E0BF6068002800F0DB878288BE
:10066C004188007806F010FD00F0D5BF60680028C6
:10067C0000F0D08700F1120125F0E4F800F0CBBFB8
:10068C006068002800F0C6874168007822F096FE6A
:10069C0000F0C1BF6068002800F0BC8700216170C9
:1006AC00007826F06FFF00F0B7BFA068002800F0BC
:1006BC00B187002060702AF0BFF8A16800F0BCBDC3
:1006CC000020607021F008FD00F0A6BF60680028D3
:1006DC0000F0A087006826F02BFA00F09CBF606841
:1006EC00002800F09787006805F09EFB00F093BF90
:1006FC006068002800F08E8700680EF02DFC00F07A
:10070C008ABF0020DFF8501A6070E07800F094BDCA
:10071C006168002900F080870820ADF82C0008885B
:10072C00ADF82E00081D0BAC90E86800221D68C2C5
:10073C00087CD1E905231C31CDE910238DF83C0050
:10074C0004F11C0010222BF0CDFC204628F0A8FB55
:10075C0000F062BF6068002800F05E87817A008834
:10076C0024F092FC00F058BF60680078002800F07C
:10077C008C8526F055F800F04FBF6068002800F01B
:10078C004987DFF8D819097801293FF616AD2BF007
:10079C0013FA00F040BF6068002800F03B87DFF8D8
:1007AC00BC19097801293FF608AD4168008820F092
:1007BC005FFF00F030BF6068002800F02B874078A6
:1007CC0018B1FF20032125F069FD2BF08DFEE848C0
:1007DC0001210160FEE76068002800F01B870321FF
:1007EC000171E449016000F013BF6268002A00F057
:1007FC001187A168002900F00D8700206070107827
:10080C0040B101200870DFF858090078002818BFA3
:10081C0001204870907840B101200871DFF844093C
:10082C000078002818BF01204871D07848B100200A
:10083C002BF076FAD4E90121C0F34030C8710120C5
:10084C008871107950B30120087201F10C002BF063
:10085C0067FAA1680882DFF80409007802281DD124
:10086C00DFF804090078C8B9DFF800590120A8475F
:10087C00A16848610220A847A16888610420A847A4
:10088C00A168C8610820A847A16808621020A84781
:10089C00A16848622020A847A168886260684279F4
:1008AC0032B1012281F82C20DFF8C4281288CA85C5
:1008BC00827932B1012281F83020DFF8B828128811
:1008CC004A86C27932B1012281F83420DFF8A82897
:1008DC001288CA86027A3AB1012281F83820DFF8F0
:1008EC009C28127881F83920427A3AB1012281F899
:1008FC003A20DFF88C28127881F83B20827A3AB1C2
:10090C00012281F83C20DFF87C28127881F83D2008
:10091C00C27A3AB1012281F83E20DFF86C281278B5
:10092C0081F83F20027B3AB1012281F84020DFF8A8
:10093C005C28127881F84120427B3AB1012281F87F
:10094C004220DFF84C28127881F84320827B3AB1A0
:10095C00012281F84420DFF83C28127881F84520E8
:10096C00C27B002A00F0C08601201122002681F8EB
:10097C0046000BAD812000212B462BF0E5F99DF8AC
:10098C002C00A168002881F8470000F090862CF01C
:10099C006AF9A1680028886400F0A1869DF82C20D3
:1009AC00691C2BF09FFB00F09EBE254655F8040FEA
:1009BC00002800F02F8600216170017841B1407849
:1009CC00DFF89C270121107063202BF0D1FE2868E2
:1009DC00017941B14079DFF88C27012110706D202D
:1009EC002BF0C6FE28688179002900F07C84C1793F
:1009FC004FF400500CF06AFE00F089BC60680028CF
:100A0C0000F0088690F9005028462AF0B3FAA06846
:100A1C00002800F0FD85E9B2017000F0F9BD6068B6
:100A2C00002800F0F785002161702A212CF022F8B3
:100A3C00DFF810576068DFF860670822E98A0180E8
:100A4C00A98C8181698BC182DFF85017097881727A
:100A5C0005F139010E30B04767682BF035F80146C7
:100A6C00B81C0822B047606805F11C010822183038
:100A7C00B0476068297E012280F82310DFF8201728
:100A8C0080F821208978CB0718BF80F824208A07AA
:100A9C0044BF012280F825204A0744BF012280F878
:100AAC0026200A0744BF012280F82720490644BFAC
:100ABC00012180F8281000F0AFBD6068002800F01C
:100ACC00A98500782BF060FE00F0A2BD60680028BC
:100ADC0000F0A0850088002110F084FA00F09CBD85
:100AEC006068002800F0968530462AF0CFFD054658
:100AFC00002800F01485E888DFF8A81640F00C00F8
:100B0C00E88002202BF044F8DFF89C1603202BF031
:100B1C003FF840F20110ADF83100606801680079CF
:100B2C000B918DF830000BA820F0EAFB00F073BDA0
:100B3C006068002800F06E850BAD011D0822284668
:100B4C002BF0D0FA032029F0F7FD6068C07B27F06A
:100B5C0095FADFF84C0683786068418886890278BC
:100B6C00807BCDE90060284614F062FE00F053BD96
:100B7C007C052043010102066768002F00F04A85BE
:100B8C002BF09DFE0546002800F0DA84387828B159
:100B9C00E988787821F001010843E880B87830B111
:100BAC00E988F87821F0020141EA4000E8803879C0
:100BBC0030B1E988787921F0040141EA8000E880BD
:100BCC00B87930B1E988F87921F0080141EAC00020
:100BDC00E880387A30B1E988787A21F0100141EA5E
:100BEC000010E880B87A30B1E988F87A21F0200159
:100BFC0041EA4010E880387B30B1E988787B21F0FD
:100C0C00400141EA8010E880B87B28B1A968F87BE4
:100C1C0021F001010843A860387C38B1A968787CC0
:100C2C0021F00201002818BF0231A960B87C38B14C
:100C3C00A968F87C21F00401002818BF0431A960D0
:100C4C00B87D38B1A968F87D21F01001002818BFD3
:100C5C001031A960387E38B1A968787E21F0200166
:100C6C00002818BF2031A960B87E38B1A968F87E79
:100C7C0021F04001002818BF4031A96097F82200EC
:100C8C0048B1A96897F8230021F48061002818BFA7
:100C9C0001F58061A96097F8260048B1A96897F81A
:100CAC00270021F40051002818BF01F50051A9605C
:100CBC0097F8280048B1A96897F8290021F48041D9
:100CCC00002818BF01F58041A96097F82A0048B1A7
:100CDC00A96897F82B0021F40041002818BF01F5F2
:100CEC000041A96097F8340048B1A96897F835001D
:100CFC0021F48011002818BF01F58011A96097F824
:100D0C00380048B1A96897F8390021F4800100280F
:100D1C0018BF01F58001A96097F83C0048B1A9689B
:100D2C0097F83D0021F08071002818BF01F1807107
:100D3C00A96097F83E0048B1A96897F83F0021F0E8
:100D4C000071002818BF01F10071A96097F84000EC
:100D5C0048B1A96897F8410021F00061002818BF3C
:100D6C0001F10061A96097F84200002800F054845A
:100D7C0097F84310A86800290CBF20F0805040F071
:100D8C008050A86000F048BC6068002800F04284E5
:100D9C008178002900F0E783C2780321002A08BF7C
:100DAC000121E1E36168002900F0348408888A7825
:100DBC0001211CF037FB00F02EBC02206070606833
:100DCC00002800F029844188007824F0F1FF0028E5
:100DDC0040F01E8400F020BC6068002800F01A84EB
:100DEC0000216170007825F017FE00F015BC6068DA
:100DFC00002800F00F84A168002900F00B8400216A
:100E0C00617000782AF0EEF8A168087040002BF0B1
:100E1C002AFF0146D4E901025160007829F084F8D8
:100E2C00FAE36068002800F0F583A068002800F061
:100E3C00F1830026C0E9006660684188007828F0DC
:100E4C0029FC002800F0CF8366700546A168008855
:100E5C000880A8780028887000F0DE832BF003FF50
:100E6C00A1680028486000F0D7838A78E91C2BF031
:100E7C0039F9D1E36068002800F0CC830021CDF86B
:100E8C003A10CDF83610CDF83210CDF82E1002797C
:100E9C004188ADF82C105AB1816849B10F2A28BF8E
:100EAC000F228DF82E200BA803302BF01BF9606855
:100EBC0000780BA901221EF091FDACE32AF0A4FEF0
:100ECC00A9E36568002D00F0A5832F7838462AF039
:100EDC00E9FB002800F05183D0209CE360680028D7
:100EEC0000F0988300782AF0DDFB002800F0928354
:100EFC000546007B26F0F8FA0028607040F08C83E1
:100F0C00DFF8E00A4168002900F0868300220C46D5
:100F1C002346002C00F0CD83AB4200F0CA831C6842
:100F2C001A46F5E76668002E00F07483357D284676
:100F3C002AF0B8FB002800F06D83307F102141EAC5
:100F4C004007717F002908BF4700B07F002818BFF9
:100F5C0047F00807F07F002818BF47F0200796F8E5
:100F6C002000002818BF47F0400796F82100002801
:100F7C00284618BF67F07F07D6F818802BF022F9A7
:100F8C00002800F0478305466068827A01788DF866
:100F9C00352082898DF83410ADF836204A1E022A8D
:100FAC0005D3032900F046840F2940F0488441887A
:100FBC00ADF82C1000F043BC61680220002900F051
:100FCC002A830A888DF834004988ADF82C200BA8A8
:100FDC0002221DE061680220002900F01C838DF8BC
:100FEC003400002308880A794988ADF82C000BA836
:100FFC0028F052FF0FE361680220002900F00B83F8
:10100C008DF83400052208884988ADF82C000BA80F
:10101C00002329F093FFFEE265680220002D00F00A
:10102C00FA828DF834002E7B00272888AB79AA88A9
:10103C006988ADF82C00A8682D69CDE90006CDE9CA
:10104C0002570BA817F0DAF8E5E265680220002DCC
:10105C0000F0E1828DF83400EE682F7C4FF0000C2C
:10106C002888EB8869882A79ADF82C00287A6D6974
:10107C008DE8C100CDE9035C0BA817F067F8CAE254
:10108C006168002900F0C68202208DF83400887B4C
:10109C000D88421E8DF82400022AADF82C5005D381
:1010AC00032800F0A2820F2840F0A482088AADF831
:1010BC001C009FE26068002800F0AC8202218DF8D1
:1010CC0034100188ADF82C10817B4A1E8DF8241049
:1010DC00022A05D3032900F0B0820F2940F0B38215
:1010EC00018AADF81C10AEE26068002800F0928214
:1010FC0002214FF6FC728DF8341001888A1A032AEB
:10110C0011D8022A0FD02BF0E3F9ADF82C0060684F
:10111C000021837AC27A0091811C0BA824F0D0FDA7
:10112C00607060680188ADF82C10837AC27A002157
:10113C000091811C0BA824F0C3FD6CE228E902008D
:10114C00176E0020C85E0020102500200E25002000
:10115C000C25002080200020BF2600202425002004
:10116C00FA260020466E0020FF26002079FB0100A5
:10117C00AA260020A6260020AE260020F02600205D
:10118C00ED260020E2260020EE260020F926002085
:10119C00E3260020FC260020F1C00200C025002020
:1011AC00946C00206D620200B9BD020062680220DE
:1011BC00002A00F030828DF83400002310889178DA
:1011CC00D278ADF82C000BA820F026FA23E2616847
:1011DC00002900F01F82CA7A887A0B7B4D7B002A8B
:1011EC0018BF40F00200002B18BF40F00400002D87
:1011FC0018BF40F008008A7B002A18BF40F040005E
:10120C000023C2B20888023125F096FB03E2606825
:10121C00002800F0FF81A168002900F0FB81007814
:10122C000BA929F03FF80020BDF82C206070D4E900
:10123C000101A1F8012000780870EDE16068002838
:10124C0000F0E881B0F80110ADF82C1000780BA973
:10125C0029F09EFEDFE16068002800F0DB81017A56
:10126C00427A00231FF024F8D5E16068002800F0D2
:10127C00D1818178C2780088002326F077FFCAE1FB
:10128C00022506E002266670C6E128F0FAFFC3E1EB
:10129C0000256570C0E126F099FF0BAA28461121A4
:1012AC002BF066FAB7E100F10C010BA810222AF022
:1012BC0019FF6068D0E907120430CDE90F1207A9B5
:1012CC0028F0FCFD0028607000F0FE816168488801
:1012DC0004310BAA21F093FC9DE101302AF035FB7F
:1012EC0099E1012097E1017A89B1C168008A42072E
:1012FC0001D064290BD315F025FA002001210CF044
:10130C00E5F9DFF8E826352028212BF031FA28689A
:10131C00817C41B1808ADFF8D826022110804420DC
:10132C002BF026FA2868817D41B1008BDFF8C426AA
:10133C000221108046202BF01BFA2868817E41B1D7
:10134C00808BDFF8B4260221108083202BF010FA5A
:10135C002868817F41B1C07FDFF8A0260121107081
:10136C0029202BF005FA286890F8201049B190F844
:10137C002100DFF88C26012110702B202BF0F8F9BE
:10138C00286890F8221049B190F82300DFF87426F1
:10139C000121107043202BF0EBF9286890F82410F1
:1013AC0049B190F82500DFF86026012110702E203D
:1013BC002BF0DEF9286890F8261049B190F8270038
:1013CC00DFF84826012110702F202BF0D1F9286866
:1013DC0090F8281049B190F82900DFF83426012143
:1013EC00107030202BF0C4F9286890F82A1049B1FD
:1013FC0090F82B00DFF81C26012110702C202BF00C
:10140C00B7F9286890F82C1089B190F82D20102A83
:10141C0028BF1022016B8DF82C200BAC601C2AF01D
:10142C0061FE8120112122462BF0A2F9286890F848
:10143C00341049B190F83510102928BF1021826B57
:10144C0062202BF095F9286890F83C1041B1006CA3
:10145C00DFF8C4250421106084202BF089F928685A
:10146C0090F8441049B190F84500DFF8B0250121FF
:10147C0010704B202BF07CF9286890F8461069B15D
:10148C00DFF89C4500F14701082220462AF02AFE8D
:10149C004720082122462BF06BF9286890F84F1052
:1014AC0031B100F15002012008212BF061F92868BC
:1014BC0090F8581041B190F859008DF82C000BA9F8
:1014CC00522023F07BFA286890F85E1049B190F80E
:1014DC005F00DFF850250121107033202BF048F904
:1014EC00286890F85C1059B190F85D00DFF8382549
:1014FC000121107032202BF03BF921F0BDFD286842
:10150C0090F86010002900F0878090F86100DFF8F7
:10151C00D4144870DFF8C81481F868007CE01C20F3
:10152C002BF0A1FB002877D01C2105462BF0A2FA4A
:10153C0028462E7126F08EF800287FF4DCAA91E064
:10154C001C202BF090FB002866D01C2105462BF0AC
:10155C0091FA28462E7126F07DF8002800F0828042
:10156C006768FFF713BB002103794279002B18BF82
:10157C00403100880FF058FA4DE02AF09FF8DFF860
:10158C0064140978884270D22BF099F920B1814605
:10159C00007B002800F08D811C202BF064FBD8B35D
:1015AC001C2181462BF066FA89F804604FF0010883
:1015BC0065682F787FE1013007A928F07FFC607007
:1015CC0050BB07980021182240880BAB2AF0BCFBBB
:1015DC00607008BBA068DDE90F12C0E90712093082
:1015EC000BA9FEF70DBEB12015E0103107A82BF0AA
:1015FC0093FA6168DFF8E803C08A854210D1887AD3
:10160C000A7E0C310123009107A90AF035FF08B1BD
:10161C00002000E002206070012028B0BDE8F087B7
:10162C0088890A7E8B7A07AE0025CDE90006CDE9C4
:10163C0002258A1C0BA9212011E000F1100107A83A
:10164C002BF06AFA60688189027E837A07AE0025E6
:10165C00CDE90225CDE90016821C0BA922201CF035
:10166C0079FDD8E728462BF0FCFAD120D3E7374692
:10167C003546012DD0DB60680822011D48462AF052
:10168C0031FD60681422D0E90710CDE90B10B9B216
:10169C000BAB042008E00BAD142128462BF0EAF923
:1016AC000420314614222B4627F0CEFBB3E78E6480
:1016BC0019E0AB42B0D1A94208BF021D28681060E6
:1016CC002846E2E0C820A6E70798182140880BAA14
:1016DC00E6E5A068DDE90B12C0E907129CE70020E3
:1016EC00886481F847006068007C70B110202BF092
:1016FC00BAFA0346A06803653BB10121102280F8B9
:10170C004C10622000212AF01FFB6068417C31B133
:10171C00A168012281F85420BF4A12688A65817C35
:10172C0039B1A168012281F85C20BC4A127881F899
:10173C005D20C17C51B1A0680121082280F85E10A7
:10174C00A7495F3039312AF0CDFC6068017D59B171
:10175C00A568012085F867002AF0B6F9014605F165
:10176C0068002BF0D9F96068417D79B10BA9522042
:10177C0027F070F9A068012180F870109DF82C10EA
:10178C00002918BF012180F871106068817D19B1A2
:10179C00A1680122A1F87220C17D51B1A16801227A
:1017AC0081F87420A04A1278002A18BF012281F80F
:1017BC007520017E39B1A168012281F87620994A01
:1017CC00127881F87720417E51B1A168012281F80D
:1017DC007820844A5278002A18BF012281F8792097
:1017EC00807E00283FF418AFA168012081F87A00B0
:1017FC007B4991F82610082918BF042916D0A1B9E5
:10180C0021202BF047F974280FD10BAB212000219C
:10181C0074222AF099FA9DF85210043901F0FB0158
:10182C000843B0FA80F0400900E00020A16881F87C
:10183C007B00F1E6811C0BA82BF06EF96068817BB4
:10184C0031B348002BF00FFA88B3616806460022CA
:10185C00887B904206D00B6933F8123026F8123090
:10186C000132F6E78B8CCA8AD1F828C091F8221085
:10187C00FFB2CDE90406CDE90271CDE900C80BA891
:10188C00294622F037FE607030462BF0EAF9C3E6A9
:10189C00838CC28A816A90F82200FEB2CDE90018CE
:1018AC00CDE902600BA8294608F024FCB3E6102011
:1018BC00B1E64FF000084E4606F80C7F287A3073DC
:1018CC004948706014202BF0CEF90028B06045D048
:1018DC0014212BF0CFF86268D9F814005268817982
:1018EC00927901F0F00102F00F02114481716168EC
:1018FC00D9F8140049680A780270D1F80220C0F8AF
:10190C000220CA79C271097B017350002BF0ABF92C
:10191C00D9F81410886060B1CA7900239A4208D0B3
:10192C0065686D68AD6835F8135020F813500133B5
:10193C00F4E7087B40002BF096F9D9F814100861F5
:10194C0060B1097B0022914208D063685B681B6917
:10195C0033F8123020F812300132F4E7304628F018
:10196C00D1FAB82802D00746022806D1307825F0E3
:10197C00BBFD304628F0C6FA074637B1B8F1000F68
:10198C000FD048462BF06DF923E0B8F1000F3FF46F
:10199C0043AE484625F05EFE00287FF43DAE484637
:1019AC0073E7D9F8140078B1816821B108462BF09F
:1019BC0058F9D9F81400016921B108462BF051F9F6
:1019CC00D9F814002BF04DF90020C6E90000C6E947
:1019DC000200B82F3FF480AA022F3FF47DAA1BE629
:1019EC00C85E0020802500208557002074680020E8
:1019FC00AA260020A6260020AE260020F0260020D5
:101A0C00ED260020E2260020EE260020F9260020FC
:101A1C00E3260020FC26002094260020DF26002050
:101A2C00B8250020E7260020E82600202DE9F04FFD
:101A3C0099B080466FF007000DF11C0B063098F83A
:101A4C0008105A46ADF85200D8F8040011F04AFCC0
:101A5C00002800F0B5809DF81E609DF81F409DF891
:101A6C002070BDF826502AF02DFD844240F0A8804D
:101A7C0025F003004FF6F87480B2A04200F0A0806D
:101A8C00012F00F29D80022E80F09A80B8F8280079
:101A9C00ADF84800B8F83200ADF82A009DF82200E5
:101AAC00D0B1D8F804109DF81D209DF838300120D5
:101ABC0029F0E2F908B1CF2083E0DFF85807C078AD
:101ACC00012809D1B8F828002AF094FF20B14179F7
:101ADC0001F0E701083141719DF8210068B1BDF8B2
:101AEC002610FF2027F0D6FD9DF82110D8B141F02B
:101AFC0001012C268DF8211016E09DF839000028E4
:101B0C0064D09DF83D10FF2902D0002940F0ED80F3
:101B1C00DFF80407BDF82620C18A8A4240F0EE8027
:101B2C000120222607E0082601F00300012808BF47
:101B3C0046F0110601203746B107DFF8DC9658BF96
:101B4C0067F07F07002808BF37469DF8220030B9A0
:101B5C0099F80B0018B107F02200222813D117F0C6
:101B6C00400A58D0119899F80E200178920718D491
:101B7C000C291BD8012241F290438A401A4245D1CC
:101B8C00032940D012E0F8B200F0420042287FF462
:101B9C0092AF1198007800F0FE0006287FF48BAF0E
:101BAC00DDE7A1F10C0212F10C0F2AD8B9F81600DE
:101BBC00BDF82620824203D1BDF8280026F056F944
:101BCC00D32017F004FB19B0BDE8F08FBDF8260048
:101BDC0024F00EFD0238DFF84016B0FA80F0CA8A05
:101BEC004109BDF82600904208BF0231002900F0DF
:101BFC008C809DF81E20002A00F03A8101F14007EC
:101C0C0038E1032902D140780D2804D007A823F02D
:101C1C002BFF0128D7D0B9F82400B8F84410814222
:101C2C000AD198F84620B8F84210B8F828000023DA
:101C3C00009300230FF0F8FF9DF82200E0B1B8F8F4
:101C4C004210B8F8280026F0F9FBB8B30646D8F8CD
:101C5C0004009DF81D10F2780844417B8A421EBF97
:101C6C0000227260F1700130042127F0F3F97168E1
:101C7C008842A8D30130706099F80E008007A2D575
:101C8C009DF84D0058B1BDF8280029F0A3FB0028A1
:101C9C006FD0D8F80400417801F0DF0141709DF855
:101CAC002E00A0B3D8F804008179013981718DF828
:101CBC002E1007F07F0009062CD12AE09DF84D006C
:101CCC00002841D0042027F0C7FF00283FF47BAF49
:101CDC0001464FF4B2700880B8F828004880DFF84D
:101CEC003C0500781FF090FB6DE7109A9DF83C00C6
:101CFC0022F0BAFD30B1012000261CE790F8260036
:101D0C000428F8D10026002015E70027B2E007F0E0
:101D1C007F000746390702D44FF0000A49E0F9B2B8
:101D2C004A0737D4C9069DF821103DD5C1F382026C
:101D3C0012B1072A18BF013A002A08BF074601F062
:101D4C00E30040EA82012DE099F86C0001287FF451
:101D5C0093AF11980078062803D1BAF1000F7FF4E5
:101D6C008BAFE01DBDF82A1080B281423FF42BAF3F
:101D7C0044E1D32017F02BFADFF8A40400780028F4
:101D8C0000F0AD80DFF89C1451F82000C0EB00107F
:101D9C008100A6E09DF8210000F0E00100F0E300D6
:101DAC0040EAD1018DF82110D8F804004FF4805A84
:101DBC00017299F82600092801D0042829D1B9F814
:101DCC001610BDF8260088420AD024F011FC022817
:101DDC0006D09DF8210000F0030001287FF4F3AE3B
:101DEC009DF81E0000285BD011989DF838100078E3
:101DFC00042808BF02296DD0072808BF042900F069
:101E0C00838003287FF4DFAE07A8002112F074FD55
:101E1C00D9E6FEB217F0610F49D0F00708D0B8F838
:101E2C00281007A816F096FF002871D007F09F071E
:101E3C000025FEB2B80605D529F050FD07A815A956
:101E4C0006F0B0FA700640F13981B8F8281007A8EE
:101E5C000DF152022B4611F0C1FA002800F08180DE
:101E6C00054611980078012808BF4AF0100A25E1B0
:101E7C0001F1200724F0BCFB0138B0FA80F04009D6
:101E8C0047EA00069DF81E0000283FF453AE119857
:101E9C00007829F0DBFA012818BF07F07E0649E626
:101EAC0029F01CFD07A815A906F07CFA8BE69DF815
:101EBC001E00012864D111980078032853D00528FE
:101ECC005ED1B8F8281007A80DF15202002311F0CA
:101EDC0085FA78E607A9002012F082F973E6D1485A
:101EEC000168D1480268BDF82800904701287FF4AA
:101EFC006AAECE480168BDF828008847CC48016816
:101F0C00BDF8280088475EE607A819F0BDFA5AE626
:101F1C0028F0C2FA9DF82E100546BDF8280021B90C
:101F2C00B8F8281088423FF484AFB9F816108142F3
:101F3C0004D1B848807800283FF47BAFB8F828105B
:101F4C0007A82A460AF0CEF9002800F09E80300738
:101F5C004AF0040ABDF8260048BFE01DADF8520057
:101F6C0067E70025AAE0BDF8260029F033FA38B15E
:101F7C00B8F8281007A80DF15202002311F02EFA20
:101F8C009DF82E0088B325F005FD00287FF41BAECC
:101F9C009DF83900B8B3109A9DF83C009DF83D109F
:101FAC0022F062FC002873D09DF83D00002878D008
:101FBC0010992AF0A7FC9DF82430ADF8520011209E
:101FCC009DF823209DF821104AF0400A002B08BFF1
:101FDC000920002A18BF0830002918BF0130D8F892
:101FEC0004100A5C013A0A5465E09DF81E000128B1
:101FFC0004D11198007803283FF4E5AD07A84146B9
:10200C001FF01AFDDFE59DF82010BDF82600002911
:10201C00ADF8520000F0CF804020BDF826100BF137
:10202C001D0200EAC7099DF820004B461AF074FA0D
:10203C0038B1D8F804004AF0200A017801F03F01C9
:10204C0001709DF8390048B1BDF826100BF1200045
:10205C0023F0ECFC4AF0400AADF852009DF81E004B
:10206C00012806D0BDF82810BDF82600002216F075
:10207C00D1FABDF82810BDF826004A4613F0AEFE82
:10208C00002818BF4AF0200A15E007F0DF07CFE65A
:10209C00BDF82610BDF828000B2200231BF0D0FE43
:1020AC0091E5BDF82600ADF852002AF0A3FC0028FB
:1020BC0008BF4AF0400A28F0EFF90546A01DBDF80C
:1020CC00521080B20E1A5B4818BF2E4600780128B9
:1020DC0005D1E01DB8F8321080B281422ED178B211
:1020EC00B0F1FF3F3FF76FAD002E3FF46CADB8F889
:1020FC0008002AF0B8FD00283FF465ADB8F80820B8
:10210C00D8F80410054629F0EDFF9DF81E100020AC
:10211C0098F80830B8F8282016908DF85410BDF8AF
:10212C00521015ACCDE9006ACDE90204284614F032
:10213C002FFC68B328462AF094FD44E5B8F8281023
:10214C008142CCD0601CBDF8262080B28242C6D21F
:10215C00BDF828008142C2D02AF04CFC0028BED029
:10216C00017901390129BAD8408801218DF8541020
:10217C00ADF8600015AD284620F074FA0028AED0FA
:10218C00281D1EF0E1FF0028A9D027F00BFAA6E7C6
:10219C002048407800283FF416AD00208DF81860D8
:1021AC00ADF81900DDF826004FEA3040059005A87F
:1021BC0029F0C0FD07E531073FF52EAF9DF81E1045
:1021CC0001293FF429AF00211AF066F920B14079BA
:1021DC0001380228FFF420AFB8F84410BDF85200C3
:1021EC0026F02CF930B1807828F0E6FB013807286E
:1021FC00FFF412AFBDF8280029F0ECF818B1042058
:10220C008DF8200008E7BDF82610BDF82800022242
:10221C0043E700BFE8240020C85E0020176E0020B2
:10222C00F1260020D0E202004C2200205422002093
:10223C0050220020FD2600202DE9F04F8FB00C46D7
:10224C00480718D4200471D4E00400F1CC81200696
:10225C0000F1EA81A00700F10082200500F1348230
:10226C00600600F13482A00400F16682600400F183
:10227C00A882002017E2DFF8D8050178062900F2C1
:10228C001082DFE811F00700C0010E020E020802F6
:10229C000E02C501DFF8BC6596F837104A0700F14D
:1022AC00C8818A0700F1ED81090740F1FA81062106
:1022BC00017096F83A00002800F0C68221F0DCFE8E
:1022CC00002800F0C1820546F0684068407880071D
:1022DC0040F19582287804AB0321002223F0D1FA37
:1022EC00002800F07A8206980188B42916D8B42107
:1022FC004FF47A720180DFF860054FF400510078DA
:10230C002AF019FCDFF85805016839B1DFF85405DB
:10231C000078FF2814BF2878FF208847F0684068B1
:10232C004078C00740F0628209205CE2DFF83C058F
:10233C00DFF82475DFF818A5DFF8445548F20408D7
:10234C0048F202094FF6FE7B0088029038781EF0A6
:10235C0067FB002800F0448106460078D3280DD195
:10236C00F089404537D0484539D048F201018842C0
:10237C0040F01C81304617F04DFF17E19AF8001021
:10238C00884219D1012856D0032840F00F81DFF87C
:10239C00CC0400780138012800F20881B0780128BB
:1023AC0077D0002840F002817078002800F0BE80C1
:1023BC00002020F06FFAF9E00A2840F0F780DFF8EF
:1023CC00941491F837003071096A002900F0EE80FE
:1023DC00B01C8847EAE030461BF064FFE6E0DFF80B
:1023EC0094040078002800F0E1809AF8000001289D
:1023FC0040F0DC8029F0CEFD002840F0D7807088BA
:10240C00002840F0D3800AAD122128462AF032FB76
:10241C002AF00AFA304629461AF0AAFDBDF8340013
:10242C00B0F5285FC0F095800120022120F0ECFF70
:10243C00DFF84C54BAE0DFF82404007801380128A6
:10244C0000F2B4807078DFF80C2460B192F83C0094
:10245C0092F83D10013082F83C00C0B2884202D99B
:10246C0001200021A0E09AF80100032834D00228B2
:10247C004BD0012840F09A80DFF8F8030078002850
:10248C0000F08C8029F086FD002800F0938001205C
:10249C0085E07078002851D02AF01AF85845DFF8FA
:1024AC00D8B34FF6FE7103D1BBF81600884207D0A3
:1024BC00ABF81610ADF81010532004A922F07EFAD8
:1024CC0021F090F928F008F800208BF826001FF076
:1024DC0003FE4FF6FE7B69E0AB4604ADAB2000215A
:1024EC002A461EF005FE04200A955D464FF6FE7B3B
:1024FC008DF82C000AA811F001FE2AF095F9387815
:10250C004FF4805141F2883220E0012050714FF499
:10251C008060ADF8100004A81BF09FF92AF084F934
:10252C00DFF84C034FF4805102680EE013F0E8F929
:10253C00C848406AD0BB1FF0CFFD37E002204FF4F3
:10254C00805140F6B8328AF8020038782AF0F3FA53
:10255C002CE0CA480DF10F01006804AA19F03CFAEE
:10256C0001460298C64D814213D29DF8200010B14D
:10257C00FD208DF820000420142204AB8B4626F09D
:10258C0063FC0BEB4B004FF6FE7B012105EB80004F
:10259C004172B048002180F83B1003E00020AD49A7
:1025AC0081F83B000120012102F072FE304628F038
:1025BC00EFFACBE6A74991F83E0020B1886A0028D3
:1025CC00F4D08047F2E70020002102220023ADF86E
:1025DC00100002208DF8180004A828F0AFFC8CE73E
:1025EC0084F400405FE09D4800780138012868D8E9
:1025FC009748017803295CD0012962D141780020E9
:10260C0020F002FF5DE00120012120F0FDFE48E0FA
:10261C000021322201708F4880F836108E48042138
:10262C0000782AF088FA3CE014F03CFF84F080003B
:10263C0039E00521017096F83810890736D596F8DF
:10264C003A1099BB052101600120B070002020F0E8
:10265C008FFE022027F07AFC23E0804800780138B6
:10266C0001280BD80020CDE9040004A816F07CFA50
:10267C0020B17948022100781DF08AFD84F0020017
:10268C0011E00421017096F83810C90709D096F8AA
:10269C003A10002942D028F0A8FA0420012102F0B7
:1026AC00F7FD84F004000FB0BDE8F08F0520002189
:1026BC00F5E78178022904D101218170002021F0F5
:1026CC00B7FC84F48050EEE784F40060EBE721F073
:1026DC00D3FCD0B15F4F054638780138387000060E
:1026EC0016D05D4E4FF48041307823F053FA30B958
:1026FC00386929F07FFD10B928781FF011F830786F
:10270C00402143F698222AF016FA5248007810B964
:10271C000B2029F067FD84F04000C4E74F4909788D
:10272C0001390129BDD8032101600120B0700120BD
:10273C0020F01EFE01208DE7464EDFF81C91DFF8DD
:10274C0020A100250DF11008002006F108070290C9
:10275C003F6857B3D7F804B09BF800000028F7D0B7
:10276C00F028F5D803210022434623F08AF80028EC
:10277C00EED006980188A1B94FF4407086F8365017
:10278C002AF0A2F899F800000AA92AF063F9DAF8FD
:10279C00001086F836500029DAD09BF800008847E4
:1027AC00D6E7013901800120D1E7029999F80000A0
:1027BC00C9070BD04FF400514FF47A722AF0BBF9D1
:1027CC0008E012F08FFE84F480406CE74FF4005167
:1027DC001FF032FB84F4005065E7F06840684078E5
:1027EC00C0070CD10E2029F0FDFC08E040F20930A6
:1027FC002AF06AF8184800780AA92AF02BF9F06830
:10280C0040684078C1073FF44CAF17490968C1B123
:10281C0028781EF085FF10B10E2029F0E3FC0E4D38
:10282C000C20402143F69822307028782AF083F946
:10283C0040F20A302AF048F828780AA92AF00AF956
:10284C002FE780073FF52DAF0E2029F0CBFC28E7B2
:10285C00746D0020542000201E6E002024250020C2
:10286C0078260020BA260020CC22002028E902007D
:10287C0084260020D1260020C85E00204C6D00204C
:10288C00C06800202DE9F04F89B024F04DFADFF834
:10289C0010158122DFF81485DFF814A5DFF8204528
:1028AC00DFF814E50A70DFF8FC140860DFF8F804B0
:1028BC00FF2101700020DFF80415A8F800008AF849
:1028CC000000DFF8F0040968007891F808B04FF6C2
:1028DC00FE718EF8000059448AB2A168D1F800311B
:1028EC00DB899A4200F267810422DFF8DC54A8F8F5
:1028FC000020DFF8D02412689668330ECEF80C60F6
:10290C00C6F301592B706FF0FF0303EA1627B3B21D
:10291C00D1F8B86047EA1327AEF8047036781EB9C0
:10292C00B9F1020F00F04781B9F1030F00F04381B8
:10293C001B0A03F0070316B1002B00F03C81DFF8F3
:10294C008CC4042B9CF800C008BFBCF1000F00F035
:10295C0032813EB1DFF878643678862E02D1022BB4
:10296C0040F02981BB0416D4BBB203F00703022B41
:10297C0008BFBCF1000F20D0DFF854140978862969
:10298C0009D10020764624F007FADFF84004B64659
:10299C0090F800C0307800284ED0BCF1000F4BD11D
:1029AC00012800F0088103283FD0022844D1BEF84A
:1029BC000400400740F0FF803EE0D1F8D40090F8CE
:1029CC008300022800F0808027460520147BF24605
:1029DC00A946A8F8000029F05DFD0546DFF8F003D4
:1029EC00007886286DD1B868016C096811B9D0F8E7
:1029FC004C05804760B2002100262AF07FF9B968A7
:102A0C000A6C12685077086C00688677086C00684E
:102A1C00C47728462AF062F8BAF8041099F8000036
:102A2C0001F010011FF02AFC4EE0BEF8040000F08B
:102A3C000700032840F0BF80BEF80400010700F136
:102A4C00BA80810402D4810500F1B5809EF80E2075
:102A5C00C2F38107012F00F0AE809609012E00F021
:102A6C00AA80B9F1010F11D840F0020101F0070161
:102A7C0003290BD117B93F2A40F29D8037B9A168C1
:102A8C00D1F8AC100978002900F095804FF6FB7155
:102A9C00B9F1020F0BEB010C19D1CF4BD95D9B5D3A
:102AAC0003EB01090023402AB7FA87F238BF012350
:102ABC0052091A40430616D4002A08BF09F102092C
:102ACC0015E028462AF00AF828F042FB75E0C14BC5
:102ADC00402AD95D9B5D03EB010908D3420648BF30
:102AEC00A9F1020903E0002A18BF4FF00209C0F354
:102AFC0000205FFA89F11FFA8CF30A1A8EF8010094
:102B0C009A4258DC60440391B346401AA168AEF86F
:102B1C0006007430D1F8501280B28847A6490028BC
:102B2C00886048D07421CDE9019729F0A3FFA24F0A
:102B3C000020B870A548007820B9387900F0200042
:102B4C008AF8000078789AF80010DFF878C24FF015
:102B5C0000092E4600299A493DD000284FF000006C
:102B6C003AD1B88800F00700032807D0012832D1E9
:102B7C008868D0F8D40090F8820060B3C8684069C7
:102B8C00007818B128F096FFFE280DD08C4880688C
:102B9C00D0F84C02804738B989488068D0F8440294
:102BAC008047002800F0F780834F0120B870DFF8D1
:102BBC0014C22E4610E028F0C9FD29F06BFC8149A7
:102BCC0000240A6813681C7112680A6029F086FFD9
:102BDC0009B0BDE8F08F0020BC6804F1740184F8E2
:102BEC0030B06160A1657978BB88FA880029A3812F
:102BFC00029B228184F83A30337808BF994697F8C3
:102C0C000EB084F84990019DA4F85C20FF22B8F81E
:102C1C000030A273CBF301195E1A797BA8F800601F
:102C2C0001F0780160F3820101EB090020742806A1
:102C3C0000F0AE80DCF8000004AF039A10FA86F0C6
:102C4C0000F1080138462AF037F856FA85F0CBF334
:102C5C008105A8F80000207C00F04008CDB3B9F144
:102C6C00020F06D1B8F1000F03D0B4F8440004AF42
:102C7C0006E0BDF810000237A4F84400A4F84200A6
:102C8C00564EF189884203D04FF6FF7188425ED1CF
:102C9C00032D11D104F13200394629F085FF464C41
:102CAC00F11CA068323027F041FB454900284ED07A
:102CBC0094F80EB008370EE037F8020BB189884251
:102CCC00608606D04FF6FF713B4C88423C493ED1A2
:102CDC0001E03B49384CBBF1400F20D3B9F1020F56
:102CEC0006D16DB9B8F1000F0AD13348806803E002
:102CFC00A068017C490603D439880237A0F8421039
:102D0C00BBF1C00F06D32C4C3946A068283029F0F3
:102D1C004BFF03E0284C3888A1680885284989684E
:102D2C00A088D1F8AC201278B2B1B9F1020F13D24D
:102D3C0000F00700012802D003282FD11E4C6DB9DA
:102D4C00264AA368D289B3F84230934206D01BF0CE
:102D5C0048FD1BF04FFB30E700F00700032806D0BE
:102D6C00012815D1D1F8D40090F8820080B1A06868
:102D7C00D1F848128847104A50B90020D17B907086
:102D8C00907BC1F3011100F078000844916808743D
:102D9C000BF02AF811E7084FB87808E7064CDDE786
:102DAC002F6E0020BC6D0020346E0020066E0020BB
:102DBC00326E0020316E002008240020F06D0020BF
:102DCC000C010020386D0020416E0020406E002068
:102DDC00376E0020D0E80200CCE80200646C0020C2
:102DEC002DE9F04F97B0DFF80C850546DFF8086544
:102DFC0098F800000328307040F04981002088F8D2
:102E0C00000030700DAC204629F0DAFE204600217F
:102E1C0028F0BAF9DFF8E494B0604621484629F06E
:102E2C0029FE4FF0FF30A9F81400C9F81000C9F8BA
:102E3C000C0025F05FFD0020294620F025FF06F14F
:102E4C001001F06029F059FED6E90502DFF8B074E4
:102E5C00B0FBF2F1C9B2042928BF0421B2F5005F1E
:102E6C0089F80010397040F00F81B0EB413FC0F091
:102E7C000B81F068002800F007814FF40050FF220E
:102E8C004FF000084FF0885BA9F80600FF2089F886
:102E9C00032089F8058005900020089000200B90F5
:102EAC0000200990002007900020069000200A9036
:102EBC0000200C90FF200290FF200490FF20039034
:102ECC00CCB2A04580F0E6805FFA88F6002116AA05
:102EDC000423304629F0C6F8DFF82C443046002194
:102EEC0015AAA0473046012114AAA047304602215A
:102EFC0013AAA04716996FF06F0050FA81F2C8B26E
:102F0C000E2A06D8012303FA02F245F201131A42E3
:102F1C0003D1A0F1FE02022A04D242F28352B2EB98
:102F2C00914F1ED0304616F0D1FEDFF8CC1300289E
:102F3C00087040F0CF803046002116AA042329F0F7
:102F4C0091F8DFF8C4433046002115AAA04730465B
:102F5C00012114AAA0473046022113AAA0471699B2
:102F6C00C8B208EB48023D46CA4609EB8204C1F3DD
:102F7C000142090AE1759DF8561004F11609FD2865
:102F8C00627689F80000217601D9102136E0BDF86F
:102F9C0054104FF6FF72914230D10EA823F044FB2F
:102FAC00304600214FF088524FF400534FF4005735
:102FBC0029F058F86FF0030313FA87F7B8B250F8FA
:102FCC000B104A1C01D10328F6D801220126D3B2DA
:102FDC00042B06D8CBB2FF2B18BF16460132090AB8
:102FEC00F5E740F80B10C9480E9900684268C848CC
:102FFC00904757FA86F081B299F80000A1839DF8AA
:10300C0052107028A176BDF85010E1839DF84E1037
:10301C00E176BDF84C10218411D07828D14614D01B
:10302C007C282F4616D07E281AD0FE281FD0FF28C9
:10303C0023D10898CDF80C800130089020E00A9834
:10304C00D1462F4601300A901AE006982F460130DF
:10305C00069015E00798CDF81080013007900FE02E
:10306C000998013009901FFA88F0029008E00B983B
:10307C00CDF8148001300B9002E00C9801300C90CC
:10308C00397808F101081BE7012088F8000017B017
:10309C00BDE8F08F0C98984E00060BD10B98C0B27F
:1030AC00012807D80A98C0B2012803D80998C0B2E1
:1030BC00012811D99348042200240270CAB2E0B24C
:1030CC00904210D216F002FE317801340843397860
:1030DC003070F3E7884E1BE0089BD8B2A04219D1A0
:1030EC00884800220270002089F8030089F801004A
:1030FC00481E7E2189F80200B9F81C00A9F80600C8
:10310C00002024F0B9F899F80200FE2124F0B4F85C
:10311C003078BCE70A98000624D00B98059A000674
:10312C0003D1039A180600F0848076480221012707
:10313C00D5B289F80220017017FA82F0B0FBF4F1D5
:10314C0001FB140089F80100284616F0BFFD307011
:10315C002846FE2124F090F889F80570002000F034
:10316C00D9F8D5E70B98059A000621D065480121BE
:10317C0089F80220017011FA82F0049AB0FBF4F184
:10318C0001FB140091B2FF2989F801001FD10299AB
:10319C00FF2919BF89F8031001EB410089F80300DE
:1031AC0000EB400009EB8000808BA9F80600AFE72C
:1031BC00DDE90620104300063FF47CAF25F06EFBE2
:1031CC00A04280F085804F48032101703EE048000A
:1031DC0089F8032010FA82F009EB8000818B182902
:1031EC00A9F8061094D30739D0B20EAA89B219F0F7
:1031FC0012FC9DF843004007B0D5B9F80610BDF895
:10320C004620002399F8030000930323891A0EAA81
:10321C00073989B208F004FE00287FF479AFBDF8B5
:10322C00441000293FF474AF9DF848001FF040FE95
:10323C006EE725F033FB0621A042324838BF03214C
:10324C000329017002D0062952D061E725F026FB34
:10325C00054689F80C0000EB400009EB8000408B20
:10326C00A9F80D000FF0B0F939782844B0FBF1F251
:10327C0002FB110089F802000130C2B2B2FBF1F27C
:10328C0002FB110089F801007C2024F00FF8FF28C4
:10329C0012D17E2024F00AF8FF280DD1FF2024F053
:1032AC0005F8FF2808D1782024F000F8014699F899
:1032BC000100FF2918BF0846C1B289F80300490074
:1032CC0051FA80F009EB8000808BA9F806001AE710
:1032DC000898000609D099F80200FE213C463746B2
:1032EC0023F0CAFF2478039A40E7064806210170B0
:1032FC00FEE700BFB526002008220020B86300209E
:10330C00166E0020256E0020AFC20200D8010010FE
:10331C00004003402DE9F04F9BB00446DFF8080550
:10332C00406818B18047002800F03C82DFF8FC04AC
:10333C00DFF8FCB40B940DF1300A4FF0F80800786C
:10334C00411E002C09910BF1180418BF01219BF8A8
:10335C000290002700258BF80F109BF801100A91A2
:10336C00C0B287421FD2B94517D0FEB200215246D7
:10337C000423304628F076FE0C9810F4403F40F0C1
:10338C000400C0B218BF01357C2806D13046062196
:10339C00F82227F001FD84F80080DFF890040C344B
:1033AC0001370078DCE7E9B201380022884204D109
:1033BC009BF80500002800F03282DDF82CA0BAF151
:1033CC00000F504608BF1020049013AF002003904C
:1033DC00DDE909560024280400F0E6819BF80F0073
:1033EC0010B901208BF80F00F0B200210CAA0423B5
:1033FC004FF0000828F036FE0C98BAF1000F1DD0E3
:10340C0010F4403F17D04FF40050DFF82014013473
:10341C00013DABF810009BF80F00097801388BF8D0
:10342C000F00012050FA86F0B0FBF1F202FB1106FE
:10343C008BF80D60CFE7A046CDE90956C0B20A9DC6
:10344C000024702803D0E8B2702123F015FF5FFA36
:10345C0089F600210CAA0423304628F003FE9DF8BF
:10346C003000FE2803D03046FE2123F005FF304605
:10347C000621FE2227F090FC4FF400500BF11601B0
:10348C008BF80C908BF80D50ABF814405A46ABF8F7
:10349C001000FF208BF80E00E8B2400050FA85F0C7
:1034AC00D57B01EB8000B0F806B0DF4804707000EB
:1034BC00A2F812B050FA89F001EB8003FE201946F5
:1034CC0001F8020F33F8060F02910790D7480193C9
:1034DC00047812A823F0A8F80A980A9A089655FAC4
:1034EC0080F0013890FBF4F101FB14000090D5B290
:1034FC000A92B54200F04A81A81BB0FA80F040094C
:10350C000590002006900020C00740F093801FFA21
:10351C008BF0162871D9C4480078002840F03C8103
:10352C00ABF1070A28460DAA1FFA8AF4214619F0B6
:10353C0072FABDF8426006F11000A0421AD89DF84C
:10354C003E00962816D19DF83F00C10701D1800797
:10355C0003D40020AAEB060B2CE0AAEB06009DF886
:10356C003D2031462B4684B220461CF0E1FD20B3B1
:10357C00ABF1080A1FFA8AF01728C0F00D81362823
:10358C00AAF1160428463A4688BF2024AAEB040A5E
:10359C00A3B21FFA8AF128F065FD2004EAD017FACD
:1035AC0084F010F8010C962801D0013CF5E704EBEF
:1035BC000A0B0020DDF82CA0A6E7F01D83B20798BB
:1035CC0013FA80F1B1F5005F01D90120F2E780B266
:1035DC008B469A4918440A1A2846214628F042FD7F
:1035EC0006980130BBF5005F069007BF01204FF431
:1035FC000051594600200791ACE7069810B18C4950
:10360C0028F087FE0098C0B2854200F0C2800A996B
:10361C000120089E50FA81F084490978B0FBF1F240
:10362C0002FB1102824902EB420001EB8000B0F870
:10363C001CB05CE7069810B17D4928F06AFE0020AA
:10364C00DDF828900590784C2078002840F0A48074
:10365C0007981021C0F50052103883B20898C1F2B7
:10366C00001222F0FDFF2178084312992070714856
:10367C000068426870489047059888B16B4800789C
:10368C002918013991FBF0F202FB101968495FFA15
:10369C0089F0400050FA89F001EB8000B0F81CB0C2
:1036AC0063480799089C0123A0F814B08346018253
:1036BC0080F80E900198BBF9122001809BF80D1038
:1036CC00204625F001F9BBF914209BF80E1020467A
:1036DC00022325F0F9F8BBF81000BAF1000FC0F581
:1036EC00005004D004998842A4BF0121039104998D
:1036FC0088424FF07C01B8BF7821089C204623F00B
:10370C00BBFD0EF061FF05469BF80F000621FC2265
:10371C00401B8BF80F00204627F03EFB0299FC2043
:10372C009BF80E3008709BF8021015FA88F00A937B
:10373C0001443E480078B1FBF0F202FB101909F18C
:10374C0001018BF80290CAB2B2FBF0F202FB10112D
:10375C008BF8011003EB43010BEB8101898B1029D2
:10376C0006D10A990131B1FBF0F202FB10100A905C
:10377C000998401BBAF1000F09903FF429AE039849
:10378C0080F00100C0077FF423AE0DE00120354628
:10379C0058E7DDF8009056E7264812990068426811
:1037AC002548904700223AE07C2023F07FFD044618
:1037BC00FF281DD17E2023F079FD0446FF2817D168
:1037CC009BF8014004EB44000BEB8000807DFF284C
:1037DC000AD016489BF8021000780144013991FB7D
:1037EC00F0F202FB101403E020467E2123F044FD8E
:1037FC00E0B2FE218BF80340400050FA84F00BEB52
:10380C008000808BABF806009BF8020023F034FD9F
:10381C0000208BF80500BBF81000C0F5005210B268
:10382C001BB0BDE8F08F00BF08220020166E0020F0
:10383C00B8630020D80100100040034000200011A4
:10384C002DE9F84305460C46480414D4A00025D4B1
:10385C00A0075FD4600500F18180200500F108818C
:10386C00200700F13D81600040F1F8801BF08AFFD9
:10387C0024F08044F2E028F00DFEDFF824140F6DE4
:10388C003FB1D7E90A1202F0E04201F00A018918AF
:10389C004BD029F023F924F48044DFE0BB48DFF857
:1038AC000474016841F080010160B878012804D1EA
:1038BC00042023F049FD0020B87028F0EBFD0646EB
:1038CC00B348406D016804208847DFF8E0130A68AC
:1038DC00904219D12A7EBAB1FA68AAB1DFF8C003B6
:1038EC00806C002800F09780C16840F603020988BC
:1038FC00914206D0C06840F604010088884240F02E
:10390C008A8005F1140088E040F6C4120860C5E90D
:10391C00042284E00BF070FCDFF88403006C0028B8
:10392C0040F09D8024F0020498E0D7E90A65D7E9BD
:10393C000A12AA43B143C7E90A1229F0CFF8B868B2
:10394C000028A8D056EA0500A5D0D7F808C03869D9
:10395C00B7F9301032462B46E0479CE728F09AFD29
:10396C00054626F02DFA002800F0B780CC48876B6E
:10397C00002F00F0B280DFF82C830420CC49002209
:10398C0088F81800C64827F088FF29F0CEF8C948F7
:10399C0029F0A1F8C4480068006B8047C8F81000F3
:1039AC000125042088F8025024F0C0FA386990F8F8
:1039BC002810C8F80400490703D5436A04210022E3
:1039CC00984701201DF04CFDD8F80400457615F001
:1039DC006FF9D8F8040081680B461A465B684BB146
:1039EC001E88A6F60306072EF7D805FA06F616F07B
:1039FC00830FF2D0537B03F0F00301335373002396
:103A0C00FD6853602D88A5F60305012D00F28A8010
:103A1C00C8F810309FE005F1100020F003FF30468D
:103A2C0029F05CF824F09AFA78B12E6A28466FF4E3
:103A3C00807100224FF00073B0479948806B10B131
:103A4C001BF0A0FE01E044F00204EE6928460021C0
:103A5C0000224FF08063B04724F0005434B19848F2
:103A6C0021462830BDE8F84329F011B9BDE8F883A8
:103A7C008C4EB078012804D1042023F065FC002082
:103A8C00B07024F06BFA38B170686FF4807100225A
:103A9C004FF00073056AA847306950B1824800683E
:103AAC00006B804732697168801A000BC860002077
:103ABC0030617B4D81490022284627F0EEFE022022
:103ACC003076286C20B17E480221283029F0DFF8AE
:103ADC001BF058FE24F40064C0E729F026F841E0FE
:103AEC0028F0D8FC054626F06BF9A0B1DFF8B481BC
:103AFC0098F8000000070ED498F9000000280AD4AA
:103B0C00684615F0B5FB08B1009820B1DFF8B49108
:103B1C0099F8610048B329F008F81BF033FE24F043
:103B2C0008049BE7034633F8385FA5B190F844507E
:103B3C0090F8456005F0F00580F8445006F0F0056B
:103B4C00013580F8455000255360C5634587507B8F
:103B5C0000F0F000507358480022C261016001204F
:103B6C0026F09AFD24F4806478E700260127602E65
:103B7C0010D009EB0600817A31B18772407A07FACE
:103B8C0000F0C0B223F0FAFB2036F0E7CC2108405D
:103B9C008C010010032088F81800464828F09BFF81
:103BAC0028F0C3FF444F3E4D002278690020786115
:103BBC00F968F8602846444927F06FFE3A480068D7
:103BCC00006B8047D8F80C10D8F82020411A02EB73
:103BDC001130B0EB113F38BF4FF0FF3098F8241084
:103BEC00C8F8200021B1D8F80810B0EBC12F20D9AB
:103BFC0026F062FDB8B140F60900414621F83C0FB1
:103C0C00002048804A7B02F0F00201324A730A7BA2
:103C1C0002F0F0020A734860F8613960B8F83E00AF
:103C2C0010F4406FFAD00020C8F82000012088F86A
:103C3C00240020F005F82548002101600220002115
:103C4C0026F02AFD022023F07FFB102013F004FF46
:103C5C0098F8010020B9D8F80400503029F013F876
:103C6C001B48807810B90D2013F0F6FE98F825004B
:103C7C0028B1002088F82500052023F065FB0020E2
:103C8C0088F818001348C8F81C000220B5F8561024
:103C9C00B5F85420914208BF07201AF057FF3CE7B3
:103CAC00A81F0020481D00208C010010D0250020EA
:103CBC00A99D02000064002000100440012F0100A7
:103CCC00E81E0020405F0020F5F7010000000460B2
:103CDC0020E80200E52701002DE9F04FAFB00446C3
:103CEC000020ADF8280094F82400012809D1DFF851
:103CFC00300494F82810807831B1002800F0FA8153
:103D0C0002E0DFF81C04807848B9207D00F0FE004A
:103D1C00022804D12FB0BDE8F04F1AF0EFBFDFF846
:103D2C0000743878012806D1DFF8F8033979007E61
:103D3C00814240F0CE80DFF8F8534FF4FA60E06037
:103D4C00286828F017FB18B1E1680844E06007E028
:103D5C00E168286828F08AFEDFF8D80328F0A1FF74
:103D6C0094F825008DF86C0048B1022809D11BA8E5
:103D7C0004F118010822043028F07CFA01E0E06A12
:103D8C001C900DF12B051BA80AAA294619F0FEFB65
:103D9C000646D0B99DF8381094F8260001F00301BE
:103DAC0081420DD105F10E0004F13401042228F0FA
:103DBC0061FABDF82810022041222B461EF084FB2C
:103DCC009DF86A0008B1DC490870B878B8B30128CE
:103DDC0040F0908194F83800E3280DD1B86818B100
:103DEC008047002800F08681F86818B180470028C9
:103DFC0000F0808194F83800E22804D194F828006F
:103E0C00002840F077810020002E18BF05460021C5
:103E1C00282295F80D801EAE304628F080F801A8B7
:103E2C000021032228F07BF894F83800E32840F0B6
:103E3C00C0809DF8041041F00802E320E9E0207DE9
:103E4C00042800F25781012101FA00F010F0130F41
:103E5C0000F0508101A8002124224FF0000828F026
:103E6C005EF81EAF04F1180B04F12C090026BD1CE2
:103E7C0007F1060AB8F1040F45D85FFA88F0394605
:103E8C0023F071FE06460D2820D00A2E00F08C80FF
:103E9C0094F825009DF878104140490701D002267E
:103EAC0014E048B948465146042227F007FA002886
:103EBC0040F02F8194F82500022807D15846294656
:103ECC00082227F0FBF9002840F0178108F10108BF
:103EDC00D0E794F83800E32840F00C81924828F0A1
:103EEC00DEFE00283FF427AF8F4C204628F0DBFE87
:103EFC008E48C821006828F0B9FD20462FB0BDE8D7
:103F0C00F04F28F0CEBE002E4ED10020616B9DF8F4
:103F1C0085509DF878209DF87930069194F83810EA
:103F2C00C5F382068DF81C1094F82910002918BFCF
:103F3C00083606F15001182606EAD202104403F0A6
:103F4C00010240EA4210BDF8042040EA8510C0B2DC
:103F5C00104340EA0120ADF8040094F8400058B139
:103F6C008DF81D0028F0F4FE089028B194F840203C
:103F7C0004F1410128F07EF96A48C08AADF82400AA
:103F8C0094F9150010F16D0F0146D8BF6FF06C015C
:103F9C0028F0B8F9C8BF3B21A07D002818BF01202C
:103FAC0041EAC0108DF82600E17D01A802F0A0F8CE
:103FBC00A0E094F8251011F0070119D0022920D1A6
:103FCC0006F1080004F11801082228F053F994F8BE
:103FDC00301094F8380002228DF888109DF80410E7
:103FEC00E32862F302018DF804103FF424AF0AE0D9
:103FFC00E16A1F919DF8041021F007018DF804105F
:10400C0001E09DF8041094F8292021F0080141EA00
:10401C00C2029DF80510022302F00F0263F3051192
:10402C0094F82630022B16D394F82760012E17D063
:10403C00D6B94FEA980606F00706042E6DD801276C
:10404C0007FA06F616F0160F67D0C8F3820621F0B1
:10405C001701314408E0002B08BF21F0170103E0E1
:10406C0041F0040121F0130163F30512237D032BAE
:10407C0003D1E36B41F0080127938DF89000606B3E
:10408C00239001F00700C9B242EA8010C1F3C002CC
:10409C0040EA4220C1F30012C1F3401140EA8220F1
:1040AC0040EAC120ADF8780094F8400020B18DF8BA
:1040BC00910004F1410025901A482B46C08AADF8B6
:1040CC00980094F9150010F16D0F0146D8BF6FF0F0
:1040DC006C0128F017F9C8BF3B21A07D002818BF40
:1040EC00012041EAC010E17D8DF89A001EA81BAAA0
:1040FC000AF092FA2FB0BDE8F08F01A859460822B9
:10410C00083028F0B7F894F830008DF8140002202D
:10411C00FCE6D9F800000290F7E601F0E801A3E70D
:10412C0064230020C85E002010650020A46D0020D0
:10413C00A06D0020CC640020012500202DE9FE4F4D
:10414C008846080426D45FEAC87004BF0020BDE886
:10415C00FE8FE548056828F054FD044628F04FFD15
:10416C0060434FF47A714FF6FF72B0FBF1F14FF6EA
:10417C00FF70002D00F01A812B886C88CB1A9BB233
:10418C009C4240F21C81E31A94B2A342B8BF1A4677
:10419C00ED68EEE7DFF840A3CDF804809AF8000054
:1041AC001CF03EFC002800F0FC800646007801283C
:1041BC0040F0EC80DAF8041096F83390D6F814B08E
:1041CC0096F8138021B148468847002840F0DE80DD
:1041DC00718896F83100022225F0CCF805460028AB
:1041EC0042D0287A297CA0F10108FF2900F0BB807D
:1041FC00707F4F46C00718BF0027E97C287D01441B
:10420C00B94204D8E974FF2101FA00F06874A96975
:10421C00A87C96F83020896A10FB0710F16A27F009
:10422C0061FF287D697CB7FBF0F202FB1070012264
:10423C008240D2B20A436A74C8457CD196F83010D9
:10424C00AB7C13FB0713A9698B844FF4FF7303FA40
:10425C0000F0C0B21043FF2868746CD1287C1DF0AC
:10426C00D3F8FF2028747FE0707FC00700F08E80A9
:10427C00B07F27F0A7FF002800F0888004461C20A0
:10428C0028F0F1FC002800F081801C21054628F064
:10429C00F1FBB07F02A926F005F89DF80900022178
:1042AC002875284626F098F8708896F8312096F8EC
:1042BC00301096F83330A880287DEA71FF2202FA7C
:1042CC0000F0687460680078A9742874302013FBBF
:1042DC00010080B225F0C0FC0028A8615DD0044626
:1042EC001A20B11C2060708CA080A01D26F05EFEF0
:1042FC00F27F04F13000B17F96F82830C4F81CB07E
:10430C0084F81980A062307CE273744A217563755D
:10431C000121A075928C2282F28EA285F28C62828F
:10432C00B6F81100A4F817009AF8000085F8089068
:10433C001BF02EFF55E728F064FC044628F05FFCC8
:10434C0060434FF47A71B0FBF1F065492880634803
:10435C00097800794843642148436249097800FB95
:10436C000100688000E04F46E87C297D6A7C0144AE
:10437C000139B94218BFFF2A0CD186F83300708876
:10438C0006F11C0186F8342019F02CFA304626F080
:10439C00FFFB03E7C845F9D1EFE7284626F02CF8D8
:1043AC00F4E7019880F40040BDE8FE8F92B282429F
:1043BC004BD049480121007828F0BDFB45E0A87995
:1043CC00022806D1287CFF2837D0A86926F0E0FB0C
:1043DC0033E028F016FC044628F011FC60434FF43F
:1043EC007A71B0FBF1F03F49288095F838000978D4
:1043FC0088421BD295F83620FF2A06D195F8372033
:10440C00013085F8380085F8362095F8351095F888
:10441C00394082F0FF0300200126C7B2A7421DD20B
:10442C0006FA07F71F4214D10130F6E7EA8BA87E93
:10443C0095F82A10E92321F07FFC284625F0DCFFB3
:10444C002548012100781BF0A3FE88F00100BDE88F
:10445C00FE8FFBB201441A4385F83620AB8F95F8DA
:10446C003440C8B204FB10339EB2A64203D2FF22E2
:10447C0085F8362002E0FF2A08D12346184A174E49
:10448C001278367972436426724302E095F83A202A
:10449C0023466A802A8D0E0606D022F02002444361
:1044AC002A852A6C224404E042F020012A6C2985DA
:1044BC00297A85F82E10E9796A6285F82D10D9B21F
:1044CC0069840549496811B188470028B8D105F1BC
:1044DC00100005F059FBB3E740250020C85E002012
:1044EC00DC260020E2260020145000202DE9F04F9D
:1044FC00C3B00DF1450B884601469146584628F04D
:10450C004DFB08F0080500260DF1040A042E39D8DD
:10451C00F4B25146204623F026FB0D2803D0074663
:10452C000A2801D17DE17DBB204659461CF0BAFB1F
:10453C0001360028EAD0002D51D10BF137010DF1D5
:10454C008600022227F096FEBDF886009DF83A10F0
:10455C00ADF8C800C80700F083800AF1370732A90C
:10456C000222384626F0AAFE9DF83A10012877D18F
:10457C0001F0FE00FF2104228DF83A00384627F0A6
:10458C00CEFC6FE001274CE10220214641225B4624
:10459C001DF09AFF0746B4480BF10B0127F0ECFF16
:1045AC0068B90BF13701204628F0AAFA38B90BF19B
:1045BC003B01204628F0A4FA002800F032810C20A0
:1045CC0028F0C6FB002800F0198128F087F9B9F112
:1045DC00000F18BF4FF0010984F80A9005E19DF80F
:1045EC004500400661D49DF84600C00700F0A48049
:1045FC0032AF0DF14501384628F0D0FA0DF186099D
:10460C0001A9484628F0CAFA9DF8BC00810700F1C0
:10461C00288110F001054FF03B0007F1370108BF6E
:10462C0037200422484427F025FE0220002D08BF25
:10463C0001209DF8BC10084349468DF8BC0001A828
:10464C0028F0ACFA08F060009DF805104038B0FA7C
:10465C0080F001F0FE01400908448DF805006BE084
:10466C00880733D44FF0FF300BF1220627F032FDD0
:10467C003846314626F022FE0AF12C05E0B33846C6
:10468C0029460A2227F0F6FD32AE28460A22314688
:10469C0027F0F0FD3046394628F041FA002800F0AA
:1046AC00B98001A827F017FCB4E04FF0FF3027F0D9
:1046BC0011FD32A8394626F001FE0BF1220930B368
:1046CC00384649460A2227F0D5FD27E00AF13B0679
:1046DC0032A90222304626F0F1FD9DF83A1001284D
:1046EC0040F08E8001F0FD00FF2104228DF83A008D
:1046FC00304627F014FC8DE02846314628F00FFA9E
:10470C00002800F0928032A928460A2280E0384620
:10471C00494628F004FA002800F0958008F0600162
:10472C009DF804006039B1FA81F100F0BF0049092D
:10473C0040EA81108DF804009DF84600810608D5EA
:10474C000AF10B000BF10B01022227F093FD9DF8EF
:10475C004600400613D59DF805000BF10D01012212
:10476C0040F040008DF805000AF10D0027F082FDA5
:10477C000AF112000BF11201102227F07BFD9DF8BB
:10478C004500800605D59DF8040040F020008DF80A
:10479C0004000AF10E000BF10E01042227F06AFD51
:1047AC00BDF88400214641225346ADF84300022057
:1047BC001DF08AFE07462C480AF10B0127F0DCFE9F
:1047CC0058B90AF13701204628F09AF928B90AF1AC
:1047DC003B01204628F094F918B30C2028F0B8FAC5
:1047EC0060B128F07BF80120A072204821460078A7
:1047FC0028F0D8F8204628F055F912E0102710E0E0
:10480C0041F00100314604228DF83A000AF13700DC
:10481C0027F030FD01AB0220214641221DF054FE51
:10482C000746384643B0BDE8F08F32A8394628F029
:10483C0076F90128EED132A8294628F070F9012822
:10484C003FF42FAFE6E70AF12C0732A80A223946CB
:10485C0026F034FD00287FF433AF3846494628F063
:10486C005EF90C27DDE700BFC85E0020266E002035
:10487C002DE9F04F8FB00C46080430D4A00448D476
:10488C00A00652D4E00600F10B81600600F11A81FB
:10489C00200600F11E81E00500F12081200500F1C9
:1048AC002281E00400F13581600400F13C81A00715
:1048BC0000F15081A00500F15E81200700F16881B4
:1048CC00600500F16B81E0034FF0000540F1F680CC
:1048DC001DF0F0FEBA48C57084F48035EEE0B648A1
:1048EC0000781CF09DF888B10178B44A0546002088
:1048FC00582808D0135C08308B42F9D1104450F87A
:10490C00041C28468847284626F042F984F40045C2
:10491C00D4E01FF065FC28B10546FDF787F8284662
:10492C0026F036F984F40055C8E0A34F20213878DE
:10493C0021F030F9DFF888820125D8F808100843F7
:10494C0017D028F05EF9054628F059F968434FF462
:10495C007A71B0FBF1F0D8F80810401A4FEA500504
:10496C0038BF6FF00045002908BF0D46002D00F040
:10497C00AE8000200421002224F02CFF06464FF0CC
:10498C00060A4FF0FF094FF6FF780DF1080B002EC9
:10499C004DD0304604210022374624F01BFF06463A
:1049AC003889401B38BF002038810004EFD1B87B18
:1049BC00D0B301280AD17889400707D4386887F822
:1049CC000DA0B721407B1FF0C3FBE0E739685A46C6
:1049DC008DF80690ADF80480086AC97F0EF082FC51
:1049EC0001281BD1B87BB97A8DF838000907788A71
:1049FC0040F08002ADF8362006D540F4C070ADF81A
:104A0C003600387B8DF83A00786910B1007BADF830
:104A1C001800584601A9002203F0C4FC387B87F823
:104A2C000DA017F079FEB2E701207873AFE7DFF83D
:104A3C009081614F25F06BF800200121002224F0B9
:104A4C00C9FE18B1387820211BF0A2FB00200421EC
:104A5C000022002624F0BEFE60B306890421002249
:104A6C0024F0B8FE28B10289B1B2914228BF164693
:104A7C00F4E7A8B2B1B2814217D9D6FA55F0202189
:104A8C0080B24200387828F056F828F0BAF805467B
:104A9C0028F0B5F868434FF47A71B0FBF1F609E0F1
:104AAC0009F066FE84F0100508E0387820211BF030
:104ABC006FFB0026C8F8086084F0200528460FB06C
:104ACC00BDE8F08F0DF00CFF84F04005F6E70025F3
:104ADC00B0E726F0C7FC84F08005EFE724F0EAFC91
:104AEC0084F48075EAE71DF025FA37480078012830
:104AFC000CD13448007848B14FF47A7100FB01F2C4
:104B0C002D484FF40061007828F012F884F4006509
:104B1C00D4E72B48017819B1002101701DF00AFA75
:104B2C0084F48055CAE72A48006880B1274909787F
:104B3C0001290CD180472748006800B180471E48E6
:104B4C004FF480414FF47A72007827F0F1FF84F42F
:104B5C008045B3E72048007890B102AD284627F095
:104B6C004DFF27F0A3FC1D490B781D490A782946F7
:104B7C001CF0F2FB09E017F005FA84F400759DE7D0
:104B8C001848418B012028F064F884F0020595E761
:104B9C000B48012184F0080581708FE712480078DA
:104BAC00022808BF16F09DF80E480121808C28F0D1
:104BBC0042F884F4806581E7176E002000E1020062
:104BCC00E8240020E7260020E8260020E626002026
:104BDC003C22002048220020C1260020EB26002089
:104BEC00EC260020C85E00202425002070B586B07D
:104BFC000C46080403D4600433D400203EE0C648BD
:104C0C0000781BF00DFFB8B305460078A0F1D00179
:104C1C0006292BD9A0F131010629C0F08A801A2867
:104C2C0044D0FD2857D0FE286FD1162025F014F85B
:104C3C00002800F07E8006460230142127F01AFF6F
:104C4C00932030802A796878A978EB88012A3381FF
:104C5C003071317418BF0222B271E978A8783175BD
:104C6C004DE022F03DFB84F4804007E001208840B9
:104C7C0010F0750F04D05CE084F4004006B070BDF9
:104C8C0001294BD1A54E6878B178814251D006F8F4
:104C9C00020FA34B4FF000700021324623F02EFC84
:104CAC0016F8010C9F4981F8680042E0302024F08E
:104CBC00D3FF00283DD03021064627F0DBFE9220A2
:104CCC00A91D3070A87B0328307169D1B01D082252
:104CDC0027F008FA66E00A2024F0BEFF48B3064627
:104CEC000020C6F80600C6F8020091203080A87893
:104CFC006978EA7870713171B271A988318126F0C6
:104D0C00D1FC002840F084808AE02846FBF790F91B
:104D1C0078B1A87829461CF077FBADE7E889A0F5B7
:104D2C000041062913D8DFE801F0087F8A0498B007
:104D3C00BB00284625F02CFF9EE728461BF088FA7E
:104D4C000028F6D06988824B06460120B2E048F272
:104D5C003601884200F0B58048F22001884200F00C
:104D6C00B88048F22101884200F0BB8048F2220151
:104D7C00884200F0BE8048F23401884200F0C180C5
:104D8C001328D6D100206E460290CDE900002846AB
:104D9C00314626F0A9F869886E4B4FF080705AE0C6
:104DAC000888F080D5F80200C6F81200E88AA6F848
:104DBC001B00E87BB073288A3082688AF082287DD9
:104DCC003076687D002818BF01207076687E002838
:104DDC0018BF0120B076287E7077E869306295F8AC
:104DEC00200086F82400A88DF08495F82E0086F813
:104DFC002800A88C708527F036FF0028F06298D028
:104E0C00AA8CA96A27F06EF9287D26F04BFC20B1FC
:104E1C00007931461CF0F8FA8BE7F06A27F021FF95
:104E2C00304625F0B5FE84E728461BF011FA002821
:104E3C003FF47FAF6988454B064602203AE06E4648
:104E4C001221304627F016FE2846314618F090F80D
:104E5C0069883D4B042032465AE06E461821304694
:104E6C0027F008FE2846314626F0B0FB6988354B02
:104E7C001020324623F042FB039818B127F0F1FEC4
:104E8C00002003900598C8B953E7284624F021F96F
:104E9C0000283FF44EAF6988294B0646202009E0D4
:104EAC00284624F016F900283FF443AF6988234BB9
:104EBC0006464020324623F021FB304627F0D1FE37
:104ECC0037E7A8696988184B27F0CCFC4FF48000B1
:104EDC001EE0A8696988174B27F0C4FC4FF480408A
:104EEC0016E0A8696988144B27F0BCFC4FF40050FD
:104EFC000EE0A86969880E4B27F0B4FC4FF4004013
:104F0C0006E0A8696988094B27F0ACFC4FF48010C7
:104F1C0023F0F4FA0DE700BF855700208025002010
:104F2C007DA30200C85E0020839202005992020009
:104F3C00AD9202002F92020005920200471002006F
:104F4C00ED0F020005A50100857201005D05020050
:104F5C00BD050200993A020098B0BE4E01214FF0F7
:104F6C000109306027F046FC09200DF10B040121EA
:104F7C008DF80B001020224627F0F4FB10200021A6
:104F8C00012223464FF0000826F0DEFE9DF90B00AF
:104F9C0025F0F0FF03AF384627F027FDAE4D00217A
:104FAC003A468DF80C8005F11404204626F032F9AF
:104FBC006C6027F00DFC05F1080A2146524622F0E0
:104FCC00A9F92870A548A0F80880A0F8008006AFC1
:104FDC00384626F0E7FF002039460FF0DDFDE8608B
:104FEC00012039460FF0D8FD28614068007826F082
:104FFC0043FD10B9287827F0C6FC994FE86839466C
:10500C0027F063FD2869394627F05FFD082006F874
:10501C00040F94483146B060287817F079F806F1FF
:10502C00100108201FF0B4F924F0B0FC8E488F4A10
:10503C000178082021F058FF8D4908201DF01AFA3C
:10504C0028781EF053FA8B488DF82A908DF824900E
:10505C008DF81C900DF11809CDF818804946089070
:10506C008548CDF826008548CDF82B00287827F008
:10507C008FFC06AF4421384627F0FCFC40F20110AF
:10508C003946ADF85600287827F064FC7C487D4AF8
:10509C000178082022F01AFD28784FF480614FF433
:1050AC0000724FF48073CDE900215146224616F070
:1050BC008FF88DF81880287806AE314627F06DFCF5
:1050CC0006F1060A714E4FF00A0B20464FF0FF31E5
:1050DC000FF04EFA0028F8D028781BF0A1FC00281D
:1050EC0076D007460078922815D0E5282BD0CA2810
:1050FC002DD0CB2832D0E22834D0E32836D0C528A6
:10510C005FD1387900285CD1287849468DF818B0E1
:10511C0027F043FC55E0D7F81200B97BCDF81A0004
:10512C0038798DF82710398AADF82810411E8DF882
:10513C002600022903D303281CD00F281FD1F8887E
:10514C00ADF81E001BE0381D27F09CFC39E02878D8
:10515C0049468DF8188027F002FC32E0287827F0B9
:10516C0003FC2EE0381D16F0AFFB2AE0381D21F0B1
:10517C007BFF26E0B91D5046082226F0B3FFD7F876
:10518C001600CDF82A00F87E8DF82E00B88BADF8FD
:10519C002F00B87E8DF83100386A0D9097F82400F6
:1051AC008DF83800F88CADF8440097F828008DF88D
:1051BC004600788DADF83C00F86A1090484602F035
:1051CC003DFC384614F094F910B9384625F0E0FC53
:1051DC00A868810723D4C1050BD53078012802D1EA
:1051EC001BF0D6FA01E014F0BDFAA86820F4807028
:1051FC00A860810505D519F081FDA86820F4007020
:10520C00A860410505D51DF06DFBA86820F48060F1
:10521C00A860010744BF20F00800A86055E70020F3
:10522C00CDE9060006A813F09FFC27F0E8FC4FF42C
:10523C007A71B1FBF0F04FF4FA61484315F0F0F9D4
:10524C00FF20032121F02AF827F04EF90E48012106
:10525C000160FEE7D821002074210020E06C0020C2
:10526C0005A20200B423002056E9020028DB02004C
:10527C00AD70020000F8FF07FFFF010403010001FD
:10528C0054E9020018E902007C0520436623002043
:10529C007FB50138062800F2DE800C46DFE800F00E
:1052AC000428465E7A8C9900B548007801380128AC
:1052BC0000F2D180002C00F010810020032100248A
:1052CC0020F0ECFFAB4DAC4E0420042132222870B0
:1052DC00307827F030FC0820002108F0F7F93078FE
:1052EC006C704FF4805104B0BDE870401CF0A4BD4C
:1052FC000020002526F086FFA04801210170042023
:10530C008DF80D0024B19A48C586072025F014FAB3
:10531C0098480421322205709748007827F00BFC3E
:10532C00934890F8371001F0FE0192E09448007811
:10533C000138012800F28F808F4804213222007836
:10534C0027F0F9FB002C00F0E280894C8948012100
:10535C000170E069E0B321F0EBFBFAE701208DF876
:10536C000D0054B182480021874A80F836108548D8
:10537C0027F0F0F8072025F0DFF97E4800213222D3
:10538C0001707D4827F04EFB794890F8371001F0FA
:10539C00FD015EE002208DF80D00754854B300212C
:1053AC00794A80F83610774827F0D4F8002003218A
:1053BC0020F074FF072034E06D4C03208DF80D00B5
:1053CC0094F8360008B90120A0712078002854D038
:1053DC007FBD00258DF80D5094B312F097FB6548F6
:1053EC000D21C8220570624880F83610624827F0FB
:1053FC0019FB29E0082180F8361061490978012948
:10540C0011D890F83A0070B900200DF10A018DF80E
:10541C000A0052201FF0D2FA26F00AFC22F00EFDF0
:10542C00002025F089F9534800213222017052489E
:10543C0027F0F8FA4E4890F8371001F0FB0108E01D
:10544C004B48022180F83610494890F8371001F08B
:10545C00EF0180F837104648016A0029B8D090F85F
:10546C003600002203238DF80C004348007803A972
:10547C0000910A2120F0C7F97FBD206926F0BAFE01
:10548C000028A5D13C4D4FF48041287820F082FBB8
:10549C0000289DD1002604F11000C4E9056624F013
:1054AC0067FD28784FF480411CF0C6FCA0790128D8
:1054BC0006D194F836000B2804BF002084F836007F
:1054CC002C48A6710178062946D1002132220170A0
:1054DC002878042127F02FFB43E0254C0720264D8C
:1054EC004FF4805184F8360001208DF80D00287897
:1054FC001CF0A2FC0020002624F0E0F82878022101
:10550C0041F2883284F8376027F015FBA3E7184C7A
:10551C00022000218DF80B1084F83600154801701C
:10552C0094F837000DF10B0100F0FD0084F8370002
:10553C0001208DF80D0052201FF040FA26F078FB68
:10554C0022F07CFC002025F0F7F8E06900283FF4FD
:10555C0082AF21F0EDFAF8E7C178062904BF0021EB
:10556C00C17094F8370000F0F70084F8370072E748
:10557C0054200020746D00201E6E0020DA260020BE
:10558C0024250020C85E0020AE26002092B0DFF853
:10559C00B892D9F8000010B1002180F845104830BD
:1055AC0022F0A4FE26F076FF8046072012F01EFDA6
:1055BC0019F002FB10B1A54827F010F91BF0A8FF59
:1055CC0001AD284626F0E6FD0427002029468DF87B
:1055DC00047026F0E7FD9E4C206026F025FA0AADFB
:1055EC00284626F0AFFC002029468DF8287026F0BE
:1055FC00B1FC984E306026F021FA06AD284626F014
:10560C00B1FC002029468DF8187026F0B3FC3168E7
:10561C00914D286019B9914827F0E0F8286810B925
:10562C008F4827F0DBF8206810B98E4827F0D6F8A1
:10563C001EF04AFCD9F800004FF0FF3438B1CDE928
:10564C00104410A9082225F0B5FB01281BD1CDE987
:10565C001044082027F007FB002846D005460026FA
:10566C00052E04D827F044F9A8530236F8E74FF674
:10567C00200029460822E8807B4826F033FD284686
:10568C0027F0EFFA09E0D9F80010CDE91044002911
:10569C00DFD07548082226F025FD10AA012008212C
:1056AC0027F060F8092800D0D8B923F04DFE800708
:1056BC0012D4CDE91044CDE90E440EAB01200021EB
:1056CC00082226F041FB60B90EA810A9082225F08B
:1056DC0071FB002800F0B280634A0120082127F0FA
:1056EC0047F86149E2201FF069F914F089F8242089
:1056FC0027F0B9FA5D4E002830604DD05C4F5D4C00
:10570C0007F10C0527F08AF95B498968D1F84C132D
:10571C0088473068056007F1100527F07FF91FF006
:10572C00B3FF3068456007F1140527F077F923F0D3
:10573C0041FA3068856007F1180527F06FF91CF005
:10574C00A9FA3068C56007F11C0527F067F921F04C
:10575C00F7FC3068056107F1200527F05FF921F0AF
:10576C0043F83068456107F1240527F057F91FF01D
:10577C00E1F83068856107F1280527F04FF91BF037
:10578C00A3FF3068C56107F12C0527F047F9387085
:10579C0011F01EFA306805621AF01AFA26F0FFFDB5
:1057AC00404627F09BF919F0DFFA27F0C4F80120E6
:1057BC001FF00AFE1BF0ECF931480078022808D1E2
:1057CC002E480078012804D14FF40040012107F045
:1057DC007DFF274D4FF48041287826F0D3FEDFF86B
:1057EC00A4904FF0000868684FF0FF310EF0C0FE37
:1057FC003068002750F82710096821B9791C082F48
:10580C000F46F7D3EFE727F06EF8316851F8271001
:10581C000C68C1F8008027F097F959F82720002070
:10582C0021469047044627F05EF8316851F827105E
:10583C000A6822430A6027F087F9D4E70A480EA9C0
:10584C00082226F04FFC4CE76C260020FCE40200FA
:10585C00606D0020646D0020686D0020BFE60200C2
:10586C00ACE60200F6E60200106D0020E86D0020A8
:10587C0000200020217302000C010020FF260020D4
:10588C002425002038E402002DE9F04F89B08A4627
:10589C0008040DD45FEACA7040F01F815FEA8A7079
:1058AC0000F12D815FEA0A7000F13581002044E19E
:1058BC00A34F38781BF0B4F8DFF88C92A64DA14CAE
:1058CC0006464FF0000B48F21508002E00F002813E
:1058DC00307831283AD032284BD0D32840F0B480DD
:1058EC00F089404574D0382840F0AE80CDF820B017
:1058FC00CDE906BB304606A922F008FC9DF81C1029
:10590C00052969D8307B002840F09E809DF81D0049
:10591C00002800F09980052800F29680069825F062
:10592C00D2FF002840F09080707C8849AC4678709B
:10593C00708808809DF81D00214601388DF81D00E7
:10594C0006A890E82C002CC165467DE0B8780328A9
:10595C007AD899F82E10284625F0B5FF002873D177
:10596C00FF207C49607170880880B0887849088075
:10597C006AE06079FF2814D0002019F02BFA024657
:10598C00B9F8701078783346CDF800B014F082FA7C
:10599C006079002858D038780821322227F0CBF8CB
:1059AC0052E099F81810706820FA01F2D2071ABF69
:1059BC003144097A002100221B2A43D020FA02F339
:1059CC00DB0703D0B3181B7A99421ED80132F3E7D8
:1059DC00304623F0FBFD37E0FF293DD0FE2956D1A0
:1059EC0099F872109DF81E00884202D860BBFF29FE
:1059FC002AD11EF06DFE069900201B2859D021FAE1
:105A0C0000F2D20757D10130F7E7B9F86E004F49D1
:105A1C00334608804E4802884E480188102000907A
:105A2C00002014F037FA0120F870B87840B93C2007
:105A3C0002214EF66022B880387827F07CF8B878CE
:105A4C000130B87084F805B0304625F0A1F83878EC
:105A5C001AF0E6FF064638E799F872109DF81E001A
:105A6C00884203D80028EFD1FF29EDD11EF030FE7B
:105A7C00069838B1D9F82810814203D0C9F828000B
:105A8C0024F06AFEBDF8200025F088FDDCE7307BB1
:105A9C000028D9D170882D49802200230880707C81
:105AAC00CDE900BBCDE902BBCDE904BB12F0B4FFDC
:105ABC00CAE71B2000E0C0B299F818108142C3D08D
:105ACC002649087099F80700642100FB01F2387828
